{
  "_format": "hh-sol-artifact-1",
  "contractName": "ProSpectVault",
  "sourceName": "contracts/ProSpectVault.sol",
  "abi": [
    {
      "inputs": [
        {
          "internalType": "address",
          "name": "_usdc",
          "type": "address"
        }
      ],
      "stateMutability": "nonpayable",
      "type": "constructor"
    },
    {
      "inputs": [
        {
          "internalType": "address",
          "name": "sender",
          "type": "address"
        },
        {
          "internalType": "uint256",
          "name": "balance",
          "type": "uint256"
        },
        {
          "internalType": "uint256",
          "name": "needed",
          "type": "uint256"
        },
        {
          "internalType": "uint256",
          "name": "tokenId",
          "type": "uint256"
        }
      ],
      "name": "ERC1155InsufficientBalance",
      "type": "error"
    },
    {
      "inputs": [
        {
          "internalType": "address",
          "name": "approver",
          "type": "address"
        }
      ],
      "name": "ERC1155InvalidApprover",
      "type": "error"
    },
    {
      "inputs": [
        {
          "internalType": "uint256",
          "name": "idsLength",
          "type": "uint256"
        },
        {
          "internalType": "uint256",
          "name": "valuesLength",
          "type": "uint256"
        }
      ],
      "name": "ERC1155InvalidArrayLength",
      "type": "error"
    },
    {
      "inputs": [
        {
          "internalType": "address",
          "name": "operator",
          "type": "address"
        }
      ],
      "name": "ERC1155InvalidOperator",
      "type": "error"
    },
    {
      "inputs": [
        {
          "internalType": "address",
          "name": "receiver",
          "type": "address"
        }
      ],
      "name": "ERC1155InvalidReceiver",
      "type": "error"
    },
    {
      "inputs": [
        {
          "internalType": "address",
          "name": "sender",
          "type": "address"
        }
      ],
      "name": "ERC1155InvalidSender",
      "type": "error"
    },
    {
      "inputs": [
        {
          "internalType": "address",
          "name": "operator",
          "type": "address"
        },
        {
          "internalType": "address",
          "name": "owner",
          "type": "address"
        }
      ],
      "name": "ERC1155MissingApprovalForAll",
      "type": "error"
    },
    {
      "inputs": [
        {
          "internalType": "address",
          "name": "owner",
          "type": "address"
        }
      ],
      "name": "OwnableInvalidOwner",
      "type": "error"
    },
    {
      "inputs": [
        {
          "internalType": "address",
          "name": "account",
          "type": "address"
        }
      ],
      "name": "OwnableUnauthorizedAccount",
      "type": "error"
    },
    {
      "inputs": [],
      "name": "ReentrancyGuardReentrantCall",
      "type": "error"
    },
    {
      "anonymous": false,
      "inputs": [
        {
          "indexed": true,
          "internalType": "address",
          "name": "account",
          "type": "address"
        },
        {
          "indexed": true,
          "internalType": "address",
          "name": "operator",
          "type": "address"
        },
        {
          "indexed": false,
          "internalType": "bool",
          "name": "approved",
          "type": "bool"
        }
      ],
      "name": "ApprovalForAll",
      "type": "event"
    },
    {
      "anonymous": false,
      "inputs": [
        {
          "indexed": true,
          "internalType": "uint256",
          "name": "tokenId",
          "type": "uint256"
        },
        {
          "indexed": false,
          "internalType": "uint256",
          "name": "initialPrice",
          "type": "uint256"
        }
      ],
      "name": "AthleteCreated",
      "type": "event"
    },
    {
      "anonymous": false,
      "inputs": [
        {
          "indexed": true,
          "internalType": "address",
          "name": "to",
          "type": "address"
        },
        {
          "indexed": false,
          "internalType": "uint256",
          "name": "amount",
          "type": "uint256"
        }
      ],
      "name": "FeesWithdrawn",
      "type": "event"
    },
    {
      "anonymous": false,
      "inputs": [
        {
          "indexed": true,
          "internalType": "address",
          "name": "previousOwner",
          "type": "address"
        },
        {
          "indexed": true,
          "internalType": "address",
          "name": "newOwner",
          "type": "address"
        }
      ],
      "name": "OwnershipTransferred",
      "type": "event"
    },
    {
      "anonymous": false,
      "inputs": [
        {
          "indexed": true,
          "internalType": "uint256",
          "name": "tokenId",
          "type": "uint256"
        },
        {
          "indexed": false,
          "internalType": "uint256",
          "name": "oldPrice",
          "type": "uint256"
        },
        {
          "indexed": false,
          "internalType": "uint256",
          "name": "newPrice",
          "type": "uint256"
        }
      ],
      "name": "PriceUpdated",
      "type": "event"
    },
    {
      "anonymous": false,
      "inputs": [
        {
          "indexed": true,
          "internalType": "address",
          "name": "buyer",
          "type": "address"
        },
        {
          "indexed": true,
          "internalType": "uint256",
          "name": "tokenId",
          "type": "uint256"
        },
        {
          "indexed": false,
          "internalType": "uint256",
          "name": "amount",
          "type": "uint256"
        },
        {
          "indexed": false,
          "internalType": "uint256",
          "name": "totalCost",
          "type": "uint256"
        }
      ],
      "name": "TokensPurchased",
      "type": "event"
    },
    {
      "anonymous": false,
      "inputs": [
        {
          "indexed": true,
          "internalType": "address",
          "name": "seller",
          "type": "address"
        },
        {
          "indexed": true,
          "internalType": "uint256",
          "name": "tokenId",
          "type": "uint256"
        },
        {
          "indexed": false,
          "internalType": "uint256",
          "name": "amount",
          "type": "uint256"
        },
        {
          "indexed": false,
          "internalType": "uint256",
          "name": "totalReceived",
          "type": "uint256"
        }
      ],
      "name": "TokensSold",
      "type": "event"
    },
    {
      "anonymous": false,
      "inputs": [
        {
          "indexed": false,
          "internalType": "uint256",
          "name": "oldFee",
          "type": "uint256"
        },
        {
          "indexed": false,
          "internalType": "uint256",
          "name": "newFee",
          "type": "uint256"
        }
      ],
      "name": "TradingFeeUpdated",
      "type": "event"
    },
    {
      "anonymous": false,
      "inputs": [
        {
          "indexed": true,
          "internalType": "address",
          "name": "operator",
          "type": "address"
        },
        {
          "indexed": true,
          "internalType": "address",
          "name": "from",
          "type": "address"
        },
        {
          "indexed": true,
          "internalType": "address",
          "name": "to",
          "type": "address"
        },
        {
          "indexed": false,
          "internalType": "uint256[]",
          "name": "ids",
          "type": "uint256[]"
        },
        {
          "indexed": false,
          "internalType": "uint256[]",
          "name": "values",
          "type": "uint256[]"
        }
      ],
      "name": "TransferBatch",
      "type": "event"
    },
    {
      "anonymous": false,
      "inputs": [
        {
          "indexed": true,
          "internalType": "address",
          "name": "operator",
          "type": "address"
        },
        {
          "indexed": true,
          "internalType": "address",
          "name": "from",
          "type": "address"
        },
        {
          "indexed": true,
          "internalType": "address",
          "name": "to",
          "type": "address"
        },
        {
          "indexed": false,
          "internalType": "uint256",
          "name": "id",
          "type": "uint256"
        },
        {
          "indexed": false,
          "internalType": "uint256",
          "name": "value",
          "type": "uint256"
        }
      ],
      "name": "TransferSingle",
      "type": "event"
    },
    {
      "anonymous": false,
      "inputs": [
        {
          "indexed": false,
          "internalType": "string",
          "name": "value",
          "type": "string"
        },
        {
          "indexed": true,
          "internalType": "uint256",
          "name": "id",
          "type": "uint256"
        }
      ],
      "name": "URI",
      "type": "event"
    },
    {
      "inputs": [],
      "name": "MAX_FEE_BPS",
      "outputs": [
        {
          "internalType": "uint256",
          "name": "",
          "type": "uint256"
        }
      ],
      "stateMutability": "view",
      "type": "function"
    },
    {
      "inputs": [],
      "name": "MAX_PRICE",
      "outputs": [
        {
          "internalType": "uint256",
          "name": "",
          "type": "uint256"
        }
      ],
      "stateMutability": "view",
      "type": "function"
    },
    {
      "inputs": [],
      "name": "MIN_PRICE",
      "outputs": [
        {
          "internalType": "uint256",
          "name": "",
          "type": "uint256"
        }
      ],
      "stateMutability": "view",
      "type": "function"
    },
    {
      "inputs": [],
      "name": "TOKENS_PER_ATHLETE",
      "outputs": [
        {
          "internalType": "uint256",
          "name": "",
          "type": "uint256"
        }
      ],
      "stateMutability": "view",
      "type": "function"
    },
    {
      "inputs": [],
      "name": "accumulatedFees",
      "outputs": [
        {
          "internalType": "uint256",
          "name": "",
          "type": "uint256"
        }
      ],
      "stateMutability": "view",
      "type": "function"
    },
    {
      "inputs": [
        {
          "internalType": "uint256",
          "name": "",
          "type": "uint256"
        }
      ],
      "name": "athleteActive",
      "outputs": [
        {
          "internalType": "bool",
          "name": "",
          "type": "bool"
        }
      ],
      "stateMutability": "view",
      "type": "function"
    },
    {
      "inputs": [
        {
          "internalType": "address",
          "name": "account",
          "type": "address"
        },
        {
          "internalType": "uint256",
          "name": "id",
          "type": "uint256"
        }
      ],
      "name": "balanceOf",
      "outputs": [
        {
          "internalType": "uint256",
          "name": "",
          "type": "uint256"
        }
      ],
      "stateMutability": "view",
      "type": "function"
    },
    {
      "inputs": [
        {
          "internalType": "address[]",
          "name": "accounts",
          "type": "address[]"
        },
        {
          "internalType": "uint256[]",
          "name": "ids",
          "type": "uint256[]"
        }
      ],
      "name": "balanceOfBatch",
      "outputs": [
        {
          "internalType": "uint256[]",
          "name": "",
          "type": "uint256[]"
        }
      ],
      "stateMutability": "view",
      "type": "function"
    },
    {
      "inputs": [
        {
          "internalType": "uint256",
          "name": "tokenId",
          "type": "uint256"
        },
        {
          "internalType": "uint256",
          "name": "amount",
          "type": "uint256"
        }
      ],
      "name": "buyTokens",
      "outputs": [],
      "stateMutability": "nonpayable",
      "type": "function"
    },
    {
      "inputs": [
        {
          "internalType": "uint256",
          "name": "tokenId",
          "type": "uint256"
        },
        {
          "internalType": "uint256",
          "name": "initialPrice",
          "type": "uint256"
        }
      ],
      "name": "createAthlete",
      "outputs": [],
      "stateMutability": "nonpayable",
      "type": "function"
    },
    {
      "inputs": [
        {
          "internalType": "address",
          "name": "token",
          "type": "address"
        },
        {
          "internalType": "uint256",
          "name": "amount",
          "type": "uint256"
        }
      ],
      "name": "emergencyWithdraw",
      "outputs": [],
      "stateMutability": "nonpayable",
      "type": "function"
    },
    {
      "inputs": [
        {
          "internalType": "uint256",
          "name": "tokenId",
          "type": "uint256"
        }
      ],
      "name": "getAthleteInfo",
      "outputs": [
        {
          "internalType": "bool",
          "name": "active",
          "type": "bool"
        },
        {
          "internalType": "uint256",
          "name": "price",
          "type": "uint256"
        },
        {
          "internalType": "uint256",
          "name": "supply",
          "type": "uint256"
        },
        {
          "internalType": "uint256",
          "name": "remaining",
          "type": "uint256"
        }
      ],
      "stateMutability": "view",
      "type": "function"
    },
    {
      "inputs": [
        {
          "internalType": "uint256",
          "name": "tokenId",
          "type": "uint256"
        },
        {
          "internalType": "uint256",
          "name": "amount",
          "type": "uint256"
        }
      ],
      "name": "getBuyQuote",
      "outputs": [
        {
          "internalType": "uint256",
          "name": "subtotal",
          "type": "uint256"
        },
        {
          "internalType": "uint256",
          "name": "fee",
          "type": "uint256"
        },
        {
          "internalType": "uint256",
          "name": "total",
          "type": "uint256"
        }
      ],
      "stateMutability": "view",
      "type": "function"
    },
    {
      "inputs": [
        {
          "internalType": "uint256",
          "name": "tokenId",
          "type": "uint256"
        },
        {
          "internalType": "uint256",
          "name": "amount",
          "type": "uint256"
        }
      ],
      "name": "getSellQuote",
      "outputs": [
        {
          "internalType": "uint256",
          "name": "subtotal",
          "type": "uint256"
        },
        {
          "internalType": "uint256",
          "name": "fee",
          "type": "uint256"
        },
        {
          "internalType": "uint256",
          "name": "total",
          "type": "uint256"
        }
      ],
      "stateMutability": "view",
      "type": "function"
    },
    {
      "inputs": [
        {
          "internalType": "uint256",
          "name": "tokenId",
          "type": "uint256"
        }
      ],
      "name": "getTokenPrice",
      "outputs": [
        {
          "internalType": "uint256",
          "name": "",
          "type": "uint256"
        }
      ],
      "stateMutability": "view",
      "type": "function"
    },
    {
      "inputs": [
        {
          "internalType": "address",
          "name": "account",
          "type": "address"
        },
        {
          "internalType": "address",
          "name": "operator",
          "type": "address"
        }
      ],
      "name": "isApprovedForAll",
      "outputs": [
        {
          "internalType": "bool",
          "name": "",
          "type": "bool"
        }
      ],
      "stateMutability": "view",
      "type": "function"
    },
    {
      "inputs": [],
      "name": "owner",
      "outputs": [
        {
          "internalType": "address",
          "name": "",
          "type": "address"
        }
      ],
      "stateMutability": "view",
      "type": "function"
    },
    {
      "inputs": [],
      "name": "renounceOwnership",
      "outputs": [],
      "stateMutability": "nonpayable",
      "type": "function"
    },
    {
      "inputs": [
        {
          "internalType": "address",
          "name": "from",
          "type": "address"
        },
        {
          "internalType": "address",
          "name": "to",
          "type": "address"
        },
        {
          "internalType": "uint256[]",
          "name": "ids",
          "type": "uint256[]"
        },
        {
          "internalType": "uint256[]",
          "name": "values",
          "type": "uint256[]"
        },
        {
          "internalType": "bytes",
          "name": "data",
          "type": "bytes"
        }
      ],
      "name": "safeBatchTransferFrom",
      "outputs": [],
      "stateMutability": "nonpayable",
      "type": "function"
    },
    {
      "inputs": [
        {
          "internalType": "address",
          "name": "from",
          "type": "address"
        },
        {
          "internalType": "address",
          "name": "to",
          "type": "address"
        },
        {
          "internalType": "uint256",
          "name": "id",
          "type": "uint256"
        },
        {
          "internalType": "uint256",
          "name": "value",
          "type": "uint256"
        },
        {
          "internalType": "bytes",
          "name": "data",
          "type": "bytes"
        }
      ],
      "name": "safeTransferFrom",
      "outputs": [],
      "stateMutability": "nonpayable",
      "type": "function"
    },
    {
      "inputs": [
        {
          "internalType": "uint256",
          "name": "tokenId",
          "type": "uint256"
        },
        {
          "internalType": "uint256",
          "name": "amount",
          "type": "uint256"
        }
      ],
      "name": "sellTokens",
      "outputs": [],
      "stateMutability": "nonpayable",
      "type": "function"
    },
    {
      "inputs": [
        {
          "internalType": "address",
          "name": "operator",
          "type": "address"
        },
        {
          "internalType": "bool",
          "name": "approved",
          "type": "bool"
        }
      ],
      "name": "setApprovalForAll",
      "outputs": [],
      "stateMutability": "nonpayable",
      "type": "function"
    },
    {
      "inputs": [
        {
          "internalType": "uint256",
          "name": "tokenId",
          "type": "uint256"
        },
        {
          "internalType": "uint256",
          "name": "newPrice",
          "type": "uint256"
        }
      ],
      "name": "setPrice",
      "outputs": [],
      "stateMutability": "nonpayable",
      "type": "function"
    },
    {
      "inputs": [
        {
          "internalType": "uint256",
          "name": "newFeeBps",
          "type": "uint256"
        }
      ],
      "name": "setTradingFee",
      "outputs": [],
      "stateMutability": "nonpayable",
      "type": "function"
    },
    {
      "inputs": [
        {
          "internalType": "bytes4",
          "name": "interfaceId",
          "type": "bytes4"
        }
      ],
      "name": "supportsInterface",
      "outputs": [
        {
          "internalType": "bool",
          "name": "",
          "type": "bool"
        }
      ],
      "stateMutability": "view",
      "type": "function"
    },
    {
      "inputs": [
        {
          "internalType": "uint256",
          "name": "",
          "type": "uint256"
        }
      ],
      "name": "tokenPrices",
      "outputs": [
        {
          "internalType": "uint256",
          "name": "",
          "type": "uint256"
        }
      ],
      "stateMutability": "view",
      "type": "function"
    },
    {
      "inputs": [
        {
          "internalType": "uint256",
          "name": "",
          "type": "uint256"
        }
      ],
      "name": "tokenSupply",
      "outputs": [
        {
          "internalType": "uint256",
          "name": "",
          "type": "uint256"
        }
      ],
      "stateMutability": "view",
      "type": "function"
    },
    {
      "inputs": [],
      "name": "tradingFeeBps",
      "outputs": [
        {
          "internalType": "uint256",
          "name": "",
          "type": "uint256"
        }
      ],
      "stateMutability": "view",
      "type": "function"
    },
    {
      "inputs": [
        {
          "internalType": "address",
          "name": "newOwner",
          "type": "address"
        }
      ],
      "name": "transferOwnership",
      "outputs": [],
      "stateMutability": "nonpayable",
      "type": "function"
    },
    {
      "inputs": [
        {
          "internalType": "uint256",
          "name": "",
          "type": "uint256"
        }
      ],
      "name": "uri",
      "outputs": [
        {
          "internalType": "string",
          "name": "",
          "type": "string"
        }
      ],
      "stateMutability": "view",
      "type": "function"
    },
    {
      "inputs": [],
      "name": "usdc",
      "outputs": [
        {
          "internalType": "contract IERC20",
          "name": "",
          "type": "address"
        }
      ],
      "stateMutability": "view",
      "type": "function"
    },
    {
      "inputs": [
        {
          "internalType": "address",
          "name": "to",
          "type": "address"
        }
      ],
      "name": "withdrawFees",
      "outputs": [],
      "stateMutability": "nonpayable",
      "type": "function"
    }
  ],
  "bytecode": "0x60a060405260646005553480156200001657600080fd5b50604051620025583803806200255883398101604081905262000039916200016f565b336040518060600160405280602a81526020016200252e602a91396200005f816200010b565b506001600160a01b0381166200009057604051631e4fbdf760e01b8152600060048201526024015b60405180910390fd5b6200009b816200011d565b5060016004556001600160a01b038116620000f95760405162461bcd60e51b815260206004820152601460248201527f496e76616c696420555344432061646472657373000000000000000000000000604482015260640162000087565b6001600160a01b031660805262000312565b600262000119828262000246565b5050565b600380546001600160a01b038381166001600160a01b0319831681179093556040519116919082907f8be0079c531659141344cd1fd0a4f28419497f9722a3daafe3b4186f6b6457e090600090a35050565b6000602082840312156200018257600080fd5b81516001600160a01b03811681146200019a57600080fd5b9392505050565b634e487b7160e01b600052604160045260246000fd5b600181811c90821680620001cc57607f821691505b602082108103620001ed57634e487b7160e01b600052602260045260246000fd5b50919050565b601f8211156200024157600081815260208120601f850160051c810160208610156200021c5750805b601f850160051c820191505b818110156200023d5782815560010162000228565b5050505b505050565b81516001600160401b03811115620002625762000262620001a1565b6200027a81620002738454620001b7565b84620001f3565b602080601f831160018114620002b25760008415620002995750858301515b600019600386901b1c1916600185901b1785556200023d565b600085815260208120601f198616915b82811015620002e357888601518255948401946001909101908401620002c2565b5085821015620003025787850151600019600388901b60f8161c191681555b5050505050600190811b01905550565b6080516121eb62000343600039600081816102f1015281816106ee01528181610a5601526110a701526121eb6000f3fe608060405234801561001057600080fd5b50600436106101ef5760003560e01c80638f3348841161010f578063c457fb37116100a2578063ed9772b611610071578063ed9772b614610492578063f242432a146104a5578063f2fde38b146104b8578063f7d97577146104cb57600080fd5b8063c457fb3714610443578063d55be8c614610456578063e5afe3e61461045f578063e985e9c51461047f57600080fd5b80639beb5bad116100de5780639beb5bad14610400578063a22cb46514610413578063ad9f20a614610426578063b0d54bcf1461043057600080fd5b80638f334884146103a3578063924cca9a146103b657806392f0ae4a146103bf57806395ccea67146103ed57600080fd5b80632eb2c2d611610187578063715018a611610156578063715018a6146103545780637975ce281461035c5780637b6d0f9d1461036f5780638da5cb5b1461039257600080fd5b80632eb2c2d6146102d95780633e413bee146102ec5780634e1273f41461032b578063587f5ed71461034b57600080fd5b80630e89341c116101c35780630e89341c1461027b578063164e68de1461029b57806324c4d208146102b05780632693ebf2146102b957600080fd5b8062fdd58e146101f457806301c11d961461021a57806301ffc9a7146102235780630c38129014610246575b600080fd5b610207610202366004611a80565b6104de565b6040519081526020015b60405180910390f35b61020760001981565b610236610231366004611ac0565b610506565b6040519015158152602001610211565b610259610254366004611ae4565b610556565b6040805194151585526020850193909352918301526060820152608001610211565b61028e610289366004611ae4565b610594565b6040516102119190611b43565b6102ae6102a9366004611b56565b610628565b005b6102076103e881565b6102076102c7366004611ae4565b60076020526000908152604090205481565b6102ae6102e7366004611cb7565b6107be565b6103137f000000000000000000000000000000000000000000000000000000000000000081565b6040516001600160a01b039091168152602001610211565b61033e610339366004611d61565b610825565b6040516102119190611e5c565b61020760095481565b6102ae6108fa565b6102ae61036a366004611e6f565b61090e565b61023661037d366004611ae4565b60086020526000908152604090205460ff1681565b6003546001600160a01b0316610313565b6102ae6103b1366004611e6f565b610b8e565b61020760055481565b6103d26103cd366004611e6f565b610c97565b60408051938452602084019290925290820152606001610211565b6102ae6103fb366004611a80565b610d15565b6103d261040e366004611e6f565b610db4565b6102ae610421366004611e9f565b610e28565b610207620f424081565b6102ae61043e366004611ae4565b610e33565b610207610451366004611ae4565b610ec1565b6102076101f481565b61020761046d366004611ae4565b60066020526000908152604090205481565b61023661048d366004611ed6565b610f02565b6102ae6104a0366004611e6f565b610f30565b6102ae6104b3366004611f09565b611172565b6102ae6104c6366004611b56565b6111d1565b6102ae6104d9366004611e6f565b61120f565b6000818152602081815260408083206001600160a01b03861684529091529020545b92915050565b60006001600160e01b03198216636cdb3d1360e11b148061053757506001600160e01b031982166303a24d0760e21b145b8061050057506301ffc9a760e01b6001600160e01b0319831614610500565b600081815260086020908152604080832054600683528184205460079093529083205460ff9091169261058b826103e8611f84565b90509193509193565b6060600280546105a390611f97565b80601f01602080910402602001604051908101604052809291908181526020018280546105cf90611f97565b801561061c5780601f106105f15761010080835404028352916020019161061c565b820191906000526020600020905b8154815290600101906020018083116105ff57829003601f168201915b50505050509050919050565b6106306112ee565b6001600160a01b03811661067d5760405162461bcd60e51b815260206004820152600f60248201526e496e76616c6964206164647265737360881b60448201526064015b60405180910390fd5b600954806106c35760405162461bcd60e51b81526020600482015260136024820152724e6f206665657320746f20776974686472617760681b6044820152606401610674565b600060095560405163a9059cbb60e01b81526001600160a01b038381166004830152602482018390527f0000000000000000000000000000000000000000000000000000000000000000169063a9059cbb906044016020604051808303816000875af1158015610737573d6000803e3d6000fd5b505050506040513d601f19601f8201168201806040525081019061075b9190611fd1565b6107775760405162461bcd60e51b815260040161067490611fee565b816001600160a01b03167fc0819c13be868895eb93e40eaceb96de976442fa1d404e5c55f14bb65a8c489a826040516107b291815260200190565b60405180910390a25050565b336001600160a01b03861681148015906107df57506107dd8682610f02565b155b156108105760405163711bec9160e11b81526001600160a01b03808316600483015287166024820152604401610674565b61081d868686868661131b565b505050505050565b606081518351146108565781518351604051635b05999160e01b815260048101929092526024820152604401610674565b6000835167ffffffffffffffff81111561087257610872611b71565b60405190808252806020026020018201604052801561089b578160200160208202803683370190505b50905060005b84518110156108f2576020808202860101516108c5906020808402870101516104de565b8282815181106108d7576108d761201c565b60209081029190910101526108eb81612032565b90506108a1565b509392505050565b6109026112ee565b61090c6000611382565b565b6109166113d4565b60008281526008602052604090205460ff166109445760405162461bcd60e51b81526004016106749061204b565b600081116109895760405162461bcd60e51b81526020600482015260126024820152710416d6f756e74206d757374206265203e20360741b6044820152606401610674565b6000828152600760205260409020546103e8906109a790839061207b565b11156109ea5760405162461bcd60e51b815260206004820152601260248201527145786365656473206d617820737570706c7960701b6044820152606401610674565b60008281526006602052604081205490610a04838361208e565b9050600061271060055483610a19919061208e565b610a2391906120a5565b90506000610a31828461207b565b6040516323b872dd60e01b8152336004820152306024820152604481018290529091507f00000000000000000000000000000000000000000000000000000000000000006001600160a01b0316906323b872dd906064016020604051808303816000875af1158015610aa7573d6000803e3d6000fd5b505050506040513d601f19601f82011682018060405250810190610acb9190611fd1565b610ae75760405162461bcd60e51b815260040161067490611fee565b8160096000828254610af9919061207b565b92505081905550610b1b338787604051806020016040528060008152506113fe565b60008681526007602052604081208054879290610b3990849061207b565b90915550506040805186815260208101839052879133917f0d1a0d5e3d583a0e92588799dd06e50fd78c07daf05f0cc06d7b848b1ca445f191015b60405180910390a350505050610b8a6001600455565b5050565b610b966112ee565b60008281526008602052604090205460ff1615610bee5760405162461bcd60e51b81526020600482015260166024820152754174686c65746520616c72656164792065786973747360501b6044820152606401610674565b620f42408110158015610bff575060015b610c415760405162461bcd60e51b81526020600482015260136024820152725072696365206f7574206f6620626f756e647360681b6044820152606401610674565b6000828152600860209081526040808320805460ff191660011790556006825291829020839055905182815283917fe11e1d19ede57ccd566a22b3eed0b1334edce8a10d3bdfeef5fbc6d20c6aa33991016107b2565b6000828152600860205260408120548190819060ff16610cc95760405162461bcd60e51b81526004016106749061204b565b600085815260066020526040902054610ce2858261208e565b935061271060055485610cf5919061208e565b610cff91906120a5565b9250610d0b838561207b565b9150509250925092565b610d1d6112ee565b816001600160a01b031663a9059cbb610d3e6003546001600160a01b031690565b6040516001600160e01b031960e084901b1681526001600160a01b039091166004820152602481018490526044016020604051808303816000875af1158015610d8b573d6000803e3d6000fd5b505050506040513d601f19601f82011682018060405250810190610daf9190611fd1565b505050565b6000828152600860205260408120548190819060ff16610de65760405162461bcd60e51b81526004016106749061204b565b600085815260066020526040902054610dff858261208e565b935061271060055485610e12919061208e565b610e1c91906120a5565b9250610d0b8385611f84565b610b8a33838361145b565b610e3b6112ee565b6101f4811115610e7c5760405162461bcd60e51b815260206004820152600c60248201526b08ccaca40e8dede40d0d2ced60a31b6044820152606401610674565b600580549082905560408051828152602081018490527f048ced0cbfd080780177282231c1bcf4b2e117ba3c76f5081b3dbab6dc6e1e1b910160405180910390a15050565b60008181526008602052604081205460ff16610eef5760405162461bcd60e51b81526004016106749061204b565b5060009081526006602052604090205490565b6001600160a01b03918216600090815260016020908152604080832093909416825291909152205460ff1690565b610f386113d4565b60008281526008602052604090205460ff16610f665760405162461bcd60e51b81526004016106749061204b565b60008111610fab5760405162461bcd60e51b81526020600482015260126024820152710416d6f756e74206d757374206265203e20360741b6044820152606401610674565b80610fb633846104de565b1015610ffb5760405162461bcd60e51b8152602060048201526014602482015273496e73756666696369656e742062616c616e636560601b6044820152606401610674565b60008281526006602052604081205490611015838361208e565b905060006127106005548361102a919061208e565b61103491906120a5565b905060006110428284611f84565b905061104f3387876114f1565b6000868152600760205260408120805487929061106d908490611f84565b925050819055508160096000828254611086919061207b565b909155505060405163a9059cbb60e01b8152336004820152602481018290527f00000000000000000000000000000000000000000000000000000000000000006001600160a01b03169063a9059cbb906044016020604051808303816000875af11580156110f8573d6000803e3d6000fd5b505050506040513d601f19601f8201168201806040525081019061111c9190611fd1565b6111385760405162461bcd60e51b815260040161067490611fee565b6040805186815260208101839052879133917f6db63bebf1e6540277744df32846ebdb98385b1a73f2d5de49b28348add63f509101610b74565b336001600160a01b038616811480159061119357506111918682610f02565b155b156111c45760405163711bec9160e11b81526001600160a01b03808316600483015287166024820152604401610674565b61081d8686868686611559565b6111d96112ee565b6001600160a01b03811661120357604051631e4fbdf760e01b815260006004820152602401610674565b61120c81611382565b50565b6112176112ee565b60008281526008602052604090205460ff166112455760405162461bcd60e51b81526004016106749061204b565b620f42408110158015611256575060015b6112985760405162461bcd60e51b81526020600482015260136024820152725072696365206f7574206f6620626f756e647360681b6044820152606401610674565b60008281526006602090815260409182902080549084905582518181529182018490529184917f15819dd2fd9f6418b142e798d08a18d0bf06ea368f4480b7b0d3f75bd966bc48910160405180910390a2505050565b6003546001600160a01b0316331461090c5760405163118cdaa760e01b8152336004820152602401610674565b6001600160a01b03841661134557604051632bfa23e760e11b815260006004820152602401610674565b6001600160a01b03851661136e57604051626a0d4560e21b815260006004820152602401610674565b61137b85858585856115e7565b5050505050565b600380546001600160a01b038381166001600160a01b0319831681179093556040519116919082907f8be0079c531659141344cd1fd0a4f28419497f9722a3daafe3b4186f6b6457e090600090a35050565b6002600454036113f757604051633ee5aeb560e01b815260040160405180910390fd5b6002600455565b6001600160a01b03841661142857604051632bfa23e760e11b815260006004820152602401610674565b6040805160018082526020820186905281830190815260608201859052608082019092529061081d6000878484876115e7565b6001600160a01b0382166114845760405162ced3e160e81b815260006004820152602401610674565b6001600160a01b03838116600081815260016020908152604080832094871680845294825291829020805460ff191686151590811790915591519182527f17307eab39ab6107e8899845ad3d59bd9653f200f220920489ca2b5937696c31910160405180910390a3505050565b6001600160a01b03831661151a57604051626a0d4560e21b815260006004820152602401610674565b604080516001808252602082018590528183019081526060820184905260a0820190925260006080820181815291929161137b918791859085906115e7565b6001600160a01b03841661158357604051632bfa23e760e11b815260006004820152602401610674565b6001600160a01b0385166115ac57604051626a0d4560e21b815260006004820152602401610674565b604080516001808252602082018690528183019081526060820185905260808201909252906115de87878484876115e7565b50505050505050565b6115f38585858561163a565b6001600160a01b0384161561137b578251339060010361162c5760208481015190840151611625838989858589611857565b505061081d565b61081d81878787878761197b565b80518251146116695781518151604051635b05999160e01b815260048101929092526024820152604401610674565b3360005b8351811015611778576020818102858101820151908501909101516001600160a01b03881615611720576000828152602081815260408083206001600160a01b038c168452909152902054818110156116f9576040516303dee4c560e01b81526001600160a01b038a166004820152602481018290526044810183905260648101849052608401610674565b6000838152602081815260408083206001600160a01b038d16845290915290209082900390555b6001600160a01b03871615611765576000828152602081815260408083206001600160a01b038b1684529091528120805483929061175f90849061207b565b90915550505b50508061177190612032565b905061166d565b5082516001036117f95760208301516000906020840151909150856001600160a01b0316876001600160a01b0316846001600160a01b03167fc3d58168c5ae7397731d063d5bbf3d657854427343f4c083240f7aacaa2d0f6285856040516117ea929190918252602082015260400190565b60405180910390a4505061137b565b836001600160a01b0316856001600160a01b0316826001600160a01b03167f4a39dc06d4c0dbc64b70af90fd698a233a518aa5d07e595d983b8c0526c8f7fb86866040516118489291906120c7565b60405180910390a45050505050565b6001600160a01b0384163b1561081d5760405163f23a6e6160e01b81526001600160a01b0385169063f23a6e619061189b90899089908890889088906004016120f5565b6020604051808303816000875af19250505080156118d6575060408051601f3d908101601f191682019092526118d39181019061213a565b60015b61193f573d808015611904576040519150601f19603f3d011682016040523d82523d6000602084013e611909565b606091505b50805160000361193757604051632bfa23e760e11b81526001600160a01b0386166004820152602401610674565b805160208201fd5b6001600160e01b0319811663f23a6e6160e01b146115de57604051632bfa23e760e11b81526001600160a01b0386166004820152602401610674565b6001600160a01b0384163b1561081d5760405163bc197c8160e01b81526001600160a01b0385169063bc197c81906119bf9089908990889088908890600401612157565b6020604051808303816000875af19250505080156119fa575060408051601f3d908101601f191682019092526119f79181019061213a565b60015b611a28573d808015611904576040519150601f19603f3d011682016040523d82523d6000602084013e611909565b6001600160e01b0319811663bc197c8160e01b146115de57604051632bfa23e760e11b81526001600160a01b0386166004820152602401610674565b80356001600160a01b0381168114611a7b57600080fd5b919050565b60008060408385031215611a9357600080fd5b611a9c83611a64565b946020939093013593505050565b6001600160e01b03198116811461120c57600080fd5b600060208284031215611ad257600080fd5b8135611add81611aaa565b9392505050565b600060208284031215611af657600080fd5b5035919050565b6000815180845260005b81811015611b2357602081850181015186830182015201611b07565b506000602082860101526020601f19601f83011685010191505092915050565b602081526000611add6020830184611afd565b600060208284031215611b6857600080fd5b611add82611a64565b634e487b7160e01b600052604160045260246000fd5b604051601f8201601f1916810167ffffffffffffffff81118282101715611bb057611bb0611b71565b604052919050565b600067ffffffffffffffff821115611bd257611bd2611b71565b5060051b60200190565b600082601f830112611bed57600080fd5b81356020611c02611bfd83611bb8565b611b87565b82815260059290921b84018101918181019086841115611c2157600080fd5b8286015b84811015611c3c5780358352918301918301611c25565b509695505050505050565b600082601f830112611c5857600080fd5b813567ffffffffffffffff811115611c7257611c72611b71565b611c85601f8201601f1916602001611b87565b818152846020838601011115611c9a57600080fd5b816020850160208301376000918101602001919091529392505050565b600080600080600060a08688031215611ccf57600080fd5b611cd886611a64565b9450611ce660208701611a64565b9350604086013567ffffffffffffffff80821115611d0357600080fd5b611d0f89838a01611bdc565b94506060880135915080821115611d2557600080fd5b611d3189838a01611bdc565b93506080880135915080821115611d4757600080fd5b50611d5488828901611c47565b9150509295509295909350565b60008060408385031215611d7457600080fd5b823567ffffffffffffffff80821115611d8c57600080fd5b818501915085601f830112611da057600080fd5b81356020611db0611bfd83611bb8565b82815260059290921b84018101918181019089841115611dcf57600080fd5b948201945b83861015611df457611de586611a64565b82529482019490820190611dd4565b96505086013592505080821115611e0a57600080fd5b50611e1785828601611bdc565b9150509250929050565b600081518084526020808501945080840160005b83811015611e5157815187529582019590820190600101611e35565b509495945050505050565b602081526000611add6020830184611e21565b60008060408385031215611e8257600080fd5b50508035926020909101359150565b801515811461120c57600080fd5b60008060408385031215611eb257600080fd5b611ebb83611a64565b91506020830135611ecb81611e91565b809150509250929050565b60008060408385031215611ee957600080fd5b611ef283611a64565b9150611f0060208401611a64565b90509250929050565b600080600080600060a08688031215611f2157600080fd5b611f2a86611a64565b9450611f3860208701611a64565b93506040860135925060608601359150608086013567ffffffffffffffff811115611f6257600080fd5b611d5488828901611c47565b634e487b7160e01b600052601160045260246000fd5b8181038181111561050057610500611f6e565b600181811c90821680611fab57607f821691505b602082108103611fcb57634e487b7160e01b600052602260045260246000fd5b50919050565b600060208284031215611fe357600080fd5b8151611add81611e91565b6020808252601490820152731554d110c81d1c985b9cd9995c8819985a5b195960621b604082015260600190565b634e487b7160e01b600052603260045260246000fd5b60006001820161204457612044611f6e565b5060010190565b602080825260169082015275105d1a1b195d1948191bd95cc81b9bdd08195e1a5cdd60521b604082015260600190565b8082018082111561050057610500611f6e565b808202811582820484141761050057610500611f6e565b6000826120c257634e487b7160e01b600052601260045260246000fd5b500490565b6040815260006120da6040830185611e21565b82810360208401526120ec8185611e21565b95945050505050565b6001600160a01b03868116825285166020820152604081018490526060810183905260a06080820181905260009061212f90830184611afd565b979650505050505050565b60006020828403121561214c57600080fd5b8151611add81611aaa565b6001600160a01b0386811682528516602082015260a06040820181905260009061218390830186611e21565b82810360608401526121958186611e21565b905082810360808401526121a98185611afd565b9897505050505050505056fea2646970667358221220d4e436fdae92c0148c22bdbf24d7f9a155305940f08aa9af9712fe80c586a16664736f6c6343000814003368747470733a2f2f70726f73706563742e696f2f6170692f6d657461646174612f7b69647d2e6a736f6e",
  "linkReferences": {},
  "deployedLinkReferences": {}
}