{"contracts/PredictionMarket.sol":{"PredictionMarket":{"abi":[{"inputs":[{"internalType":"address","name":"_usdc","type":"address"}],"stateMutability":"nonpayable","type":"constructor"},{"inputs":[{"internalType":"address","name":"owner","type":"address"}],"name":"OwnableInvalidOwner","type":"error"},{"inputs":[{"internalType":"address","name":"account","type":"address"}],"name":"OwnableUnauthorizedAccount","type":"error"},{"inputs":[],"name":"ReentrancyGuardReentrantCall","type":"error"},{"anonymous":false,"inputs":[{"indexed":true,"internalType":"uint256","name":"matchId","type":"uint256"},{"indexed":false,"internalType":"string","name":"homeTeam","type":"string"},{"indexed":false,"internalType":"string","name":"awayTeam","type":"string"},{"indexed":false,"internalType":"uint8","name":"predictedHomeScore","type":"uint8"},{"indexed":false,"internalType":"uint8","name":"predictedAwayScore","type":"uint8"},{"indexed":false,"internalType":"uint8","name":"confidence","type":"uint8"},{"indexed":false,"internalType":"uint256","name":"matchStartTime","type":"uint256"}],"name":"AIPredictionSubmitted","type":"event"},{"anonymous":false,"inputs":[{"indexed":true,"internalType":"uint256","name":"matchId","type":"uint256"},{"indexed":true,"internalType":"address","name":"user","type":"address"},{"indexed":false,"internalType":"uint256","name":"amount","type":"uint256"},{"indexed":false,"internalType":"uint256","name":"timestamp","type":"uint256"}],"name":"BetPlaced","type":"event"},{"anonymous":false,"inputs":[{"indexed":true,"internalType":"address","name":"funder","type":"address"},{"indexed":false,"internalType":"uint256","name":"amount","type":"uint256"}],"name":"BonusPoolFunded","type":"event"},{"anonymous":false,"inputs":[{"indexed":true,"internalType":"uint256","name":"matchId","type":"uint256"},{"indexed":false,"internalType":"uint8","name":"actualHomeScore","type":"uint8"},{"indexed":false,"internalType":"uint8","name":"actualAwayScore","type":"uint8"},{"indexed":false,"internalType":"bool","name":"aiWasCorrect","type":"bool"},{"indexed":false,"internalType":"uint256","name":"totalPool","type":"uint256"},{"indexed":false,"internalType":"uint256","name":"winnersCount","type":"uint256"},{"indexed":false,"internalType":"uint256","name":"bonusPerWinner","type":"uint256"}],"name":"MatchSettled","type":"event"},{"anonymous":false,"inputs":[{"indexed":true,"internalType":"address","name":"oldOracle","type":"address"},{"indexed":true,"internalType":"address","name":"newOracle","type":"address"}],"name":"OracleAddressUpdated","type":"event"},{"anonymous":false,"inputs":[{"indexed":true,"internalType":"address","name":"previousOwner","type":"address"},{"indexed":true,"internalType":"address","name":"newOwner","type":"address"}],"name":"OwnershipTransferred","type":"event"},{"anonymous":false,"inputs":[{"indexed":true,"internalType":"uint256","name":"matchId","type":"uint256"},{"indexed":true,"internalType":"address","name":"user","type":"address"},{"indexed":false,"internalType":"uint256","name":"betAmount","type":"uint256"},{"indexed":false,"internalType":"uint256","name":"bonus","type":"uint256"},{"indexed":false,"internalType":"uint256","name":"total","type":"uint256"}],"name":"WinningsClaimed","type":"event"},{"inputs":[],"name":"BONUS_AMOUNT","outputs":[{"internalType":"uint256","name":"","type":"uint256"}],"stateMutability":"view","type":"function"},{"inputs":[],"name":"MAX_BET","outputs":[{"internalType":"uint256","name":"","type":"uint256"}],"stateMutability":"view","type":"function"},{"inputs":[],"name":"MIN_BET","outputs":[{"internalType":"uint256","name":"","type":"uint256"}],"stateMutability":"view","type":"function"},{"inputs":[],"name":"bonusPool","outputs":[{"internalType":"uint256","name":"","type":"uint256"}],"stateMutability":"view","type":"function"},{"inputs":[],"name":"chainlinkOracleAddress","outputs":[{"internalType":"address","name":"","type":"address"}],"stateMutability":"view","type":"function"},{"inputs":[{"internalType":"uint256","name":"matchId","type":"uint256"}],"name":"claimWinnings","outputs":[],"stateMutability":"nonpayable","type":"function"},{"inputs":[{"internalType":"uint256","name":"amount","type":"uint256"}],"name":"emergencyWithdraw","outputs":[],"stateMutability":"nonpayable","type":"function"},{"inputs":[{"internalType":"uint256","name":"amount","type":"uint256"}],"name":"fundBonusPool","outputs":[],"stateMutability":"nonpayable","type":"function"},{"inputs":[{"internalType":"uint256","name":"matchId","type":"uint256"}],"name":"getAIPrediction","outputs":[{"internalType":"uint8","name":"homeScore","type":"uint8"},{"internalType":"uint8","name":"awayScore","type":"uint8"},{"internalType":"uint8","name":"confidence","type":"uint8"}],"stateMutability":"view","type":"function"},{"inputs":[{"internalType":"uint256","name":"matchId","type":"uint256"}],"name":"getMatchStats","outputs":[{"internalType":"uint256","name":"totalPool","type":"uint256"},{"internalType":"uint256","name":"totalBets","type":"uint256"},{"internalType":"uint256","name":"winners","type":"uint256"}],"stateMutability":"view","type":"function"},{"inputs":[],"name":"getPlatformStats","outputs":[{"internalType":"uint256","name":"matchesPredicted","type":"uint256"},{"internalType":"uint256","name":"matchesCorrect","type":"uint256"},{"internalType":"uint256","name":"volume","type":"uint256"},{"internalType":"uint256","name":"bonusesPaid","type":"uint256"},{"internalType":"uint256","name":"currentBonusPool","type":"uint256"},{"internalType":"uint256","name":"aiAccuracy","type":"uint256"}],"stateMutability":"view","type":"function"},{"inputs":[{"internalType":"uint256","name":"matchId","type":"uint256"}],"name":"getPredictionDetails","outputs":[{"internalType":"string","name":"homeTeam","type":"string"},{"internalType":"string","name":"awayTeam","type":"string"},{"internalType":"uint8","name":"predictedHomeScore","type":"uint8"},{"internalType":"uint8","name":"predictedAwayScore","type":"uint8"},{"internalType":"uint8","name":"confidence","type":"uint8"},{"internalType":"uint256","name":"matchStartTime","type":"uint256"},{"internalType":"bool","name":"settled","type":"bool"},{"internalType":"bool","name":"aiWasCorrect","type":"bool"}],"stateMutability":"view","type":"function"},{"inputs":[{"internalType":"uint256","name":"matchId","type":"uint256"},{"internalType":"address","name":"user","type":"address"}],"name":"getUserBet","outputs":[{"internalType":"uint256","name":"amount","type":"uint256"},{"internalType":"uint256","name":"timestamp","type":"uint256"},{"internalType":"bool","name":"claimed","type":"bool"}],"stateMutability":"view","type":"function"},{"inputs":[{"internalType":"address","name":"user","type":"address"}],"name":"getUserStats","outputs":[{"internalType":"uint256","name":"totalBets","type":"uint256"},{"internalType":"uint256","name":"totalWinnings","type":"uint256"},{"internalType":"uint256","name":"correctPredictions","type":"uint256"}],"stateMutability":"view","type":"function"},{"inputs":[{"internalType":"uint256","name":"matchId","type":"uint256"},{"internalType":"address","name":"user","type":"address"}],"name":"hasBet","outputs":[{"internalType":"bool","name":"","type":"bool"}],"stateMutability":"view","type":"function"},{"inputs":[{"internalType":"uint256","name":"","type":"uint256"},{"internalType":"uint256","name":"","type":"uint256"}],"name":"matchBets","outputs":[{"internalType":"address","name":"user","type":"address"},{"internalType":"uint256","name":"amount","type":"uint256"},{"internalType":"uint256","name":"timestamp","type":"uint256"},{"internalType":"bool","name":"claimed","type":"bool"}],"stateMutability":"view","type":"function"},{"inputs":[{"internalType":"uint256","name":"","type":"uint256"}],"name":"matchPool","outputs":[{"internalType":"uint256","name":"","type":"uint256"}],"stateMutability":"view","type":"function"},{"inputs":[],"name":"owner","outputs":[{"internalType":"address","name":"","type":"address"}],"stateMutability":"view","type":"function"},{"inputs":[{"internalType":"uint256","name":"matchId","type":"uint256"},{"internalType":"uint256","name":"amount","type":"uint256"}],"name":"placeBet","outputs":[],"stateMutability":"nonpayable","type":"function"},{"inputs":[{"internalType":"uint256","name":"","type":"uint256"}],"name":"predictions","outputs":[{"internalType":"string","name":"homeTeam","type":"string"},{"internalType":"string","name":"awayTeam","type":"string"},{"internalType":"uint8","name":"predictedHomeScore","type":"uint8"},{"internalType":"uint8","name":"predictedAwayScore","type":"uint8"},{"internalType":"uint8","name":"confidence","type":"uint8"},{"internalType":"uint256","name":"matchStartTime","type":"uint256"},{"internalType":"uint256","name":"predictionTimestamp","type":"uint256"},{"internalType":"bool","name":"exists","type":"bool"},{"internalType":"bool","name":"settled","type":"bool"},{"internalType":"uint8","name":"actualHomeScore","type":"uint8"},{"internalType":"uint8","name":"actualAwayScore","type":"uint8"},{"internalType":"bool","name":"aiWasCorrect","type":"bool"}],"stateMutability":"view","type":"function"},{"inputs":[],"name":"renounceOwnership","outputs":[],"stateMutability":"nonpayable","type":"function"},{"inputs":[{"internalType":"address","name":"_oracle","type":"address"}],"name":"setChainlinkOracle","outputs":[],"stateMutability":"nonpayable","type":"function"},{"inputs":[{"internalType":"uint256","name":"matchId","type":"uint256"},{"internalType":"uint8","name":"actualHomeScore","type":"uint8"},{"internalType":"uint8","name":"actualAwayScore","type":"uint8"}],"name":"settleMatch","outputs":[],"stateMutability":"nonpayable","type":"function"},{"inputs":[{"internalType":"uint256","name":"matchId","type":"uint256"},{"internalType":"string","name":"homeTeam","type":"string"},{"internalType":"string","name":"awayTeam","type":"string"},{"internalType":"uint8","name":"predictedHomeScore","type":"uint8"},{"internalType":"uint8","name":"predictedAwayScore","type":"uint8"},{"internalType":"uint8","name":"confidence","type":"uint8"},{"internalType":"uint256","name":"matchStartTime","type":"uint256"}],"name":"submitAIPrediction","outputs":[],"stateMutability":"nonpayable","type":"function"},{"inputs":[],"name":"totalBonusesPaid","outputs":[{"internalType":"uint256","name":"","type":"uint256"}],"stateMutability":"view","type":"function"},{"inputs":[],"name":"totalMatchesCorrect","outputs":[{"internalType":"uint256","name":"","type":"uint256"}],"stateMutability":"view","type":"function"},{"inputs":[],"name":"totalMatchesPredicted","outputs":[{"internalType":"uint256","name":"","type":"uint256"}],"stateMutability":"view","type":"function"},{"inputs":[],"name":"totalVolumeTraded","outputs":[{"internalType":"uint256","name":"","type":"uint256"}],"stateMutability":"view","type":"function"},{"inputs":[{"internalType":"address","name":"newOwner","type":"address"}],"name":"transferOwnership","outputs":[],"stateMutability":"nonpayable","type":"function"},{"inputs":[],"name":"usdc","outputs":[{"internalType":"contract IERC20","name":"","type":"address"}],"stateMutability":"view","type":"function"},{"inputs":[{"internalType":"uint256","name":"","type":"uint256"},{"internalType":"address","name":"","type":"address"}],"name":"userBetIndex","outputs":[{"internalType":"uint256","name":"","type":"uint256"}],"stateMutability":"view","type":"function"},{"inputs":[{"internalType":"address","name":"","type":"address"}],"name":"userCorrectPredictions","outputs":[{"internalType":"uint256","name":"","type":"uint256"}],"stateMutability":"view","type":"function"},{"inputs":[{"internalType":"address","name":"","type":"address"}],"name":"userTotalBets","outputs":[{"internalType":"uint256","name":"","type":"uint256"}],"stateMutability":"view","type":"function"},{"inputs":[{"internalType":"address","name":"","type":"address"}],"name":"userTotalWinnings","outputs":[{"internalType":"uint256","name":"","type":"uint256"}],"stateMutability":"view","type":"function"},{"inputs":[{"internalType":"uint256","name":"","type":"uint256"}],"name":"winnersCount","outputs":[{"internalType":"uint256","name":"","type":"uint256"}],"stateMutability":"view","type":"function"}],"evm":{"bytecode":{"linkReferences":{},"object":"60a06040523480156200001157600080fd5b506040516200260a3803806200260a833981016040819052620000349162000126565b33806200005c57604051631e4fbdf760e01b8152600060048201526024015b60405180910390fd5b6200006781620000d6565b50600180556001600160a01b038116620000c45760405162461bcd60e51b815260206004820152601460248201527f496e76616c696420555344432061646472657373000000000000000000000000604482015260640162000053565b6001600160a01b031660805262000158565b600080546001600160a01b038381166001600160a01b0319831681178455604051919092169283917f8be0079c531659141344cd1fd0a4f28419497f9722a3daafe3b4186f6b6457e09190a35050565b6000602082840312156200013957600080fd5b81516001600160a01b03811681146200015157600080fd5b9392505050565b608051612473620001976000396000818161034d01528181610a6a015281816110270152818161111101528181611447015261158f01526124736000f3fe608060405234801561001057600080fd5b50600436106102105760003560e01c8063677bd9ff11610125578063ae062acd116100ad578063de4b0edb1161007c578063de4b0edb1461059b578063e500d8d2146105ae578063eb1bb72a146105e5578063f2fde38b14610605578063fe21f3061461061857600080fd5b8063ae062acd14610508578063c03fb87c1461052b578063c09ffdb71461055b578063dc2ef7f11461059257600080fd5b80637a9b0412116100f45780637a9b0412146104925780637b6e1f9a146104a55780637e95b523146104c55780638da5cb5b146104d05780638f888338146104e157600080fd5b8063677bd9ff1461044c5780636c2aa7931461045f578063715018a61461047f57806374863d901461048757600080fd5b80633e413bee116101a85780634bbcde29116101775780634bbcde29146103c25780634e43603a146103cb5780635312ea8e146104265780635adc19c7146104395780636540742f1461044257600080fd5b80633e413bee146103485780634afe62b5146103875780634b30e26a1461039c5780634b7aeb21146103af57600080fd5b80632693ee80116101e45780632693ee80146102cc5780632b5bf9a3146102d557806334dddef9146103005780633c5ea4c01461033f57600080fd5b80624fbbb0146102155780630885744214610249578063136d8883146102775780631db9ec80146102ac575b600080fd5b610228610223366004611dbd565b61062b565b6040516102409c9b9a99989796959493929190611e1c565b60405180910390f35b610269610257366004611ece565b60096020526000908152604090205481565b604051908152602001610240565b61027f6107a8565b604080519687526020870195909552938501929092526060840152608083015260a082015260c001610240565b6102696102ba366004611dbd565b60066020526000908152604090205481565b610269600f5481565b6102696102e3366004611ef0565b600560209081526000928352604080842090915290825290205481565b61031361030e366004611f1c565b610802565b604080516001600160a01b03909516855260208501939093529183015215156060820152608001610240565b610269600e5481565b61036f7f000000000000000000000000000000000000000000000000000000000000000081565b6040516001600160a01b039091168152602001610240565b61039a610395366004611f1c565b610855565b005b61039a6103aa366004611f98565b610c3e565b61039a6103bd366004611dbd565b610fb5565b610269600b5481565b61040b6103d9366004611ece565b6001600160a01b03166000908152600860209081526040808320546009835281842054600a9093529220549192909190565b60408051938452602084019290925290820152606001610240565b61039a610434366004611dbd565b611107565b610269600d5481565b610269620f424081565b61039a61045a366004611dbd565b6111e0565b61026961046d366004611dbd565b60076020526000908152604090205481565b61039a611676565b6102696305f5e10081565b61039a6104a0366004611ece565b61168a565b6102696104b3366004611ece565b60086020526000908152604090205481565b610269633b9aca0081565b6000546001600160a01b031661036f565b6104f46104ef366004611dbd565b611733565b60405161024098979695949392919061204c565b61051b610516366004611ef0565b6118ed565b6040519015158152602001610240565b61053e610539366004611ef0565b611919565b604080519384526020840192909252151590820152606001610240565b61040b610569366004611dbd565b600081815260066020908152604080832054600483528184205460079093529220549193909250565b610269600c5481565b61039a6105a93660046120b2565b6119d7565b6105c16105bc366004611dbd565b611c83565b6040805160ff94851681529284166020840152921691810191909152606001610240565b6102696105f3366004611ece565b600a6020526000908152604090205481565b61039a610613366004611ece565b611cdb565b60025461036f906001600160a01b031681565b600360205260009081526040902080548190610646906120ee565b80601f0160208091040260200160405190810160405280929190818152602001828054610672906120ee565b80156106bf5780601f10610694576101008083540402835291602001916106bf565b820191906000526020600020905b8154815290600101906020018083116106a257829003601f168201915b5050505050908060010180546106d4906120ee565b80601f0160208091040260200160405190810160405280929190818152602001828054610700906120ee565b801561074d5780601f106107225761010080835404028352916020019161074d565b820191906000526020600020905b81548152906001019060200180831161073057829003601f168201915b50505050600283015460038401546004850154600590950154939460ff808416956101008086048316965062010000958690048316958383169391830482169290810482169163010000008204811691600160201b9004168c565b600080600080600080600080600b54116107c35760006107de565b600b54600c546107d490606461213e565b6107de9190612155565b600b54600c54600d54600e54600f54939c929b509099509750909550909350915050565b6004602052816000526040600020818154811061081e57600080fd5b600091825260209091206004909102018054600182015460028301546003909301546001600160a01b039092169450925060ff1684565b61085d611d16565b6000828152600360205260409020600581015460ff166108c45760405162461bcd60e51b815260206004820152601c60248201527f4e6f2070726564696374696f6e20666f722074686973206d617463680000000060448201526064015b60405180910390fd5b6005810154610100900460ff16156109165760405162461bcd60e51b815260206004820152601560248201527413585d18da08185b1c9958591e481cd95d1d1b1959605a1b60448201526064016108bb565b8060030154421061095a5760405162461bcd60e51b815260206004820152600e60248201526d10995d1d1a5b99c818db1bdcd95960921b60448201526064016108bb565b620f424082101561099d5760405162461bcd60e51b815260206004820152600d60248201526c10995d081d1bdbc81cdb585b1b609a1b60448201526064016108bb565b633b9aca008211156109e15760405162461bcd60e51b815260206004820152600d60248201526c42657420746f6f206c6172676560981b60448201526064016108bb565b600083815260056020908152604080832033845290915290205415610a485760405162461bcd60e51b815260206004820152601960248201527f416c726561647920626574206f6e2074686973206d617463680000000000000060448201526064016108bb565b6040516323b872dd60e01b8152336004820152306024820152604481018390527f00000000000000000000000000000000000000000000000000000000000000006001600160a01b0316906323b872dd906064016020604051808303816000875af1158015610abb573d6000803e3d6000fd5b505050506040513d601f19601f82011682018060405250810190610adf9190612177565b610afb5760405162461bcd60e51b81526004016108bb90612199565b60008381526004602081815260408084208151608081018352338082528185018981524283860190815260608401898152855460018082018855878c52898c20965191909a0290950180546001600160a01b0319166001600160a01b039096169590951785559151978401979097559551600283015594516003909101805460ff19169115159190911790558785525460058352818520938552928252808420929092558583526006905281208054849290610bb89084906121c2565b9091555050336000908152600860205260408120805491610bd8836121d5565b919050555081600d6000828254610bef91906121c2565b909155505060408051838152426020820152339185917f1b8a9031cb9351278d70a994f81536e9e08c91162e64f92b2fe4766fb7a891b4910160405180910390a350610c3a60018055565b5050565b6000546001600160a01b0316331480610c6157506002546001600160a01b031633145b610c7d5760405162461bcd60e51b81526004016108bb906121ee565b60008981526003602052604090206005015460ff1615610cdf5760405162461bcd60e51b815260206004820152601960248201527f50726564696374696f6e20616c7265616479206578697374730000000000000060448201526064016108bb565b428111610d265760405162461bcd60e51b815260206004820152601560248201527413585d18da08185b1c9958591e481cdd185c9d1959605a1b60448201526064016108bb565b60008260ff16118015610d3d575060648260ff1611155b610d7e5760405162461bcd60e51b8152602060048201526012602482015271496e76616c696420636f6e666964656e636560701b60448201526064016108bb565b60405180610180016040528089898080601f016020809104026020016040519081016040528093929190818152602001838380828437600092019190915250505090825250604080516020601f8a0181900481028201810190925288815291810191908990899081908401838280828437600092018290525093855250505060ff8088166020808501919091528782166040808601919091529187166060850152608084018690524260a0850152600160c085015260e08401839052610100840183905261012084018390526101409093018290528c825260039092522081518190610e6a90826122a1565b5060208201516001820190610e7f90826122a1565b5060408201516002820180546060850151608086015160ff94851661ffff199384161761010092861683021762ff000019166201000091861682021790935560a0860151600386015560c0860151600486015560e086015160059095018054828801516101208901516101408a0151610160909a01519290951661ff001998151598909816979097179615159092029590951763ffff0000191691841690920263ff000000191617630100000094909216939093021764ff000000001916600160201b92151592909202919091179055600b8054906000610f5f836121d5565b9190505550887f35200095317f02946f1d14d8634b3216d5253a4cfb606fa58d69632246a14e668989898989898989604051610fa298979695949392919061238a565b60405180910390a2505050505050505050565b600081116110055760405162461bcd60e51b815260206004820152601760248201527f416d6f756e74206d75737420626520706f73697469766500000000000000000060448201526064016108bb565b6040516323b872dd60e01b8152336004820152306024820152604481018290527f00000000000000000000000000000000000000000000000000000000000000006001600160a01b0316906323b872dd906064016020604051808303816000875af1158015611078573d6000803e3d6000fd5b505050506040513d601f19601f8201168201806040525081019061109c9190612177565b6110b85760405162461bcd60e51b81526004016108bb90612199565b80600f60008282546110ca91906121c2565b909155505060405181815233907f963242895f5f5e2b7e90e067fb00a04d683cf55e9553b3a7e4e2a7e8df53026c9060200160405180910390a250565b61110f611d40565b7f00000000000000000000000000000000000000000000000000000000000000006001600160a01b031663a9059cbb6111506000546001600160a01b031690565b6040516001600160e01b031960e084901b1681526001600160a01b039091166004820152602481018490526044016020604051808303816000875af115801561119d573d6000803e3d6000fd5b505050506040513d601f19601f820116820180604052508101906111c19190612177565b6111dd5760405162461bcd60e51b81526004016108bb90612199565b50565b6111e8611d16565b6000818152600360205260409020600581015460ff1661121a5760405162461bcd60e51b81526004016108bb906123dd565b6005810154610100900460ff166112675760405162461bcd60e51b815260206004820152601160248201527013585d18da081b9bdd081cd95d1d1b1959607a1b60448201526064016108bb565b6000828152600560209081526040808320338452909152902054806112bd5760405162461bcd60e51b815260206004820152600c60248201526b139bc818995d08199bdd5b9960a21b60448201526064016108bb565b60008381526004602052604081206112d6600184612414565b815481106112e6576112e6612427565b60009182526020909120600490910201600381015490915060ff16156113405760405162461bcd60e51b815260206004820152600f60248201526e105b1c9958591e4818db185a5b5959608a1b60448201526064016108bb565b80546001600160a01b031633146113885760405162461bcd60e51b815260206004820152600c60248201526b139bdd081e5bdd5c8818995d60a21b60448201526064016108bb565b60038101805460ff191660011790556005830154600160201b900460ff161561156d576000848152600760205260408120549081158015906113d057506305f5e100600f5410155b15611416576113e3826305f5e100612155565b905080600f60008282546113f79190612414565b9250508190555080600e600082825461141091906121c2565b90915550505b600081846001015461142891906121c2565b60405163a9059cbb60e01b8152336004820152602481018290529091507f00000000000000000000000000000000000000000000000000000000000000006001600160a01b03169063a9059cbb906044016020604051808303816000875af1158015611498573d6000803e3d6000fd5b505050506040513d601f19601f820116820180604052508101906114bc9190612177565b6114d85760405162461bcd60e51b81526004016108bb90612199565b33600090815260096020526040812080548392906114f79084906121c2565b9091555050336000908152600a60205260408120805491611517836121d5565b9091555050600184015460408051918252602082018490528101829052339088907fadd3d9a4e0b4065aaaea286d6a972cb854de1a2a3d8bb80101aca14da148a5fd9060600160405180910390a350505061166a565b600181015460405163a9059cbb60e01b815233600482015260248101919091527f00000000000000000000000000000000000000000000000000000000000000006001600160a01b03169063a9059cbb906044016020604051808303816000875af11580156115e0573d6000803e3d6000fd5b505050506040513d601f19601f820116820180604052508101906116049190612177565b6116205760405162461bcd60e51b81526004016108bb90612199565b600181015460408051828152600060208201528082019290925251339186917fadd3d9a4e0b4065aaaea286d6a972cb854de1a2a3d8bb80101aca14da148a5fd9181900360600190a35b5050506111dd60018055565b61167e611d40565b6116886000611d6d565b565b611692611d40565b6001600160a01b0381166116e15760405162461bcd60e51b8152602060048201526016602482015275496e76616c6964206f7261636c65206164647265737360501b60448201526064016108bb565b600280546001600160a01b038381166001600160a01b0319831681179093556040519116919082907fd3afd1676752459d3aa8b6f73633fac8efd724610da9c4cd8d8e4fa1631841fb90600090a35050565b6000818152600360205260408120600581015460609283929091829182918291829182919060ff166117775760405162461bcd60e51b81526004016108bb906123dd565b60028101546003820154600583015483548493600185019360ff8083169461010080850483169562010000909504831694908204831692600160201b9092049091169088906117c5906120ee565b80601f01602080910402602001604051908101604052809291908181526020018280546117f1906120ee565b801561183e5780601f106118135761010080835404028352916020019161183e565b820191906000526020600020905b81548152906001019060200180831161182157829003601f168201915b50505050509750868054611851906120ee565b80601f016020809104026020016040519081016040528092919081815260200182805461187d906120ee565b80156118ca5780601f1061189f576101008083540402835291602001916118ca565b820191906000526020600020905b8154815290600101906020018083116118ad57829003601f168201915b505050505096509850985098509850985098509850985050919395975091939597565b60008281526005602090815260408083206001600160a01b038516845290915290205415155b92915050565b60008281526005602090815260408083206001600160a01b0385168452909152812054819081908061197c5760405162461bcd60e51b815260206004820152600c60248201526b139bc818995d08199bdd5b9960a21b60448201526064016108bb565b6000868152600460205260408120611995600184612414565b815481106119a5576119a5612427565b6000918252602090912060049091020160018101546002820154600390920154909991985060ff169650945050505050565b6000546001600160a01b03163314806119fa57506002546001600160a01b031633145b611a165760405162461bcd60e51b81526004016108bb906121ee565b611a1e611d16565b6000838152600360205260409020600581015460ff16611a505760405162461bcd60e51b81526004016108bb906123dd565b6005810154610100900460ff1615611aa25760405162461bcd60e51b815260206004820152601560248201527413585d18da08185b1c9958591e481cd95d1d1b1959605a1b60448201526064016108bb565b80600301544211611ae95760405162461bcd60e51b815260206004820152601160248201527013585d18da081b9bdd081cdd185c9d1959607a1b60448201526064016108bb565b60058101805461010063ffff0000199091166201000060ff87811691820263ff0000001916929092176301000000878416021761ff001916929092179092556002830154909116148015611b4b5750600281015460ff83811661010090920416145b60058201805464ff000000001916600160201b9215158302179081905560ff9190041615611b8957600c8054906000611b83836121d5565b91905055505b6005810154600090600160201b900460ff16611ba6576000611bb6565b6000858152600460205260409020545b60008681526007602052604081208290559091508115801590611bdf57506305f5e100600f5410155b15611bf557611bf2826305f5e100612155565b90505b600583015460008781526006602090815260409182902054825160ff8a8116825289811693820193909352600160201b90940490911615158383015260608301526080820184905260a082018390525187917f9d55c5eeaaee092435b0370a5918e9ca27599f05e94f6ae8ebb469b83e22912a919081900360c00190a2505050611c7e60018055565b505050565b600081815260036020526040812060058101548291829160ff16611cb95760405162461bcd60e51b81526004016108bb906123dd565b6002015460ff8082169661010083048216965062010000909204169350915050565b611ce3611d40565b6001600160a01b038116611d0d57604051631e4fbdf760e01b8152600060048201526024016108bb565b6111dd81611d6d565b600260015403611d3957604051633ee5aeb560e01b815260040160405180910390fd5b6002600155565b6000546001600160a01b031633146116885760405163118cdaa760e01b81523360048201526024016108bb565b600080546001600160a01b038381166001600160a01b0319831681178455604051919092169283917f8be0079c531659141344cd1fd0a4f28419497f9722a3daafe3b4186f6b6457e09190a35050565b600060208284031215611dcf57600080fd5b5035919050565b6000815180845260005b81811015611dfc57602081850181015186830182015201611de0565b506000602082860101526020601f19601f83011685010191505092915050565b61018081526000611e3161018083018f611dd6565b8281036020840152611e43818f611dd6565b91505060ff8c16604083015260ff8b16606083015260ff8a1660808301528860a08301528760c083015286151560e0830152851515610100830152611e8e61012083018660ff169052565b60ff84166101408301528215156101608301529d9c50505050505050505050505050565b80356001600160a01b0381168114611ec957600080fd5b919050565b600060208284031215611ee057600080fd5b611ee982611eb2565b9392505050565b60008060408385031215611f0357600080fd5b82359150611f1360208401611eb2565b90509250929050565b60008060408385031215611f2f57600080fd5b50508035926020909101359150565b60008083601f840112611f5057600080fd5b50813567ffffffffffffffff811115611f6857600080fd5b602083019150836020828501011115611f8057600080fd5b9250929050565b803560ff81168114611ec957600080fd5b600080600080600080600080600060e08a8c031215611fb657600080fd5b8935985060208a013567ffffffffffffffff80821115611fd557600080fd5b611fe18d838e01611f3e565b909a50985060408c0135915080821115611ffa57600080fd5b506120078c828d01611f3e565b909750955061201a905060608b01611f87565b935061202860808b01611f87565b925061203660a08b01611f87565b915060c08a013590509295985092959850929598565b60006101008083526120608184018c611dd6565b90508281036020840152612074818b611dd6565b60ff998a1660408501529789166060840152505093909516608084015260a0830191909152151560c082015291151560e09092019190915292915050565b6000806000606084860312156120c757600080fd5b833592506120d760208501611f87565b91506120e560408501611f87565b90509250925092565b600181811c9082168061210257607f821691505b60208210810361212257634e487b7160e01b600052602260045260246000fd5b50919050565b634e487b7160e01b600052601160045260246000fd5b808202811582820484141761191357611913612128565b60008261217257634e487b7160e01b600052601260045260246000fd5b500490565b60006020828403121561218957600080fd5b81518015158114611ee957600080fd5b6020808252600f908201526e151c985b9cd9995c8819985a5b1959608a1b604082015260600190565b8082018082111561191357611913612128565b6000600182016121e7576121e7612128565b5060010190565b6020808252602f908201527f50726564696374696f6e4d61726b65743a2063616c6c6572206973206e6f742060408201526e6f776e6572206f72206f7261636c6560881b606082015260800190565b634e487b7160e01b600052604160045260246000fd5b601f821115611c7e57600081815260208120601f850160051c8101602086101561227a5750805b601f850160051c820191505b8181101561229957828155600101612286565b505050505050565b815167ffffffffffffffff8111156122bb576122bb61223d565b6122cf816122c984546120ee565b84612253565b602080601f83116001811461230457600084156122ec5750858301515b600019600386901b1c1916600185901b178555612299565b600085815260208120601f198616915b8281101561233357888601518255948401946001909101908401612314565b50858210156123515787850151600019600388901b60f8161c191681555b5050505050600190811b01905550565b81835281816020850137506000828201602090810191909152601f909101601f19169091010190565b60c08152600061239e60c083018a8c612361565b82810360208401526123b181898b612361565b60ff97881660408501529587166060840152505091909316608082015260a00191909152949350505050565b60208082526019908201527f50726564696374696f6e20646f6573206e6f7420657869737400000000000000604082015260600190565b8181038181111561191357611913612128565b634e487b7160e01b600052603260045260246000fdfea2646970667358221220c833f7070b51432a2a30a3e36cb1b6ff170fc07ab27d2dc3ae4c4393056fd4c364736f6c63430008140033","opcodes":"PUSH1 0xA0 PUSH1 0x40 MSTORE CALLVALUE DUP1 ISZERO PUSH3 0x11 JUMPI PUSH1 0x0 DUP1 REVERT JUMPDEST POP PUSH1 0x40 MLOAD PUSH3 0x260A CODESIZE SUB DUP1 PUSH3 0x260A DUP4 CODECOPY DUP2 ADD PUSH1 0x40 DUP2 SWAP1 MSTORE PUSH3 0x34 SWAP2 PUSH3 0x126 JUMP JUMPDEST CALLER DUP1 PUSH3 0x5C JUMPI PUSH1 0x40 MLOAD PUSH4 0x1E4FBDF7 PUSH1 0xE0 SHL DUP2 MSTORE PUSH1 0x0 PUSH1 0x4 DUP3 ADD MSTORE PUSH1 0x24 ADD JUMPDEST PUSH1 0x40 MLOAD DUP1 SWAP2 SUB SWAP1 REVERT JUMPDEST PUSH3 0x67 DUP2 PUSH3 0xD6 JUMP JUMPDEST POP PUSH1 0x1 DUP1 SSTORE PUSH1 0x1 PUSH1 0x1 PUSH1 0xA0 SHL SUB DUP2 AND PUSH3 0xC4 JUMPI PUSH1 0x40 MLOAD PUSH3 0x461BCD PUSH1 0xE5 SHL DUP2 MSTORE PUSH1 0x20 PUSH1 0x4 DUP3 ADD MSTORE PUSH1 0x14 PUSH1 0x24 DUP3 ADD MSTORE PUSH32 0x496E76616C696420555344432061646472657373000000000000000000000000 PUSH1 0x44 DUP3 ADD MSTORE PUSH1 0x64 ADD PUSH3 0x53 JUMP JUMPDEST PUSH1 0x1 PUSH1 0x1 PUSH1 0xA0 SHL SUB AND PUSH1 0x80 MSTORE PUSH3 0x158 JUMP JUMPDEST PUSH1 0x0 DUP1 SLOAD PUSH1 0x1 PUSH1 0x1 PUSH1 0xA0 SHL SUB DUP4 DUP2 AND PUSH1 0x1 PUSH1 0x1 PUSH1 0xA0 SHL SUB NOT DUP4 AND DUP2 OR DUP5 SSTORE PUSH1 0x40 MLOAD SWAP2 SWAP1 SWAP3 AND SWAP3 DUP4 SWAP2 PUSH32 0x8BE0079C531659141344CD1FD0A4F28419497F9722A3DAAFE3B4186F6B6457E0 SWAP2 SWAP1 LOG3 POP POP JUMP JUMPDEST PUSH1 0x0 PUSH1 0x20 DUP3 DUP5 SUB SLT ISZERO PUSH3 0x139 JUMPI PUSH1 0x0 DUP1 REVERT JUMPDEST DUP2 MLOAD PUSH1 0x1 PUSH1 0x1 PUSH1 0xA0 SHL SUB DUP2 AND DUP2 EQ PUSH3 0x151 JUMPI PUSH1 0x0 DUP1 REVERT JUMPDEST SWAP4 SWAP3 POP POP POP JUMP JUMPDEST PUSH1 0x80 MLOAD PUSH2 0x2473 PUSH3 0x197 PUSH1 0x0 CODECOPY PUSH1 0x0 DUP2 DUP2 PUSH2 0x34D ADD MSTORE DUP2 DUP2 PUSH2 0xA6A ADD MSTORE DUP2 DUP2 PUSH2 0x1027 ADD MSTORE DUP2 DUP2 PUSH2 0x1111 ADD MSTORE DUP2 DUP2 PUSH2 0x1447 ADD MSTORE PUSH2 0x158F ADD MSTORE PUSH2 0x2473 PUSH1 0x0 RETURN INVALID PUSH1 0x80 PUSH1 0x40 MSTORE CALLVALUE DUP1 ISZERO PUSH2 0x10 JUMPI PUSH1 0x0 DUP1 REVERT JUMPDEST POP PUSH1 0x4 CALLDATASIZE LT PUSH2 0x210 JUMPI PUSH1 0x0 CALLDATALOAD PUSH1 0xE0 SHR DUP1 PUSH4 0x677BD9FF GT PUSH2 0x125 JUMPI DUP1 PUSH4 0xAE062ACD GT PUSH2 0xAD JUMPI DUP1 PUSH4 0xDE4B0EDB GT PUSH2 0x7C JUMPI DUP1 PUSH4 0xDE4B0EDB EQ PUSH2 0x59B JUMPI DUP1 PUSH4 0xE500D8D2 EQ PUSH2 0x5AE JUMPI DUP1 PUSH4 0xEB1BB72A EQ PUSH2 0x5E5 JUMPI DUP1 PUSH4 0xF2FDE38B EQ PUSH2 0x605 JUMPI DUP1 PUSH4 0xFE21F306 EQ PUSH2 0x618 JUMPI PUSH1 0x0 DUP1 REVERT JUMPDEST DUP1 PUSH4 0xAE062ACD EQ PUSH2 0x508 JUMPI DUP1 PUSH4 0xC03FB87C EQ PUSH2 0x52B JUMPI DUP1 PUSH4 0xC09FFDB7 EQ PUSH2 0x55B JUMPI DUP1 PUSH4 0xDC2EF7F1 EQ PUSH2 0x592 JUMPI PUSH1 0x0 DUP1 REVERT JUMPDEST DUP1 PUSH4 0x7A9B0412 GT PUSH2 0xF4 JUMPI DUP1 PUSH4 0x7A9B0412 EQ PUSH2 0x492 JUMPI DUP1 PUSH4 0x7B6E1F9A EQ PUSH2 0x4A5 JUMPI DUP1 PUSH4 0x7E95B523 EQ PUSH2 0x4C5 JUMPI DUP1 PUSH4 0x8DA5CB5B EQ PUSH2 0x4D0 JUMPI DUP1 PUSH4 0x8F888338 EQ PUSH2 0x4E1 JUMPI PUSH1 0x0 DUP1 REVERT JUMPDEST DUP1 PUSH4 0x677BD9FF EQ PUSH2 0x44C JUMPI DUP1 PUSH4 0x6C2AA793 EQ PUSH2 0x45F JUMPI DUP1 PUSH4 0x715018A6 EQ PUSH2 0x47F JUMPI DUP1 PUSH4 0x74863D90 EQ PUSH2 0x487 JUMPI PUSH1 0x0 DUP1 REVERT JUMPDEST DUP1 PUSH4 0x3E413BEE GT PUSH2 0x1A8 JUMPI DUP1 PUSH4 0x4BBCDE29 GT PUSH2 0x177 JUMPI DUP1 PUSH4 0x4BBCDE29 EQ PUSH2 0x3C2 JUMPI DUP1 PUSH4 0x4E43603A EQ PUSH2 0x3CB JUMPI DUP1 PUSH4 0x5312EA8E EQ PUSH2 0x426 JUMPI DUP1 PUSH4 0x5ADC19C7 EQ PUSH2 0x439 JUMPI DUP1 PUSH4 0x6540742F EQ PUSH2 0x442 JUMPI PUSH1 0x0 DUP1 REVERT JUMPDEST DUP1 PUSH4 0x3E413BEE EQ PUSH2 0x348 JUMPI DUP1 PUSH4 0x4AFE62B5 EQ PUSH2 0x387 JUMPI DUP1 PUSH4 0x4B30E26A EQ PUSH2 0x39C JUMPI DUP1 PUSH4 0x4B7AEB21 EQ PUSH2 0x3AF JUMPI PUSH1 0x0 DUP1 REVERT JUMPDEST DUP1 PUSH4 0x2693EE80 GT PUSH2 0x1E4 JUMPI DUP1 PUSH4 0x2693EE80 EQ PUSH2 0x2CC JUMPI DUP1 PUSH4 0x2B5BF9A3 EQ PUSH2 0x2D5 JUMPI DUP1 PUSH4 0x34DDDEF9 EQ PUSH2 0x300 JUMPI DUP1 PUSH4 0x3C5EA4C0 EQ PUSH2 0x33F JUMPI PUSH1 0x0 DUP1 REVERT JUMPDEST DUP1 PUSH3 0x4FBBB0 EQ PUSH2 0x215 JUMPI DUP1 PUSH4 0x8857442 EQ PUSH2 0x249 JUMPI DUP1 PUSH4 0x136D8883 EQ PUSH2 0x277 JUMPI DUP1 PUSH4 0x1DB9EC80 EQ PUSH2 0x2AC JUMPI JUMPDEST PUSH1 0x0 DUP1 REVERT JUMPDEST PUSH2 0x228 PUSH2 0x223 CALLDATASIZE PUSH1 0x4 PUSH2 0x1DBD JUMP JUMPDEST PUSH2 0x62B JUMP JUMPDEST PUSH1 0x40 MLOAD PUSH2 0x240 SWAP13 SWAP12 SWAP11 SWAP10 SWAP9 SWAP8 SWAP7 SWAP6 SWAP5 SWAP4 SWAP3 SWAP2 SWAP1 PUSH2 0x1E1C JUMP JUMPDEST PUSH1 0x40 MLOAD DUP1 SWAP2 SUB SWAP1 RETURN JUMPDEST PUSH2 0x269 PUSH2 0x257 CALLDATASIZE PUSH1 0x4 PUSH2 0x1ECE JUMP JUMPDEST PUSH1 0x9 PUSH1 0x20 MSTORE PUSH1 0x0 SWAP1 DUP2 MSTORE PUSH1 0x40 SWAP1 KECCAK256 SLOAD DUP2 JUMP JUMPDEST PUSH1 0x40 MLOAD SWAP1 DUP2 MSTORE PUSH1 0x20 ADD PUSH2 0x240 JUMP JUMPDEST PUSH2 0x27F PUSH2 0x7A8 JUMP JUMPDEST PUSH1 0x40 DUP1 MLOAD SWAP7 DUP8 MSTORE PUSH1 0x20 DUP8 ADD SWAP6 SWAP1 SWAP6 MSTORE SWAP4 DUP6 ADD SWAP3 SWAP1 SWAP3 MSTORE PUSH1 0x60 DUP5 ADD MSTORE PUSH1 0x80 DUP4 ADD MSTORE PUSH1 0xA0 DUP3 ADD MSTORE PUSH1 0xC0 ADD PUSH2 0x240 JUMP JUMPDEST PUSH2 0x269 PUSH2 0x2BA CALLDATASIZE PUSH1 0x4 PUSH2 0x1DBD JUMP JUMPDEST PUSH1 0x6 PUSH1 0x20 MSTORE PUSH1 0x0 SWAP1 DUP2 MSTORE PUSH1 0x40 SWAP1 KECCAK256 SLOAD DUP2 JUMP JUMPDEST PUSH2 0x269 PUSH1 0xF SLOAD DUP2 JUMP JUMPDEST PUSH2 0x269 PUSH2 0x2E3 CALLDATASIZE PUSH1 0x4 PUSH2 0x1EF0 JUMP JUMPDEST PUSH1 0x5 PUSH1 0x20 SWAP1 DUP2 MSTORE PUSH1 0x0 SWAP3 DUP4 MSTORE PUSH1 0x40 DUP1 DUP5 KECCAK256 SWAP1 SWAP2 MSTORE SWAP1 DUP3 MSTORE SWAP1 KECCAK256 SLOAD DUP2 JUMP JUMPDEST PUSH2 0x313 PUSH2 0x30E CALLDATASIZE PUSH1 0x4 PUSH2 0x1F1C JUMP JUMPDEST PUSH2 0x802 JUMP JUMPDEST PUSH1 0x40 DUP1 MLOAD PUSH1 0x1 PUSH1 0x1 PUSH1 0xA0 SHL SUB SWAP1 SWAP6 AND DUP6 MSTORE PUSH1 0x20 DUP6 ADD SWAP4 SWAP1 SWAP4 MSTORE SWAP2 DUP4 ADD MSTORE ISZERO ISZERO PUSH1 0x60 DUP3 ADD MSTORE PUSH1 0x80 ADD PUSH2 0x240 JUMP JUMPDEST PUSH2 0x269 PUSH1 0xE SLOAD DUP2 JUMP JUMPDEST PUSH2 0x36F PUSH32 0x0 DUP2 JUMP JUMPDEST PUSH1 0x40 MLOAD PUSH1 0x1 PUSH1 0x1 PUSH1 0xA0 SHL SUB SWAP1 SWAP2 AND DUP2 MSTORE PUSH1 0x20 ADD PUSH2 0x240 JUMP JUMPDEST PUSH2 0x39A PUSH2 0x395 CALLDATASIZE PUSH1 0x4 PUSH2 0x1F1C JUMP JUMPDEST PUSH2 0x855 JUMP JUMPDEST STOP JUMPDEST PUSH2 0x39A PUSH2 0x3AA CALLDATASIZE PUSH1 0x4 PUSH2 0x1F98 JUMP JUMPDEST PUSH2 0xC3E JUMP JUMPDEST PUSH2 0x39A PUSH2 0x3BD CALLDATASIZE PUSH1 0x4 PUSH2 0x1DBD JUMP JUMPDEST PUSH2 0xFB5 JUMP JUMPDEST PUSH2 0x269 PUSH1 0xB SLOAD DUP2 JUMP JUMPDEST PUSH2 0x40B PUSH2 0x3D9 CALLDATASIZE PUSH1 0x4 PUSH2 0x1ECE JUMP JUMPDEST PUSH1 0x1 PUSH1 0x1 PUSH1 0xA0 SHL SUB AND PUSH1 0x0 SWAP1 DUP2 MSTORE PUSH1 0x8 PUSH1 0x20 SWAP1 DUP2 MSTORE PUSH1 0x40 DUP1 DUP4 KECCAK256 SLOAD PUSH1 0x9 DUP4 MSTORE DUP2 DUP5 KECCAK256 SLOAD PUSH1 0xA SWAP1 SWAP4 MSTORE SWAP3 KECCAK256 SLOAD SWAP2 SWAP3 SWAP1 SWAP2 SWAP1 JUMP JUMPDEST PUSH1 0x40 DUP1 MLOAD SWAP4 DUP5 MSTORE PUSH1 0x20 DUP5 ADD SWAP3 SWAP1 SWAP3 MSTORE SWAP1 DUP3 ADD MSTORE PUSH1 0x60 ADD PUSH2 0x240 JUMP JUMPDEST PUSH2 0x39A PUSH2 0x434 CALLDATASIZE PUSH1 0x4 PUSH2 0x1DBD JUMP JUMPDEST PUSH2 0x1107 JUMP JUMPDEST PUSH2 0x269 PUSH1 0xD SLOAD DUP2 JUMP JUMPDEST PUSH2 0x269 PUSH3 0xF4240 DUP2 JUMP JUMPDEST PUSH2 0x39A PUSH2 0x45A CALLDATASIZE PUSH1 0x4 PUSH2 0x1DBD JUMP JUMPDEST PUSH2 0x11E0 JUMP JUMPDEST PUSH2 0x269 PUSH2 0x46D CALLDATASIZE PUSH1 0x4 PUSH2 0x1DBD JUMP JUMPDEST PUSH1 0x7 PUSH1 0x20 MSTORE PUSH1 0x0 SWAP1 DUP2 MSTORE PUSH1 0x40 SWAP1 KECCAK256 SLOAD DUP2 JUMP JUMPDEST PUSH2 0x39A PUSH2 0x1676 JUMP JUMPDEST PUSH2 0x269 PUSH4 0x5F5E100 DUP2 JUMP JUMPDEST PUSH2 0x39A PUSH2 0x4A0 CALLDATASIZE PUSH1 0x4 PUSH2 0x1ECE JUMP JUMPDEST PUSH2 0x168A JUMP JUMPDEST PUSH2 0x269 PUSH2 0x4B3 CALLDATASIZE PUSH1 0x4 PUSH2 0x1ECE JUMP JUMPDEST PUSH1 0x8 PUSH1 0x20 MSTORE PUSH1 0x0 SWAP1 DUP2 MSTORE PUSH1 0x40 SWAP1 KECCAK256 SLOAD DUP2 JUMP JUMPDEST PUSH2 0x269 PUSH4 0x3B9ACA00 DUP2 JUMP JUMPDEST PUSH1 0x0 SLOAD PUSH1 0x1 PUSH1 0x1 PUSH1 0xA0 SHL SUB AND PUSH2 0x36F JUMP JUMPDEST PUSH2 0x4F4 PUSH2 0x4EF CALLDATASIZE PUSH1 0x4 PUSH2 0x1DBD JUMP JUMPDEST PUSH2 0x1733 JUMP JUMPDEST PUSH1 0x40 MLOAD PUSH2 0x240 SWAP9 SWAP8 SWAP7 SWAP6 SWAP5 SWAP4 SWAP3 SWAP2 SWAP1 PUSH2 0x204C JUMP JUMPDEST PUSH2 0x51B PUSH2 0x516 CALLDATASIZE PUSH1 0x4 PUSH2 0x1EF0 JUMP JUMPDEST PUSH2 0x18ED JUMP JUMPDEST PUSH1 0x40 MLOAD SWAP1 ISZERO ISZERO DUP2 MSTORE PUSH1 0x20 ADD PUSH2 0x240 JUMP JUMPDEST PUSH2 0x53E PUSH2 0x539 CALLDATASIZE PUSH1 0x4 PUSH2 0x1EF0 JUMP JUMPDEST PUSH2 0x1919 JUMP JUMPDEST PUSH1 0x40 DUP1 MLOAD SWAP4 DUP5 MSTORE PUSH1 0x20 DUP5 ADD SWAP3 SWAP1 SWAP3 MSTORE ISZERO ISZERO SWAP1 DUP3 ADD MSTORE PUSH1 0x60 ADD PUSH2 0x240 JUMP JUMPDEST PUSH2 0x40B PUSH2 0x569 CALLDATASIZE PUSH1 0x4 PUSH2 0x1DBD JUMP JUMPDEST PUSH1 0x0 DUP2 DUP2 MSTORE PUSH1 0x6 PUSH1 0x20 SWAP1 DUP2 MSTORE PUSH1 0x40 DUP1 DUP4 KECCAK256 SLOAD PUSH1 0x4 DUP4 MSTORE DUP2 DUP5 KECCAK256 SLOAD PUSH1 0x7 SWAP1 SWAP4 MSTORE SWAP3 KECCAK256 SLOAD SWAP2 SWAP4 SWAP1 SWAP3 POP JUMP JUMPDEST PUSH2 0x269 PUSH1 0xC SLOAD DUP2 JUMP JUMPDEST PUSH2 0x39A PUSH2 0x5A9 CALLDATASIZE PUSH1 0x4 PUSH2 0x20B2 JUMP JUMPDEST PUSH2 0x19D7 JUMP JUMPDEST PUSH2 0x5C1 PUSH2 0x5BC CALLDATASIZE PUSH1 0x4 PUSH2 0x1DBD JUMP JUMPDEST PUSH2 0x1C83 JUMP JUMPDEST PUSH1 0x40 DUP1 MLOAD PUSH1 0xFF SWAP5 DUP6 AND DUP2 MSTORE SWAP3 DUP5 AND PUSH1 0x20 DUP5 ADD MSTORE SWAP3 AND SWAP2 DUP2 ADD SWAP2 SWAP1 SWAP2 MSTORE PUSH1 0x60 ADD PUSH2 0x240 JUMP JUMPDEST PUSH2 0x269 PUSH2 0x5F3 CALLDATASIZE PUSH1 0x4 PUSH2 0x1ECE JUMP JUMPDEST PUSH1 0xA PUSH1 0x20 MSTORE PUSH1 0x0 SWAP1 DUP2 MSTORE PUSH1 0x40 SWAP1 KECCAK256 SLOAD DUP2 JUMP JUMPDEST PUSH2 0x39A PUSH2 0x613 CALLDATASIZE PUSH1 0x4 PUSH2 0x1ECE JUMP JUMPDEST PUSH2 0x1CDB JUMP JUMPDEST PUSH1 0x2 SLOAD PUSH2 0x36F SWAP1 PUSH1 0x1 PUSH1 0x1 PUSH1 0xA0 SHL SUB AND DUP2 JUMP JUMPDEST PUSH1 0x3 PUSH1 0x20 MSTORE PUSH1 0x0 SWAP1 DUP2 MSTORE PUSH1 0x40 SWAP1 KECCAK256 DUP1 SLOAD DUP2 SWAP1 PUSH2 0x646 SWAP1 PUSH2 0x20EE JUMP JUMPDEST DUP1 PUSH1 0x1F ADD PUSH1 0x20 DUP1 SWAP2 DIV MUL PUSH1 0x20 ADD PUSH1 0x40 MLOAD SWAP1 DUP2 ADD PUSH1 0x40 MSTORE DUP1 SWAP3 SWAP2 SWAP1 DUP2 DUP2 MSTORE PUSH1 0x20 ADD DUP3 DUP1 SLOAD PUSH2 0x672 SWAP1 PUSH2 0x20EE JUMP JUMPDEST DUP1 ISZERO PUSH2 0x6BF JUMPI DUP1 PUSH1 0x1F LT PUSH2 0x694 JUMPI PUSH2 0x100 DUP1 DUP4 SLOAD DIV MUL DUP4 MSTORE SWAP2 PUSH1 0x20 ADD SWAP2 PUSH2 0x6BF JUMP JUMPDEST DUP3 ADD SWAP2 SWAP1 PUSH1 0x0 MSTORE PUSH1 0x20 PUSH1 0x0 KECCAK256 SWAP1 JUMPDEST DUP2 SLOAD DUP2 MSTORE SWAP1 PUSH1 0x1 ADD SWAP1 PUSH1 0x20 ADD DUP1 DUP4 GT PUSH2 0x6A2 JUMPI DUP3 SWAP1 SUB PUSH1 0x1F AND DUP3 ADD SWAP2 JUMPDEST POP POP POP POP POP SWAP1 DUP1 PUSH1 0x1 ADD DUP1 SLOAD PUSH2 0x6D4 SWAP1 PUSH2 0x20EE JUMP JUMPDEST DUP1 PUSH1 0x1F ADD PUSH1 0x20 DUP1 SWAP2 DIV MUL PUSH1 0x20 ADD PUSH1 0x40 MLOAD SWAP1 DUP2 ADD PUSH1 0x40 MSTORE DUP1 SWAP3 SWAP2 SWAP1 DUP2 DUP2 MSTORE PUSH1 0x20 ADD DUP3 DUP1 SLOAD PUSH2 0x700 SWAP1 PUSH2 0x20EE JUMP JUMPDEST DUP1 ISZERO PUSH2 0x74D JUMPI DUP1 PUSH1 0x1F LT PUSH2 0x722 JUMPI PUSH2 0x100 DUP1 DUP4 SLOAD DIV MUL DUP4 MSTORE SWAP2 PUSH1 0x20 ADD SWAP2 PUSH2 0x74D JUMP JUMPDEST DUP3 ADD SWAP2 SWAP1 PUSH1 0x0 MSTORE PUSH1 0x20 PUSH1 0x0 KECCAK256 SWAP1 JUMPDEST DUP2 SLOAD DUP2 MSTORE SWAP1 PUSH1 0x1 ADD SWAP1 PUSH1 0x20 ADD DUP1 DUP4 GT PUSH2 0x730 JUMPI DUP3 SWAP1 SUB PUSH1 0x1F AND DUP3 ADD SWAP2 JUMPDEST POP POP POP POP PUSH1 0x2 DUP4 ADD SLOAD PUSH1 0x3 DUP5 ADD SLOAD PUSH1 0x4 DUP6 ADD SLOAD PUSH1 0x5 SWAP1 SWAP6 ADD SLOAD SWAP4 SWAP5 PUSH1 0xFF DUP1 DUP5 AND SWAP6 PUSH2 0x100 DUP1 DUP7 DIV DUP4 AND SWAP7 POP PUSH3 0x10000 SWAP6 DUP7 SWAP1 DIV DUP4 AND SWAP6 DUP4 DUP4 AND SWAP4 SWAP2 DUP4 DIV DUP3 AND SWAP3 SWAP1 DUP2 DIV DUP3 AND SWAP2 PUSH4 0x1000000 DUP3 DIV DUP2 AND SWAP2 PUSH1 0x1 PUSH1 0x20 SHL SWAP1 DIV AND DUP13 JUMP JUMPDEST PUSH1 0x0 DUP1 PUSH1 0x0 DUP1 PUSH1 0x0 DUP1 PUSH1 0x0 DUP1 PUSH1 0xB SLOAD GT PUSH2 0x7C3 JUMPI PUSH1 0x0 PUSH2 0x7DE JUMP JUMPDEST PUSH1 0xB SLOAD PUSH1 0xC SLOAD PUSH2 0x7D4 SWAP1 PUSH1 0x64 PUSH2 0x213E JUMP JUMPDEST PUSH2 0x7DE SWAP2 SWAP1 PUSH2 0x2155 JUMP JUMPDEST PUSH1 0xB SLOAD PUSH1 0xC SLOAD PUSH1 0xD SLOAD PUSH1 0xE SLOAD PUSH1 0xF SLOAD SWAP4 SWAP13 SWAP3 SWAP12 POP SWAP1 SWAP10 POP SWAP8 POP SWAP1 SWAP6 POP SWAP1 SWAP4 POP SWAP2 POP POP JUMP JUMPDEST PUSH1 0x4 PUSH1 0x20 MSTORE DUP2 PUSH1 0x0 MSTORE PUSH1 0x40 PUSH1 0x0 KECCAK256 DUP2 DUP2 SLOAD DUP2 LT PUSH2 0x81E JUMPI PUSH1 0x0 DUP1 REVERT JUMPDEST PUSH1 0x0 SWAP2 DUP3 MSTORE PUSH1 0x20 SWAP1 SWAP2 KECCAK256 PUSH1 0x4 SWAP1 SWAP2 MUL ADD DUP1 SLOAD PUSH1 0x1 DUP3 ADD SLOAD PUSH1 0x2 DUP4 ADD SLOAD PUSH1 0x3 SWAP1 SWAP4 ADD SLOAD PUSH1 0x1 PUSH1 0x1 PUSH1 0xA0 SHL SUB SWAP1 SWAP3 AND SWAP5 POP SWAP3 POP PUSH1 0xFF AND DUP5 JUMP JUMPDEST PUSH2 0x85D PUSH2 0x1D16 JUMP JUMPDEST PUSH1 0x0 DUP3 DUP2 MSTORE PUSH1 0x3 PUSH1 0x20 MSTORE PUSH1 0x40 SWAP1 KECCAK256 PUSH1 0x5 DUP2 ADD SLOAD PUSH1 0xFF AND PUSH2 0x8C4 JUMPI PUSH1 0x40 MLOAD PUSH3 0x461BCD PUSH1 0xE5 SHL DUP2 MSTORE PUSH1 0x20 PUSH1 0x4 DUP3 ADD MSTORE PUSH1 0x1C PUSH1 0x24 DUP3 ADD MSTORE PUSH32 0x4E6F2070726564696374696F6E20666F722074686973206D6174636800000000 PUSH1 0x44 DUP3 ADD MSTORE PUSH1 0x64 ADD JUMPDEST PUSH1 0x40 MLOAD DUP1 SWAP2 SUB SWAP1 REVERT JUMPDEST PUSH1 0x5 DUP2 ADD SLOAD PUSH2 0x100 SWAP1 DIV PUSH1 0xFF AND ISZERO PUSH2 0x916 JUMPI PUSH1 0x40 MLOAD PUSH3 0x461BCD PUSH1 0xE5 SHL DUP2 MSTORE PUSH1 0x20 PUSH1 0x4 DUP3 ADD MSTORE PUSH1 0x15 PUSH1 0x24 DUP3 ADD MSTORE PUSH21 0x13585D18DA08185B1C9958591E481CD95D1D1B1959 PUSH1 0x5A SHL PUSH1 0x44 DUP3 ADD MSTORE PUSH1 0x64 ADD PUSH2 0x8BB JUMP JUMPDEST DUP1 PUSH1 0x3 ADD SLOAD TIMESTAMP LT PUSH2 0x95A JUMPI PUSH1 0x40 MLOAD PUSH3 0x461BCD PUSH1 0xE5 SHL DUP2 MSTORE PUSH1 0x20 PUSH1 0x4 DUP3 ADD MSTORE PUSH1 0xE PUSH1 0x24 DUP3 ADD MSTORE PUSH14 0x10995D1D1A5B99C818DB1BDCD959 PUSH1 0x92 SHL PUSH1 0x44 DUP3 ADD MSTORE PUSH1 0x64 ADD PUSH2 0x8BB JUMP JUMPDEST PUSH3 0xF4240 DUP3 LT ISZERO PUSH2 0x99D JUMPI PUSH1 0x40 MLOAD PUSH3 0x461BCD PUSH1 0xE5 SHL DUP2 MSTORE PUSH1 0x20 PUSH1 0x4 DUP3 ADD MSTORE PUSH1 0xD PUSH1 0x24 DUP3 ADD MSTORE PUSH13 0x10995D081D1BDBC81CDB585B1B PUSH1 0x9A SHL PUSH1 0x44 DUP3 ADD MSTORE PUSH1 0x64 ADD PUSH2 0x8BB JUMP JUMPDEST PUSH4 0x3B9ACA00 DUP3 GT ISZERO PUSH2 0x9E1 JUMPI PUSH1 0x40 MLOAD PUSH3 0x461BCD PUSH1 0xE5 SHL DUP2 MSTORE PUSH1 0x20 PUSH1 0x4 DUP3 ADD MSTORE PUSH1 0xD PUSH1 0x24 DUP3 ADD MSTORE PUSH13 0x42657420746F6F206C61726765 PUSH1 0x98 SHL PUSH1 0x44 DUP3 ADD MSTORE PUSH1 0x64 ADD PUSH2 0x8BB JUMP JUMPDEST PUSH1 0x0 DUP4 DUP2 MSTORE PUSH1 0x5 PUSH1 0x20 SWAP1 DUP2 MSTORE PUSH1 0x40 DUP1 DUP4 KECCAK256 CALLER DUP5 MSTORE SWAP1 SWAP2 MSTORE SWAP1 KECCAK256 SLOAD ISZERO PUSH2 0xA48 JUMPI PUSH1 0x40 MLOAD PUSH3 0x461BCD PUSH1 0xE5 SHL DUP2 MSTORE PUSH1 0x20 PUSH1 0x4 DUP3 ADD MSTORE PUSH1 0x19 PUSH1 0x24 DUP3 ADD MSTORE PUSH32 0x416C726561647920626574206F6E2074686973206D6174636800000000000000 PUSH1 0x44 DUP3 ADD MSTORE PUSH1 0x64 ADD PUSH2 0x8BB JUMP JUMPDEST PUSH1 0x40 MLOAD PUSH4 0x23B872DD PUSH1 0xE0 SHL DUP2 MSTORE CALLER PUSH1 0x4 DUP3 ADD MSTORE ADDRESS PUSH1 0x24 DUP3 ADD MSTORE PUSH1 0x44 DUP2 ADD DUP4 SWAP1 MSTORE PUSH32 0x0 PUSH1 0x1 PUSH1 0x1 PUSH1 0xA0 SHL SUB AND SWAP1 PUSH4 0x23B872DD SWAP1 PUSH1 0x64 ADD PUSH1 0x20 PUSH1 0x40 MLOAD DUP1 DUP4 SUB DUP2 PUSH1 0x0 DUP8 GAS CALL ISZERO DUP1 ISZERO PUSH2 0xABB JUMPI RETURNDATASIZE PUSH1 0x0 DUP1 RETURNDATACOPY RETURNDATASIZE PUSH1 0x0 REVERT JUMPDEST POP POP POP POP PUSH1 0x40 MLOAD RETURNDATASIZE PUSH1 0x1F NOT PUSH1 0x1F DUP3 ADD AND DUP3 ADD DUP1 PUSH1 0x40 MSTORE POP DUP2 ADD SWAP1 PUSH2 0xADF SWAP2 SWAP1 PUSH2 0x2177 JUMP JUMPDEST PUSH2 0xAFB JUMPI PUSH1 0x40 MLOAD PUSH3 0x461BCD PUSH1 0xE5 SHL DUP2 MSTORE PUSH1 0x4 ADD PUSH2 0x8BB SWAP1 PUSH2 0x2199 JUMP JUMPDEST PUSH1 0x0 DUP4 DUP2 MSTORE PUSH1 0x4 PUSH1 0x20 DUP2 DUP2 MSTORE PUSH1 0x40 DUP1 DUP5 KECCAK256 DUP2 MLOAD PUSH1 0x80 DUP2 ADD DUP4 MSTORE CALLER DUP1 DUP3 MSTORE DUP2 DUP6 ADD DUP10 DUP2 MSTORE TIMESTAMP DUP4 DUP7 ADD SWAP1 DUP2 MSTORE PUSH1 0x60 DUP5 ADD DUP10 DUP2 MSTORE DUP6 SLOAD PUSH1 0x1 DUP1 DUP3 ADD DUP9 SSTORE DUP8 DUP13 MSTORE DUP10 DUP13 KECCAK256 SWAP7 MLOAD SWAP2 SWAP1 SWAP11 MUL SWAP1 SWAP6 ADD DUP1 SLOAD PUSH1 0x1 PUSH1 0x1 PUSH1 0xA0 SHL SUB NOT AND PUSH1 0x1 PUSH1 0x1 PUSH1 0xA0 SHL SUB SWAP1 SWAP7 AND SWAP6 SWAP1 SWAP6 OR DUP6 SSTORE SWAP2 MLOAD SWAP8 DUP5 ADD SWAP8 SWAP1 SWAP8 SSTORE SWAP6 MLOAD PUSH1 0x2 DUP4 ADD SSTORE SWAP5 MLOAD PUSH1 0x3 SWAP1 SWAP2 ADD DUP1 SLOAD PUSH1 0xFF NOT AND SWAP2 ISZERO ISZERO SWAP2 SWAP1 SWAP2 OR SWAP1 SSTORE DUP8 DUP6 MSTORE SLOAD PUSH1 0x5 DUP4 MSTORE DUP2 DUP6 KECCAK256 SWAP4 DUP6 MSTORE SWAP3 DUP3 MSTORE DUP1 DUP5 KECCAK256 SWAP3 SWAP1 SWAP3 SSTORE DUP6 DUP4 MSTORE PUSH1 0x6 SWAP1 MSTORE DUP2 KECCAK256 DUP1 SLOAD DUP5 SWAP3 SWAP1 PUSH2 0xBB8 SWAP1 DUP5 SWAP1 PUSH2 0x21C2 JUMP JUMPDEST SWAP1 SWAP2 SSTORE POP POP CALLER PUSH1 0x0 SWAP1 DUP2 MSTORE PUSH1 0x8 PUSH1 0x20 MSTORE PUSH1 0x40 DUP2 KECCAK256 DUP1 SLOAD SWAP2 PUSH2 0xBD8 DUP4 PUSH2 0x21D5 JUMP JUMPDEST SWAP2 SWAP1 POP SSTORE POP DUP2 PUSH1 0xD PUSH1 0x0 DUP3 DUP3 SLOAD PUSH2 0xBEF SWAP2 SWAP1 PUSH2 0x21C2 JUMP JUMPDEST SWAP1 SWAP2 SSTORE POP POP PUSH1 0x40 DUP1 MLOAD DUP4 DUP2 MSTORE TIMESTAMP PUSH1 0x20 DUP3 ADD MSTORE CALLER SWAP2 DUP6 SWAP2 PUSH32 0x1B8A9031CB9351278D70A994F81536E9E08C91162E64F92B2FE4766FB7A891B4 SWAP2 ADD PUSH1 0x40 MLOAD DUP1 SWAP2 SUB SWAP1 LOG3 POP PUSH2 0xC3A PUSH1 0x1 DUP1 SSTORE JUMP JUMPDEST POP POP JUMP JUMPDEST PUSH1 0x0 SLOAD PUSH1 0x1 PUSH1 0x1 PUSH1 0xA0 SHL SUB AND CALLER EQ DUP1 PUSH2 0xC61 JUMPI POP PUSH1 0x2 SLOAD PUSH1 0x1 PUSH1 0x1 PUSH1 0xA0 SHL SUB AND CALLER EQ JUMPDEST PUSH2 0xC7D JUMPI PUSH1 0x40 MLOAD PUSH3 0x461BCD PUSH1 0xE5 SHL DUP2 MSTORE PUSH1 0x4 ADD PUSH2 0x8BB SWAP1 PUSH2 0x21EE JUMP JUMPDEST PUSH1 0x0 DUP10 DUP2 MSTORE PUSH1 0x3 PUSH1 0x20 MSTORE PUSH1 0x40 SWAP1 KECCAK256 PUSH1 0x5 ADD SLOAD PUSH1 0xFF AND ISZERO PUSH2 0xCDF JUMPI PUSH1 0x40 MLOAD PUSH3 0x461BCD PUSH1 0xE5 SHL DUP2 MSTORE PUSH1 0x20 PUSH1 0x4 DUP3 ADD MSTORE PUSH1 0x19 PUSH1 0x24 DUP3 ADD MSTORE PUSH32 0x50726564696374696F6E20616C72656164792065786973747300000000000000 PUSH1 0x44 DUP3 ADD MSTORE PUSH1 0x64 ADD PUSH2 0x8BB JUMP JUMPDEST TIMESTAMP DUP2 GT PUSH2 0xD26 JUMPI PUSH1 0x40 MLOAD PUSH3 0x461BCD PUSH1 0xE5 SHL DUP2 MSTORE PUSH1 0x20 PUSH1 0x4 DUP3 ADD MSTORE PUSH1 0x15 PUSH1 0x24 DUP3 ADD MSTORE PUSH21 0x13585D18DA08185B1C9958591E481CDD185C9D1959 PUSH1 0x5A SHL PUSH1 0x44 DUP3 ADD MSTORE PUSH1 0x64 ADD PUSH2 0x8BB JUMP JUMPDEST PUSH1 0x0 DUP3 PUSH1 0xFF AND GT DUP1 ISZERO PUSH2 0xD3D JUMPI POP PUSH1 0x64 DUP3 PUSH1 0xFF AND GT ISZERO JUMPDEST PUSH2 0xD7E JUMPI PUSH1 0x40 MLOAD PUSH3 0x461BCD PUSH1 0xE5 SHL DUP2 MSTORE PUSH1 0x20 PUSH1 0x4 DUP3 ADD MSTORE PUSH1 0x12 PUSH1 0x24 DUP3 ADD MSTORE PUSH18 0x496E76616C696420636F6E666964656E6365 PUSH1 0x70 SHL PUSH1 0x44 DUP3 ADD MSTORE PUSH1 0x64 ADD PUSH2 0x8BB JUMP JUMPDEST PUSH1 0x40 MLOAD DUP1 PUSH2 0x180 ADD PUSH1 0x40 MSTORE DUP1 DUP10 DUP10 DUP1 DUP1 PUSH1 0x1F ADD PUSH1 0x20 DUP1 SWAP2 DIV MUL PUSH1 0x20 ADD PUSH1 0x40 MLOAD SWAP1 DUP2 ADD PUSH1 0x40 MSTORE DUP1 SWAP4 SWAP3 SWAP2 SWAP1 DUP2 DUP2 MSTORE PUSH1 0x20 ADD DUP4 DUP4 DUP1 DUP3 DUP5 CALLDATACOPY PUSH1 0x0 SWAP3 ADD SWAP2 SWAP1 SWAP2 MSTORE POP POP POP SWAP1 DUP3 MSTORE POP PUSH1 0x40 DUP1 MLOAD PUSH1 0x20 PUSH1 0x1F DUP11 ADD DUP2 SWAP1 DIV DUP2 MUL DUP3 ADD DUP2 ADD SWAP1 SWAP3 MSTORE DUP9 DUP2 MSTORE SWAP2 DUP2 ADD SWAP2 SWAP1 DUP10 SWAP1 DUP10 SWAP1 DUP2 SWAP1 DUP5 ADD DUP4 DUP3 DUP1 DUP3 DUP5 CALLDATACOPY PUSH1 0x0 SWAP3 ADD DUP3 SWAP1 MSTORE POP SWAP4 DUP6 MSTORE POP POP POP PUSH1 0xFF DUP1 DUP9 AND PUSH1 0x20 DUP1 DUP6 ADD SWAP2 SWAP1 SWAP2 MSTORE DUP8 DUP3 AND PUSH1 0x40 DUP1 DUP7 ADD SWAP2 SWAP1 SWAP2 MSTORE SWAP2 DUP8 AND PUSH1 0x60 DUP6 ADD MSTORE PUSH1 0x80 DUP5 ADD DUP7 SWAP1 MSTORE TIMESTAMP PUSH1 0xA0 DUP6 ADD MSTORE PUSH1 0x1 PUSH1 0xC0 DUP6 ADD MSTORE PUSH1 0xE0 DUP5 ADD DUP4 SWAP1 MSTORE PUSH2 0x100 DUP5 ADD DUP4 SWAP1 MSTORE PUSH2 0x120 DUP5 ADD DUP4 SWAP1 MSTORE PUSH2 0x140 SWAP1 SWAP4 ADD DUP3 SWAP1 MSTORE DUP13 DUP3 MSTORE PUSH1 0x3 SWAP1 SWAP3 MSTORE KECCAK256 DUP2 MLOAD DUP2 SWAP1 PUSH2 0xE6A SWAP1 DUP3 PUSH2 0x22A1 JUMP JUMPDEST POP PUSH1 0x20 DUP3 ADD MLOAD PUSH1 0x1 DUP3 ADD SWAP1 PUSH2 0xE7F SWAP1 DUP3 PUSH2 0x22A1 JUMP JUMPDEST POP PUSH1 0x40 DUP3 ADD MLOAD PUSH1 0x2 DUP3 ADD DUP1 SLOAD PUSH1 0x60 DUP6 ADD MLOAD PUSH1 0x80 DUP7 ADD MLOAD PUSH1 0xFF SWAP5 DUP6 AND PUSH2 0xFFFF NOT SWAP4 DUP5 AND OR PUSH2 0x100 SWAP3 DUP7 AND DUP4 MUL OR PUSH3 0xFF0000 NOT AND PUSH3 0x10000 SWAP2 DUP7 AND DUP3 MUL OR SWAP1 SWAP4 SSTORE PUSH1 0xA0 DUP7 ADD MLOAD PUSH1 0x3 DUP7 ADD SSTORE PUSH1 0xC0 DUP7 ADD MLOAD PUSH1 0x4 DUP7 ADD SSTORE PUSH1 0xE0 DUP7 ADD MLOAD PUSH1 0x5 SWAP1 SWAP6 ADD DUP1 SLOAD DUP3 DUP9 ADD MLOAD PUSH2 0x120 DUP10 ADD MLOAD PUSH2 0x140 DUP11 ADD MLOAD PUSH2 0x160 SWAP1 SWAP11 ADD MLOAD SWAP3 SWAP1 SWAP6 AND PUSH2 0xFF00 NOT SWAP9 ISZERO ISZERO SWAP9 SWAP1 SWAP9 AND SWAP8 SWAP1 SWAP8 OR SWAP7 ISZERO ISZERO SWAP1 SWAP3 MUL SWAP6 SWAP1 SWAP6 OR PUSH4 0xFFFF0000 NOT AND SWAP2 DUP5 AND SWAP1 SWAP3 MUL PUSH4 0xFF000000 NOT AND OR PUSH4 0x1000000 SWAP5 SWAP1 SWAP3 AND SWAP4 SWAP1 SWAP4 MUL OR PUSH5 0xFF00000000 NOT AND PUSH1 0x1 PUSH1 0x20 SHL SWAP3 ISZERO ISZERO SWAP3 SWAP1 SWAP3 MUL SWAP2 SWAP1 SWAP2 OR SWAP1 SSTORE PUSH1 0xB DUP1 SLOAD SWAP1 PUSH1 0x0 PUSH2 0xF5F DUP4 PUSH2 0x21D5 JUMP JUMPDEST SWAP2 SWAP1 POP SSTORE POP DUP9 PUSH32 0x35200095317F02946F1D14D8634B3216D5253A4CFB606FA58D69632246A14E66 DUP10 DUP10 DUP10 DUP10 DUP10 DUP10 DUP10 DUP10 PUSH1 0x40 MLOAD PUSH2 0xFA2 SWAP9 SWAP8 SWAP7 SWAP6 SWAP5 SWAP4 SWAP3 SWAP2 SWAP1 PUSH2 0x238A JUMP JUMPDEST PUSH1 0x40 MLOAD DUP1 SWAP2 SUB SWAP1 LOG2 POP POP POP POP POP POP POP POP POP JUMP JUMPDEST PUSH1 0x0 DUP2 GT PUSH2 0x1005 JUMPI PUSH1 0x40 MLOAD PUSH3 0x461BCD PUSH1 0xE5 SHL DUP2 MSTORE PUSH1 0x20 PUSH1 0x4 DUP3 ADD MSTORE PUSH1 0x17 PUSH1 0x24 DUP3 ADD MSTORE PUSH32 0x416D6F756E74206D75737420626520706F736974697665000000000000000000 PUSH1 0x44 DUP3 ADD MSTORE PUSH1 0x64 ADD PUSH2 0x8BB JUMP JUMPDEST PUSH1 0x40 MLOAD PUSH4 0x23B872DD PUSH1 0xE0 SHL DUP2 MSTORE CALLER PUSH1 0x4 DUP3 ADD MSTORE ADDRESS PUSH1 0x24 DUP3 ADD MSTORE PUSH1 0x44 DUP2 ADD DUP3 SWAP1 MSTORE PUSH32 0x0 PUSH1 0x1 PUSH1 0x1 PUSH1 0xA0 SHL SUB AND SWAP1 PUSH4 0x23B872DD SWAP1 PUSH1 0x64 ADD PUSH1 0x20 PUSH1 0x40 MLOAD DUP1 DUP4 SUB DUP2 PUSH1 0x0 DUP8 GAS CALL ISZERO DUP1 ISZERO PUSH2 0x1078 JUMPI RETURNDATASIZE PUSH1 0x0 DUP1 RETURNDATACOPY RETURNDATASIZE PUSH1 0x0 REVERT JUMPDEST POP POP POP POP PUSH1 0x40 MLOAD RETURNDATASIZE PUSH1 0x1F NOT PUSH1 0x1F DUP3 ADD AND DUP3 ADD DUP1 PUSH1 0x40 MSTORE POP DUP2 ADD SWAP1 PUSH2 0x109C SWAP2 SWAP1 PUSH2 0x2177 JUMP JUMPDEST PUSH2 0x10B8 JUMPI PUSH1 0x40 MLOAD PUSH3 0x461BCD PUSH1 0xE5 SHL DUP2 MSTORE PUSH1 0x4 ADD PUSH2 0x8BB SWAP1 PUSH2 0x2199 JUMP JUMPDEST DUP1 PUSH1 0xF PUSH1 0x0 DUP3 DUP3 SLOAD PUSH2 0x10CA SWAP2 SWAP1 PUSH2 0x21C2 JUMP JUMPDEST SWAP1 SWAP2 SSTORE POP POP PUSH1 0x40 MLOAD DUP2 DUP2 MSTORE CALLER SWAP1 PUSH32 0x963242895F5F5E2B7E90E067FB00A04D683CF55E9553B3A7E4E2A7E8DF53026C SWAP1 PUSH1 0x20 ADD PUSH1 0x40 MLOAD DUP1 SWAP2 SUB SWAP1 LOG2 POP JUMP JUMPDEST PUSH2 0x110F PUSH2 0x1D40 JUMP JUMPDEST PUSH32 0x0 PUSH1 0x1 PUSH1 0x1 PUSH1 0xA0 SHL SUB AND PUSH4 0xA9059CBB PUSH2 0x1150 PUSH1 0x0 SLOAD PUSH1 0x1 PUSH1 0x1 PUSH1 0xA0 SHL SUB AND SWAP1 JUMP JUMPDEST PUSH1 0x40 MLOAD PUSH1 0x1 PUSH1 0x1 PUSH1 0xE0 SHL SUB NOT PUSH1 0xE0 DUP5 SWAP1 SHL AND DUP2 MSTORE PUSH1 0x1 PUSH1 0x1 PUSH1 0xA0 SHL SUB SWAP1 SWAP2 AND PUSH1 0x4 DUP3 ADD MSTORE PUSH1 0x24 DUP2 ADD DUP5 SWAP1 MSTORE PUSH1 0x44 ADD PUSH1 0x20 PUSH1 0x40 MLOAD DUP1 DUP4 SUB DUP2 PUSH1 0x0 DUP8 GAS CALL ISZERO DUP1 ISZERO PUSH2 0x119D JUMPI RETURNDATASIZE PUSH1 0x0 DUP1 RETURNDATACOPY RETURNDATASIZE PUSH1 0x0 REVERT JUMPDEST POP POP POP POP PUSH1 0x40 MLOAD RETURNDATASIZE PUSH1 0x1F NOT PUSH1 0x1F DUP3 ADD AND DUP3 ADD DUP1 PUSH1 0x40 MSTORE POP DUP2 ADD SWAP1 PUSH2 0x11C1 SWAP2 SWAP1 PUSH2 0x2177 JUMP JUMPDEST PUSH2 0x11DD JUMPI PUSH1 0x40 MLOAD PUSH3 0x461BCD PUSH1 0xE5 SHL DUP2 MSTORE PUSH1 0x4 ADD PUSH2 0x8BB SWAP1 PUSH2 0x2199 JUMP JUMPDEST POP JUMP JUMPDEST PUSH2 0x11E8 PUSH2 0x1D16 JUMP JUMPDEST PUSH1 0x0 DUP2 DUP2 MSTORE PUSH1 0x3 PUSH1 0x20 MSTORE PUSH1 0x40 SWAP1 KECCAK256 PUSH1 0x5 DUP2 ADD SLOAD PUSH1 0xFF AND PUSH2 0x121A JUMPI PUSH1 0x40 MLOAD PUSH3 0x461BCD PUSH1 0xE5 SHL DUP2 MSTORE PUSH1 0x4 ADD PUSH2 0x8BB SWAP1 PUSH2 0x23DD JUMP JUMPDEST PUSH1 0x5 DUP2 ADD SLOAD PUSH2 0x100 SWAP1 DIV PUSH1 0xFF AND PUSH2 0x1267 JUMPI PUSH1 0x40 MLOAD PUSH3 0x461BCD PUSH1 0xE5 SHL DUP2 MSTORE PUSH1 0x20 PUSH1 0x4 DUP3 ADD MSTORE PUSH1 0x11 PUSH1 0x24 DUP3 ADD MSTORE PUSH17 0x13585D18DA081B9BDD081CD95D1D1B1959 PUSH1 0x7A SHL PUSH1 0x44 DUP3 ADD MSTORE PUSH1 0x64 ADD PUSH2 0x8BB JUMP JUMPDEST PUSH1 0x0 DUP3 DUP2 MSTORE PUSH1 0x5 PUSH1 0x20 SWAP1 DUP2 MSTORE PUSH1 0x40 DUP1 DUP4 KECCAK256 CALLER DUP5 MSTORE SWAP1 SWAP2 MSTORE SWAP1 KECCAK256 SLOAD DUP1 PUSH2 0x12BD JUMPI PUSH1 0x40 MLOAD PUSH3 0x461BCD PUSH1 0xE5 SHL DUP2 MSTORE PUSH1 0x20 PUSH1 0x4 DUP3 ADD MSTORE PUSH1 0xC PUSH1 0x24 DUP3 ADD MSTORE PUSH12 0x139BC818995D08199BDD5B99 PUSH1 0xA2 SHL PUSH1 0x44 DUP3 ADD MSTORE PUSH1 0x64 ADD PUSH2 0x8BB JUMP JUMPDEST PUSH1 0x0 DUP4 DUP2 MSTORE PUSH1 0x4 PUSH1 0x20 MSTORE PUSH1 0x40 DUP2 KECCAK256 PUSH2 0x12D6 PUSH1 0x1 DUP5 PUSH2 0x2414 JUMP JUMPDEST DUP2 SLOAD DUP2 LT PUSH2 0x12E6 JUMPI PUSH2 0x12E6 PUSH2 0x2427 JUMP JUMPDEST PUSH1 0x0 SWAP2 DUP3 MSTORE PUSH1 0x20 SWAP1 SWAP2 KECCAK256 PUSH1 0x4 SWAP1 SWAP2 MUL ADD PUSH1 0x3 DUP2 ADD SLOAD SWAP1 SWAP2 POP PUSH1 0xFF AND ISZERO PUSH2 0x1340 JUMPI PUSH1 0x40 MLOAD PUSH3 0x461BCD PUSH1 0xE5 SHL DUP2 MSTORE PUSH1 0x20 PUSH1 0x4 DUP3 ADD MSTORE PUSH1 0xF PUSH1 0x24 DUP3 ADD MSTORE PUSH15 0x105B1C9958591E4818DB185A5B5959 PUSH1 0x8A SHL PUSH1 0x44 DUP3 ADD MSTORE PUSH1 0x64 ADD PUSH2 0x8BB JUMP JUMPDEST DUP1 SLOAD PUSH1 0x1 PUSH1 0x1 PUSH1 0xA0 SHL SUB AND CALLER EQ PUSH2 0x1388 JUMPI PUSH1 0x40 MLOAD PUSH3 0x461BCD PUSH1 0xE5 SHL DUP2 MSTORE PUSH1 0x20 PUSH1 0x4 DUP3 ADD MSTORE PUSH1 0xC PUSH1 0x24 DUP3 ADD MSTORE PUSH12 0x139BDD081E5BDD5C8818995D PUSH1 0xA2 SHL PUSH1 0x44 DUP3 ADD MSTORE PUSH1 0x64 ADD PUSH2 0x8BB JUMP JUMPDEST PUSH1 0x3 DUP2 ADD DUP1 SLOAD PUSH1 0xFF NOT AND PUSH1 0x1 OR SWAP1 SSTORE PUSH1 0x5 DUP4 ADD SLOAD PUSH1 0x1 PUSH1 0x20 SHL SWAP1 DIV PUSH1 0xFF AND ISZERO PUSH2 0x156D JUMPI PUSH1 0x0 DUP5 DUP2 MSTORE PUSH1 0x7 PUSH1 0x20 MSTORE PUSH1 0x40 DUP2 KECCAK256 SLOAD SWAP1 DUP2 ISZERO DUP1 ISZERO SWAP1 PUSH2 0x13D0 JUMPI POP PUSH4 0x5F5E100 PUSH1 0xF SLOAD LT ISZERO JUMPDEST ISZERO PUSH2 0x1416 JUMPI PUSH2 0x13E3 DUP3 PUSH4 0x5F5E100 PUSH2 0x2155 JUMP JUMPDEST SWAP1 POP DUP1 PUSH1 0xF PUSH1 0x0 DUP3 DUP3 SLOAD PUSH2 0x13F7 SWAP2 SWAP1 PUSH2 0x2414 JUMP JUMPDEST SWAP3 POP POP DUP2 SWAP1 SSTORE POP DUP1 PUSH1 0xE PUSH1 0x0 DUP3 DUP3 SLOAD PUSH2 0x1410 SWAP2 SWAP1 PUSH2 0x21C2 JUMP JUMPDEST SWAP1 SWAP2 SSTORE POP POP JUMPDEST PUSH1 0x0 DUP2 DUP5 PUSH1 0x1 ADD SLOAD PUSH2 0x1428 SWAP2 SWAP1 PUSH2 0x21C2 JUMP JUMPDEST PUSH1 0x40 MLOAD PUSH4 0xA9059CBB PUSH1 0xE0 SHL DUP2 MSTORE CALLER PUSH1 0x4 DUP3 ADD MSTORE PUSH1 0x24 DUP2 ADD DUP3 SWAP1 MSTORE SWAP1 SWAP2 POP PUSH32 0x0 PUSH1 0x1 PUSH1 0x1 PUSH1 0xA0 SHL SUB AND SWAP1 PUSH4 0xA9059CBB SWAP1 PUSH1 0x44 ADD PUSH1 0x20 PUSH1 0x40 MLOAD DUP1 DUP4 SUB DUP2 PUSH1 0x0 DUP8 GAS CALL ISZERO DUP1 ISZERO PUSH2 0x1498 JUMPI RETURNDATASIZE PUSH1 0x0 DUP1 RETURNDATACOPY RETURNDATASIZE PUSH1 0x0 REVERT JUMPDEST POP POP POP POP PUSH1 0x40 MLOAD RETURNDATASIZE PUSH1 0x1F NOT PUSH1 0x1F DUP3 ADD AND DUP3 ADD DUP1 PUSH1 0x40 MSTORE POP DUP2 ADD SWAP1 PUSH2 0x14BC SWAP2 SWAP1 PUSH2 0x2177 JUMP JUMPDEST PUSH2 0x14D8 JUMPI PUSH1 0x40 MLOAD PUSH3 0x461BCD PUSH1 0xE5 SHL DUP2 MSTORE PUSH1 0x4 ADD PUSH2 0x8BB SWAP1 PUSH2 0x2199 JUMP JUMPDEST CALLER PUSH1 0x0 SWAP1 DUP2 MSTORE PUSH1 0x9 PUSH1 0x20 MSTORE PUSH1 0x40 DUP2 KECCAK256 DUP1 SLOAD DUP4 SWAP3 SWAP1 PUSH2 0x14F7 SWAP1 DUP5 SWAP1 PUSH2 0x21C2 JUMP JUMPDEST SWAP1 SWAP2 SSTORE POP POP CALLER PUSH1 0x0 SWAP1 DUP2 MSTORE PUSH1 0xA PUSH1 0x20 MSTORE PUSH1 0x40 DUP2 KECCAK256 DUP1 SLOAD SWAP2 PUSH2 0x1517 DUP4 PUSH2 0x21D5 JUMP JUMPDEST SWAP1 SWAP2 SSTORE POP POP PUSH1 0x1 DUP5 ADD SLOAD PUSH1 0x40 DUP1 MLOAD SWAP2 DUP3 MSTORE PUSH1 0x20 DUP3 ADD DUP5 SWAP1 MSTORE DUP2 ADD DUP3 SWAP1 MSTORE CALLER SWAP1 DUP9 SWAP1 PUSH32 0xADD3D9A4E0B4065AAAEA286D6A972CB854DE1A2A3D8BB80101ACA14DA148A5FD SWAP1 PUSH1 0x60 ADD PUSH1 0x40 MLOAD DUP1 SWAP2 SUB SWAP1 LOG3 POP POP POP PUSH2 0x166A JUMP JUMPDEST PUSH1 0x1 DUP2 ADD SLOAD PUSH1 0x40 MLOAD PUSH4 0xA9059CBB PUSH1 0xE0 SHL DUP2 MSTORE CALLER PUSH1 0x4 DUP3 ADD MSTORE PUSH1 0x24 DUP2 ADD SWAP2 SWAP1 SWAP2 MSTORE PUSH32 0x0 PUSH1 0x1 PUSH1 0x1 PUSH1 0xA0 SHL SUB AND SWAP1 PUSH4 0xA9059CBB SWAP1 PUSH1 0x44 ADD PUSH1 0x20 PUSH1 0x40 MLOAD DUP1 DUP4 SUB DUP2 PUSH1 0x0 DUP8 GAS CALL ISZERO DUP1 ISZERO PUSH2 0x15E0 JUMPI RETURNDATASIZE PUSH1 0x0 DUP1 RETURNDATACOPY RETURNDATASIZE PUSH1 0x0 REVERT JUMPDEST POP POP POP POP PUSH1 0x40 MLOAD RETURNDATASIZE PUSH1 0x1F NOT PUSH1 0x1F DUP3 ADD AND DUP3 ADD DUP1 PUSH1 0x40 MSTORE POP DUP2 ADD SWAP1 PUSH2 0x1604 SWAP2 SWAP1 PUSH2 0x2177 JUMP JUMPDEST PUSH2 0x1620 JUMPI PUSH1 0x40 MLOAD PUSH3 0x461BCD PUSH1 0xE5 SHL DUP2 MSTORE PUSH1 0x4 ADD PUSH2 0x8BB SWAP1 PUSH2 0x2199 JUMP JUMPDEST PUSH1 0x1 DUP2 ADD SLOAD PUSH1 0x40 DUP1 MLOAD DUP3 DUP2 MSTORE PUSH1 0x0 PUSH1 0x20 DUP3 ADD MSTORE DUP1 DUP3 ADD SWAP3 SWAP1 SWAP3 MSTORE MLOAD CALLER SWAP2 DUP7 SWAP2 PUSH32 0xADD3D9A4E0B4065AAAEA286D6A972CB854DE1A2A3D8BB80101ACA14DA148A5FD SWAP2 DUP2 SWAP1 SUB PUSH1 0x60 ADD SWAP1 LOG3 JUMPDEST POP POP POP PUSH2 0x11DD PUSH1 0x1 DUP1 SSTORE JUMP JUMPDEST PUSH2 0x167E PUSH2 0x1D40 JUMP JUMPDEST PUSH2 0x1688 PUSH1 0x0 PUSH2 0x1D6D JUMP JUMPDEST JUMP JUMPDEST PUSH2 0x1692 PUSH2 0x1D40 JUMP JUMPDEST PUSH1 0x1 PUSH1 0x1 PUSH1 0xA0 SHL SUB DUP2 AND PUSH2 0x16E1 JUMPI PUSH1 0x40 MLOAD PUSH3 0x461BCD PUSH1 0xE5 SHL DUP2 MSTORE PUSH1 0x20 PUSH1 0x4 DUP3 ADD MSTORE PUSH1 0x16 PUSH1 0x24 DUP3 ADD MSTORE PUSH22 0x496E76616C6964206F7261636C652061646472657373 PUSH1 0x50 SHL PUSH1 0x44 DUP3 ADD MSTORE PUSH1 0x64 ADD PUSH2 0x8BB JUMP JUMPDEST PUSH1 0x2 DUP1 SLOAD PUSH1 0x1 PUSH1 0x1 PUSH1 0xA0 SHL SUB DUP4 DUP2 AND PUSH1 0x1 PUSH1 0x1 PUSH1 0xA0 SHL SUB NOT DUP4 AND DUP2 OR SWAP1 SWAP4 SSTORE PUSH1 0x40 MLOAD SWAP2 AND SWAP2 SWAP1 DUP3 SWAP1 PUSH32 0xD3AFD1676752459D3AA8B6F73633FAC8EFD724610DA9C4CD8D8E4FA1631841FB SWAP1 PUSH1 0x0 SWAP1 LOG3 POP POP JUMP JUMPDEST PUSH1 0x0 DUP2 DUP2 MSTORE PUSH1 0x3 PUSH1 0x20 MSTORE PUSH1 0x40 DUP2 KECCAK256 PUSH1 0x5 DUP2 ADD SLOAD PUSH1 0x60 SWAP3 DUP4 SWAP3 SWAP1 SWAP2 DUP3 SWAP2 DUP3 SWAP2 DUP3 SWAP2 DUP3 SWAP2 DUP3 SWAP2 SWAP1 PUSH1 0xFF AND PUSH2 0x1777 JUMPI PUSH1 0x40 MLOAD PUSH3 0x461BCD PUSH1 0xE5 SHL DUP2 MSTORE PUSH1 0x4 ADD PUSH2 0x8BB SWAP1 PUSH2 0x23DD JUMP JUMPDEST PUSH1 0x2 DUP2 ADD SLOAD PUSH1 0x3 DUP3 ADD SLOAD PUSH1 0x5 DUP4 ADD SLOAD DUP4 SLOAD DUP5 SWAP4 PUSH1 0x1 DUP6 ADD SWAP4 PUSH1 0xFF DUP1 DUP4 AND SWAP5 PUSH2 0x100 DUP1 DUP6 DIV DUP4 AND SWAP6 PUSH3 0x10000 SWAP1 SWAP6 DIV DUP4 AND SWAP5 SWAP1 DUP3 DIV DUP4 AND SWAP3 PUSH1 0x1 PUSH1 0x20 SHL SWAP1 SWAP3 DIV SWAP1 SWAP2 AND SWAP1 DUP9 SWAP1 PUSH2 0x17C5 SWAP1 PUSH2 0x20EE JUMP JUMPDEST DUP1 PUSH1 0x1F ADD PUSH1 0x20 DUP1 SWAP2 DIV MUL PUSH1 0x20 ADD PUSH1 0x40 MLOAD SWAP1 DUP2 ADD PUSH1 0x40 MSTORE DUP1 SWAP3 SWAP2 SWAP1 DUP2 DUP2 MSTORE PUSH1 0x20 ADD DUP3 DUP1 SLOAD PUSH2 0x17F1 SWAP1 PUSH2 0x20EE JUMP JUMPDEST DUP1 ISZERO PUSH2 0x183E JUMPI DUP1 PUSH1 0x1F LT PUSH2 0x1813 JUMPI PUSH2 0x100 DUP1 DUP4 SLOAD DIV MUL DUP4 MSTORE SWAP2 PUSH1 0x20 ADD SWAP2 PUSH2 0x183E JUMP JUMPDEST DUP3 ADD SWAP2 SWAP1 PUSH1 0x0 MSTORE PUSH1 0x20 PUSH1 0x0 KECCAK256 SWAP1 JUMPDEST DUP2 SLOAD DUP2 MSTORE SWAP1 PUSH1 0x1 ADD SWAP1 PUSH1 0x20 ADD DUP1 DUP4 GT PUSH2 0x1821 JUMPI DUP3 SWAP1 SUB PUSH1 0x1F AND DUP3 ADD SWAP2 JUMPDEST POP POP POP POP POP SWAP8 POP DUP7 DUP1 SLOAD PUSH2 0x1851 SWAP1 PUSH2 0x20EE JUMP JUMPDEST DUP1 PUSH1 0x1F ADD PUSH1 0x20 DUP1 SWAP2 DIV MUL PUSH1 0x20 ADD PUSH1 0x40 MLOAD SWAP1 DUP2 ADD PUSH1 0x40 MSTORE DUP1 SWAP3 SWAP2 SWAP1 DUP2 DUP2 MSTORE PUSH1 0x20 ADD DUP3 DUP1 SLOAD PUSH2 0x187D SWAP1 PUSH2 0x20EE JUMP JUMPDEST DUP1 ISZERO PUSH2 0x18CA JUMPI DUP1 PUSH1 0x1F LT PUSH2 0x189F JUMPI PUSH2 0x100 DUP1 DUP4 SLOAD DIV MUL DUP4 MSTORE SWAP2 PUSH1 0x20 ADD SWAP2 PUSH2 0x18CA JUMP JUMPDEST DUP3 ADD SWAP2 SWAP1 PUSH1 0x0 MSTORE PUSH1 0x20 PUSH1 0x0 KECCAK256 SWAP1 JUMPDEST DUP2 SLOAD DUP2 MSTORE SWAP1 PUSH1 0x1 ADD SWAP1 PUSH1 0x20 ADD DUP1 DUP4 GT PUSH2 0x18AD JUMPI DUP3 SWAP1 SUB PUSH1 0x1F AND DUP3 ADD SWAP2 JUMPDEST POP POP POP POP POP SWAP7 POP SWAP9 POP SWAP9 POP SWAP9 POP SWAP9 POP SWAP9 POP SWAP9 POP SWAP9 POP SWAP9 POP POP SWAP2 SWAP4 SWAP6 SWAP8 POP SWAP2 SWAP4 SWAP6 SWAP8 JUMP JUMPDEST PUSH1 0x0 DUP3 DUP2 MSTORE PUSH1 0x5 PUSH1 0x20 SWAP1 DUP2 MSTORE PUSH1 0x40 DUP1 DUP4 KECCAK256 PUSH1 0x1 PUSH1 0x1 PUSH1 0xA0 SHL SUB DUP6 AND DUP5 MSTORE SWAP1 SWAP2 MSTORE SWAP1 KECCAK256 SLOAD ISZERO ISZERO JUMPDEST SWAP3 SWAP2 POP POP JUMP JUMPDEST PUSH1 0x0 DUP3 DUP2 MSTORE PUSH1 0x5 PUSH1 0x20 SWAP1 DUP2 MSTORE PUSH1 0x40 DUP1 DUP4 KECCAK256 PUSH1 0x1 PUSH1 0x1 PUSH1 0xA0 SHL SUB DUP6 AND DUP5 MSTORE SWAP1 SWAP2 MSTORE DUP2 KECCAK256 SLOAD DUP2 SWAP1 DUP2 SWAP1 DUP1 PUSH2 0x197C JUMPI PUSH1 0x40 MLOAD PUSH3 0x461BCD PUSH1 0xE5 SHL DUP2 MSTORE PUSH1 0x20 PUSH1 0x4 DUP3 ADD MSTORE PUSH1 0xC PUSH1 0x24 DUP3 ADD MSTORE PUSH12 0x139BC818995D08199BDD5B99 PUSH1 0xA2 SHL PUSH1 0x44 DUP3 ADD MSTORE PUSH1 0x64 ADD PUSH2 0x8BB JUMP JUMPDEST PUSH1 0x0 DUP7 DUP2 MSTORE PUSH1 0x4 PUSH1 0x20 MSTORE PUSH1 0x40 DUP2 KECCAK256 PUSH2 0x1995 PUSH1 0x1 DUP5 PUSH2 0x2414 JUMP JUMPDEST DUP2 SLOAD DUP2 LT PUSH2 0x19A5 JUMPI PUSH2 0x19A5 PUSH2 0x2427 JUMP JUMPDEST PUSH1 0x0 SWAP2 DUP3 MSTORE PUSH1 0x20 SWAP1 SWAP2 KECCAK256 PUSH1 0x4 SWAP1 SWAP2 MUL ADD PUSH1 0x1 DUP2 ADD SLOAD PUSH1 0x2 DUP3 ADD SLOAD PUSH1 0x3 SWAP1 SWAP3 ADD SLOAD SWAP1 SWAP10 SWAP2 SWAP9 POP PUSH1 0xFF AND SWAP7 POP SWAP5 POP POP POP POP POP JUMP JUMPDEST PUSH1 0x0 SLOAD PUSH1 0x1 PUSH1 0x1 PUSH1 0xA0 SHL SUB AND CALLER EQ DUP1 PUSH2 0x19FA JUMPI POP PUSH1 0x2 SLOAD PUSH1 0x1 PUSH1 0x1 PUSH1 0xA0 SHL SUB AND CALLER EQ JUMPDEST PUSH2 0x1A16 JUMPI PUSH1 0x40 MLOAD PUSH3 0x461BCD PUSH1 0xE5 SHL DUP2 MSTORE PUSH1 0x4 ADD PUSH2 0x8BB SWAP1 PUSH2 0x21EE JUMP JUMPDEST PUSH2 0x1A1E PUSH2 0x1D16 JUMP JUMPDEST PUSH1 0x0 DUP4 DUP2 MSTORE PUSH1 0x3 PUSH1 0x20 MSTORE PUSH1 0x40 SWAP1 KECCAK256 PUSH1 0x5 DUP2 ADD SLOAD PUSH1 0xFF AND PUSH2 0x1A50 JUMPI PUSH1 0x40 MLOAD PUSH3 0x461BCD PUSH1 0xE5 SHL DUP2 MSTORE PUSH1 0x4 ADD PUSH2 0x8BB SWAP1 PUSH2 0x23DD JUMP JUMPDEST PUSH1 0x5 DUP2 ADD SLOAD PUSH2 0x100 SWAP1 DIV PUSH1 0xFF AND ISZERO PUSH2 0x1AA2 JUMPI PUSH1 0x40 MLOAD PUSH3 0x461BCD PUSH1 0xE5 SHL DUP2 MSTORE PUSH1 0x20 PUSH1 0x4 DUP3 ADD MSTORE PUSH1 0x15 PUSH1 0x24 DUP3 ADD MSTORE PUSH21 0x13585D18DA08185B1C9958591E481CD95D1D1B1959 PUSH1 0x5A SHL PUSH1 0x44 DUP3 ADD MSTORE PUSH1 0x64 ADD PUSH2 0x8BB JUMP JUMPDEST DUP1 PUSH1 0x3 ADD SLOAD TIMESTAMP GT PUSH2 0x1AE9 JUMPI PUSH1 0x40 MLOAD PUSH3 0x461BCD PUSH1 0xE5 SHL DUP2 MSTORE PUSH1 0x20 PUSH1 0x4 DUP3 ADD MSTORE PUSH1 0x11 PUSH1 0x24 DUP3 ADD MSTORE PUSH17 0x13585D18DA081B9BDD081CDD185C9D1959 PUSH1 0x7A SHL PUSH1 0x44 DUP3 ADD MSTORE PUSH1 0x64 ADD PUSH2 0x8BB JUMP JUMPDEST PUSH1 0x5 DUP2 ADD DUP1 SLOAD PUSH2 0x100 PUSH4 0xFFFF0000 NOT SWAP1 SWAP2 AND PUSH3 0x10000 PUSH1 0xFF DUP8 DUP2 AND SWAP2 DUP3 MUL PUSH4 0xFF000000 NOT AND SWAP3 SWAP1 SWAP3 OR PUSH4 0x1000000 DUP8 DUP5 AND MUL OR PUSH2 0xFF00 NOT AND SWAP3 SWAP1 SWAP3 OR SWAP1 SWAP3 SSTORE PUSH1 0x2 DUP4 ADD SLOAD SWAP1 SWAP2 AND EQ DUP1 ISZERO PUSH2 0x1B4B JUMPI POP PUSH1 0x2 DUP2 ADD SLOAD PUSH1 0xFF DUP4 DUP2 AND PUSH2 0x100 SWAP1 SWAP3 DIV AND EQ JUMPDEST PUSH1 0x5 DUP3 ADD DUP1 SLOAD PUSH5 0xFF00000000 NOT AND PUSH1 0x1 PUSH1 0x20 SHL SWAP3 ISZERO ISZERO DUP4 MUL OR SWAP1 DUP2 SWAP1 SSTORE PUSH1 0xFF SWAP2 SWAP1 DIV AND ISZERO PUSH2 0x1B89 JUMPI PUSH1 0xC DUP1 SLOAD SWAP1 PUSH1 0x0 PUSH2 0x1B83 DUP4 PUSH2 0x21D5 JUMP JUMPDEST SWAP2 SWAP1 POP SSTORE POP JUMPDEST PUSH1 0x5 DUP2 ADD SLOAD PUSH1 0x0 SWAP1 PUSH1 0x1 PUSH1 0x20 SHL SWAP1 DIV PUSH1 0xFF AND PUSH2 0x1BA6 JUMPI PUSH1 0x0 PUSH2 0x1BB6 JUMP JUMPDEST PUSH1 0x0 DUP6 DUP2 MSTORE PUSH1 0x4 PUSH1 0x20 MSTORE PUSH1 0x40 SWAP1 KECCAK256 SLOAD JUMPDEST PUSH1 0x0 DUP7 DUP2 MSTORE PUSH1 0x7 PUSH1 0x20 MSTORE PUSH1 0x40 DUP2 KECCAK256 DUP3 SWAP1 SSTORE SWAP1 SWAP2 POP DUP2 ISZERO DUP1 ISZERO SWAP1 PUSH2 0x1BDF JUMPI POP PUSH4 0x5F5E100 PUSH1 0xF SLOAD LT ISZERO JUMPDEST ISZERO PUSH2 0x1BF5 JUMPI PUSH2 0x1BF2 DUP3 PUSH4 0x5F5E100 PUSH2 0x2155 JUMP JUMPDEST SWAP1 POP JUMPDEST PUSH1 0x5 DUP4 ADD SLOAD PUSH1 0x0 DUP8 DUP2 MSTORE PUSH1 0x6 PUSH1 0x20 SWAP1 DUP2 MSTORE PUSH1 0x40 SWAP2 DUP3 SWAP1 KECCAK256 SLOAD DUP3 MLOAD PUSH1 0xFF DUP11 DUP2 AND DUP3 MSTORE DUP10 DUP2 AND SWAP4 DUP3 ADD SWAP4 SWAP1 SWAP4 MSTORE PUSH1 0x1 PUSH1 0x20 SHL SWAP1 SWAP5 DIV SWAP1 SWAP2 AND ISZERO ISZERO DUP4 DUP4 ADD MSTORE PUSH1 0x60 DUP4 ADD MSTORE PUSH1 0x80 DUP3 ADD DUP5 SWAP1 MSTORE PUSH1 0xA0 DUP3 ADD DUP4 SWAP1 MSTORE MLOAD DUP8 SWAP2 PUSH32 0x9D55C5EEAAEE092435B0370A5918E9CA27599F05E94F6AE8EBB469B83E22912A SWAP2 SWAP1 DUP2 SWAP1 SUB PUSH1 0xC0 ADD SWAP1 LOG2 POP POP POP PUSH2 0x1C7E PUSH1 0x1 DUP1 SSTORE JUMP JUMPDEST POP POP POP JUMP JUMPDEST PUSH1 0x0 DUP2 DUP2 MSTORE PUSH1 0x3 PUSH1 0x20 MSTORE PUSH1 0x40 DUP2 KECCAK256 PUSH1 0x5 DUP2 ADD SLOAD DUP3 SWAP2 DUP3 SWAP2 PUSH1 0xFF AND PUSH2 0x1CB9 JUMPI PUSH1 0x40 MLOAD PUSH3 0x461BCD PUSH1 0xE5 SHL DUP2 MSTORE PUSH1 0x4 ADD PUSH2 0x8BB SWAP1 PUSH2 0x23DD JUMP JUMPDEST PUSH1 0x2 ADD SLOAD PUSH1 0xFF DUP1 DUP3 AND SWAP7 PUSH2 0x100 DUP4 DIV DUP3 AND SWAP7 POP PUSH3 0x10000 SWAP1 SWAP3 DIV AND SWAP4 POP SWAP2 POP POP JUMP JUMPDEST PUSH2 0x1CE3 PUSH2 0x1D40 JUMP JUMPDEST PUSH1 0x1 PUSH1 0x1 PUSH1 0xA0 SHL SUB DUP2 AND PUSH2 0x1D0D JUMPI PUSH1 0x40 MLOAD PUSH4 0x1E4FBDF7 PUSH1 0xE0 SHL DUP2 MSTORE PUSH1 0x0 PUSH1 0x4 DUP3 ADD MSTORE PUSH1 0x24 ADD PUSH2 0x8BB JUMP JUMPDEST PUSH2 0x11DD DUP2 PUSH2 0x1D6D JUMP JUMPDEST PUSH1 0x2 PUSH1 0x1 SLOAD SUB PUSH2 0x1D39 JUMPI PUSH1 0x40 MLOAD PUSH4 0x3EE5AEB5 PUSH1 0xE0 SHL DUP2 MSTORE PUSH1 0x4 ADD PUSH1 0x40 MLOAD DUP1 SWAP2 SUB SWAP1 REVERT JUMPDEST PUSH1 0x2 PUSH1 0x1 SSTORE JUMP JUMPDEST PUSH1 0x0 SLOAD PUSH1 0x1 PUSH1 0x1 PUSH1 0xA0 SHL SUB AND CALLER EQ PUSH2 0x1688 JUMPI PUSH1 0x40 MLOAD PUSH4 0x118CDAA7 PUSH1 0xE0 SHL DUP2 MSTORE CALLER PUSH1 0x4 DUP3 ADD MSTORE PUSH1 0x24 ADD PUSH2 0x8BB JUMP JUMPDEST PUSH1 0x0 DUP1 SLOAD PUSH1 0x1 PUSH1 0x1 PUSH1 0xA0 SHL SUB DUP4 DUP2 AND PUSH1 0x1 PUSH1 0x1 PUSH1 0xA0 SHL SUB NOT DUP4 AND DUP2 OR DUP5 SSTORE PUSH1 0x40 MLOAD SWAP2 SWAP1 SWAP3 AND SWAP3 DUP4 SWAP2 PUSH32 0x8BE0079C531659141344CD1FD0A4F28419497F9722A3DAAFE3B4186F6B6457E0 SWAP2 SWAP1 LOG3 POP POP JUMP JUMPDEST PUSH1 0x0 PUSH1 0x20 DUP3 DUP5 SUB SLT ISZERO PUSH2 0x1DCF JUMPI PUSH1 0x0 DUP1 REVERT JUMPDEST POP CALLDATALOAD SWAP2 SWAP1 POP JUMP JUMPDEST PUSH1 0x0 DUP2 MLOAD DUP1 DUP5 MSTORE PUSH1 0x0 JUMPDEST DUP2 DUP2 LT ISZERO PUSH2 0x1DFC JUMPI PUSH1 0x20 DUP2 DUP6 ADD DUP2 ADD MLOAD DUP7 DUP4 ADD DUP3 ADD MSTORE ADD PUSH2 0x1DE0 JUMP JUMPDEST POP PUSH1 0x0 PUSH1 0x20 DUP3 DUP7 ADD ADD MSTORE PUSH1 0x20 PUSH1 0x1F NOT PUSH1 0x1F DUP4 ADD AND DUP6 ADD ADD SWAP2 POP POP SWAP3 SWAP2 POP POP JUMP JUMPDEST PUSH2 0x180 DUP2 MSTORE PUSH1 0x0 PUSH2 0x1E31 PUSH2 0x180 DUP4 ADD DUP16 PUSH2 0x1DD6 JUMP JUMPDEST DUP3 DUP2 SUB PUSH1 0x20 DUP5 ADD MSTORE PUSH2 0x1E43 DUP2 DUP16 PUSH2 0x1DD6 JUMP JUMPDEST SWAP2 POP POP PUSH1 0xFF DUP13 AND PUSH1 0x40 DUP4 ADD MSTORE PUSH1 0xFF DUP12 AND PUSH1 0x60 DUP4 ADD MSTORE PUSH1 0xFF DUP11 AND PUSH1 0x80 DUP4 ADD MSTORE DUP9 PUSH1 0xA0 DUP4 ADD MSTORE DUP8 PUSH1 0xC0 DUP4 ADD MSTORE DUP7 ISZERO ISZERO PUSH1 0xE0 DUP4 ADD MSTORE DUP6 ISZERO ISZERO PUSH2 0x100 DUP4 ADD MSTORE PUSH2 0x1E8E PUSH2 0x120 DUP4 ADD DUP7 PUSH1 0xFF AND SWAP1 MSTORE JUMP JUMPDEST PUSH1 0xFF DUP5 AND PUSH2 0x140 DUP4 ADD MSTORE DUP3 ISZERO ISZERO PUSH2 0x160 DUP4 ADD MSTORE SWAP14 SWAP13 POP POP POP POP POP POP POP POP POP POP POP POP POP JUMP JUMPDEST DUP1 CALLDATALOAD PUSH1 0x1 PUSH1 0x1 PUSH1 0xA0 SHL SUB DUP2 AND DUP2 EQ PUSH2 0x1EC9 JUMPI PUSH1 0x0 DUP1 REVERT JUMPDEST SWAP2 SWAP1 POP JUMP JUMPDEST PUSH1 0x0 PUSH1 0x20 DUP3 DUP5 SUB SLT ISZERO PUSH2 0x1EE0 JUMPI PUSH1 0x0 DUP1 REVERT JUMPDEST PUSH2 0x1EE9 DUP3 PUSH2 0x1EB2 JUMP JUMPDEST SWAP4 SWAP3 POP POP POP JUMP JUMPDEST PUSH1 0x0 DUP1 PUSH1 0x40 DUP4 DUP6 SUB SLT ISZERO PUSH2 0x1F03 JUMPI PUSH1 0x0 DUP1 REVERT JUMPDEST DUP3 CALLDATALOAD SWAP2 POP PUSH2 0x1F13 PUSH1 0x20 DUP5 ADD PUSH2 0x1EB2 JUMP JUMPDEST SWAP1 POP SWAP3 POP SWAP3 SWAP1 POP JUMP JUMPDEST PUSH1 0x0 DUP1 PUSH1 0x40 DUP4 DUP6 SUB SLT ISZERO PUSH2 0x1F2F JUMPI PUSH1 0x0 DUP1 REVERT JUMPDEST POP POP DUP1 CALLDATALOAD SWAP3 PUSH1 0x20 SWAP1 SWAP2 ADD CALLDATALOAD SWAP2 POP JUMP JUMPDEST PUSH1 0x0 DUP1 DUP4 PUSH1 0x1F DUP5 ADD SLT PUSH2 0x1F50 JUMPI PUSH1 0x0 DUP1 REVERT JUMPDEST POP DUP2 CALLDATALOAD PUSH8 0xFFFFFFFFFFFFFFFF DUP2 GT ISZERO PUSH2 0x1F68 JUMPI PUSH1 0x0 DUP1 REVERT JUMPDEST PUSH1 0x20 DUP4 ADD SWAP2 POP DUP4 PUSH1 0x20 DUP3 DUP6 ADD ADD GT ISZERO PUSH2 0x1F80 JUMPI PUSH1 0x0 DUP1 REVERT JUMPDEST SWAP3 POP SWAP3 SWAP1 POP JUMP JUMPDEST DUP1 CALLDATALOAD PUSH1 0xFF DUP2 AND DUP2 EQ PUSH2 0x1EC9 JUMPI PUSH1 0x0 DUP1 REVERT JUMPDEST PUSH1 0x0 DUP1 PUSH1 0x0 DUP1 PUSH1 0x0 DUP1 PUSH1 0x0 DUP1 PUSH1 0x0 PUSH1 0xE0 DUP11 DUP13 SUB SLT ISZERO PUSH2 0x1FB6 JUMPI PUSH1 0x0 DUP1 REVERT JUMPDEST DUP10 CALLDATALOAD SWAP9 POP PUSH1 0x20 DUP11 ADD CALLDATALOAD PUSH8 0xFFFFFFFFFFFFFFFF DUP1 DUP3 GT ISZERO PUSH2 0x1FD5 JUMPI PUSH1 0x0 DUP1 REVERT JUMPDEST PUSH2 0x1FE1 DUP14 DUP4 DUP15 ADD PUSH2 0x1F3E JUMP JUMPDEST SWAP1 SWAP11 POP SWAP9 POP PUSH1 0x40 DUP13 ADD CALLDATALOAD SWAP2 POP DUP1 DUP3 GT ISZERO PUSH2 0x1FFA JUMPI PUSH1 0x0 DUP1 REVERT JUMPDEST POP PUSH2 0x2007 DUP13 DUP3 DUP14 ADD PUSH2 0x1F3E JUMP JUMPDEST SWAP1 SWAP8 POP SWAP6 POP PUSH2 0x201A SWAP1 POP PUSH1 0x60 DUP12 ADD PUSH2 0x1F87 JUMP JUMPDEST SWAP4 POP PUSH2 0x2028 PUSH1 0x80 DUP12 ADD PUSH2 0x1F87 JUMP JUMPDEST SWAP3 POP PUSH2 0x2036 PUSH1 0xA0 DUP12 ADD PUSH2 0x1F87 JUMP JUMPDEST SWAP2 POP PUSH1 0xC0 DUP11 ADD CALLDATALOAD SWAP1 POP SWAP3 SWAP6 SWAP9 POP SWAP3 SWAP6 SWAP9 POP SWAP3 SWAP6 SWAP9 JUMP JUMPDEST PUSH1 0x0 PUSH2 0x100 DUP1 DUP4 MSTORE PUSH2 0x2060 DUP2 DUP5 ADD DUP13 PUSH2 0x1DD6 JUMP JUMPDEST SWAP1 POP DUP3 DUP2 SUB PUSH1 0x20 DUP5 ADD MSTORE PUSH2 0x2074 DUP2 DUP12 PUSH2 0x1DD6 JUMP JUMPDEST PUSH1 0xFF SWAP10 DUP11 AND PUSH1 0x40 DUP6 ADD MSTORE SWAP8 DUP10 AND PUSH1 0x60 DUP5 ADD MSTORE POP POP SWAP4 SWAP1 SWAP6 AND PUSH1 0x80 DUP5 ADD MSTORE PUSH1 0xA0 DUP4 ADD SWAP2 SWAP1 SWAP2 MSTORE ISZERO ISZERO PUSH1 0xC0 DUP3 ADD MSTORE SWAP2 ISZERO ISZERO PUSH1 0xE0 SWAP1 SWAP3 ADD SWAP2 SWAP1 SWAP2 MSTORE SWAP3 SWAP2 POP POP JUMP JUMPDEST PUSH1 0x0 DUP1 PUSH1 0x0 PUSH1 0x60 DUP5 DUP7 SUB SLT ISZERO PUSH2 0x20C7 JUMPI PUSH1 0x0 DUP1 REVERT JUMPDEST DUP4 CALLDATALOAD SWAP3 POP PUSH2 0x20D7 PUSH1 0x20 DUP6 ADD PUSH2 0x1F87 JUMP JUMPDEST SWAP2 POP PUSH2 0x20E5 PUSH1 0x40 DUP6 ADD PUSH2 0x1F87 JUMP JUMPDEST SWAP1 POP SWAP3 POP SWAP3 POP SWAP3 JUMP JUMPDEST PUSH1 0x1 DUP2 DUP2 SHR SWAP1 DUP3 AND DUP1 PUSH2 0x2102 JUMPI PUSH1 0x7F DUP3 AND SWAP2 POP JUMPDEST PUSH1 0x20 DUP3 LT DUP2 SUB PUSH2 0x2122 JUMPI PUSH4 0x4E487B71 PUSH1 0xE0 SHL PUSH1 0x0 MSTORE PUSH1 0x22 PUSH1 0x4 MSTORE PUSH1 0x24 PUSH1 0x0 REVERT JUMPDEST POP SWAP2 SWAP1 POP JUMP JUMPDEST PUSH4 0x4E487B71 PUSH1 0xE0 SHL PUSH1 0x0 MSTORE PUSH1 0x11 PUSH1 0x4 MSTORE PUSH1 0x24 PUSH1 0x0 REVERT JUMPDEST DUP1 DUP3 MUL DUP2 ISZERO DUP3 DUP3 DIV DUP5 EQ OR PUSH2 0x1913 JUMPI PUSH2 0x1913 PUSH2 0x2128 JUMP JUMPDEST PUSH1 0x0 DUP3 PUSH2 0x2172 JUMPI PUSH4 0x4E487B71 PUSH1 0xE0 SHL PUSH1 0x0 MSTORE PUSH1 0x12 PUSH1 0x4 MSTORE PUSH1 0x24 PUSH1 0x0 REVERT JUMPDEST POP DIV SWAP1 JUMP JUMPDEST PUSH1 0x0 PUSH1 0x20 DUP3 DUP5 SUB SLT ISZERO PUSH2 0x2189 JUMPI PUSH1 0x0 DUP1 REVERT JUMPDEST DUP2 MLOAD DUP1 ISZERO ISZERO DUP2 EQ PUSH2 0x1EE9 JUMPI PUSH1 0x0 DUP1 REVERT JUMPDEST PUSH1 0x20 DUP1 DUP3 MSTORE PUSH1 0xF SWAP1 DUP3 ADD MSTORE PUSH15 0x151C985B9CD9995C8819985A5B1959 PUSH1 0x8A SHL PUSH1 0x40 DUP3 ADD MSTORE PUSH1 0x60 ADD SWAP1 JUMP JUMPDEST DUP1 DUP3 ADD DUP1 DUP3 GT ISZERO PUSH2 0x1913 JUMPI PUSH2 0x1913 PUSH2 0x2128 JUMP JUMPDEST PUSH1 0x0 PUSH1 0x1 DUP3 ADD PUSH2 0x21E7 JUMPI PUSH2 0x21E7 PUSH2 0x2128 JUMP JUMPDEST POP PUSH1 0x1 ADD SWAP1 JUMP JUMPDEST PUSH1 0x20 DUP1 DUP3 MSTORE PUSH1 0x2F SWAP1 DUP3 ADD MSTORE PUSH32 0x50726564696374696F6E4D61726B65743A2063616C6C6572206973206E6F7420 PUSH1 0x40 DUP3 ADD MSTORE PUSH15 0x6F776E6572206F72206F7261636C65 PUSH1 0x88 SHL PUSH1 0x60 DUP3 ADD MSTORE PUSH1 0x80 ADD SWAP1 JUMP JUMPDEST PUSH4 0x4E487B71 PUSH1 0xE0 SHL PUSH1 0x0 MSTORE PUSH1 0x41 PUSH1 0x4 MSTORE PUSH1 0x24 PUSH1 0x0 REVERT JUMPDEST PUSH1 0x1F DUP3 GT ISZERO PUSH2 0x1C7E JUMPI PUSH1 0x0 DUP2 DUP2 MSTORE PUSH1 0x20 DUP2 KECCAK256 PUSH1 0x1F DUP6 ADD PUSH1 0x5 SHR DUP2 ADD PUSH1 0x20 DUP7 LT ISZERO PUSH2 0x227A JUMPI POP DUP1 JUMPDEST PUSH1 0x1F DUP6 ADD PUSH1 0x5 SHR DUP3 ADD SWAP2 POP JUMPDEST DUP2 DUP2 LT ISZERO PUSH2 0x2299 JUMPI DUP3 DUP2 SSTORE PUSH1 0x1 ADD PUSH2 0x2286 JUMP JUMPDEST POP POP POP POP POP POP JUMP JUMPDEST DUP2 MLOAD PUSH8 0xFFFFFFFFFFFFFFFF DUP2 GT ISZERO PUSH2 0x22BB JUMPI PUSH2 0x22BB PUSH2 0x223D JUMP JUMPDEST PUSH2 0x22CF DUP2 PUSH2 0x22C9 DUP5 SLOAD PUSH2 0x20EE JUMP JUMPDEST DUP5 PUSH2 0x2253 JUMP JUMPDEST PUSH1 0x20 DUP1 PUSH1 0x1F DUP4 GT PUSH1 0x1 DUP2 EQ PUSH2 0x2304 JUMPI PUSH1 0x0 DUP5 ISZERO PUSH2 0x22EC JUMPI POP DUP6 DUP4 ADD MLOAD JUMPDEST PUSH1 0x0 NOT PUSH1 0x3 DUP7 SWAP1 SHL SHR NOT AND PUSH1 0x1 DUP6 SWAP1 SHL OR DUP6 SSTORE PUSH2 0x2299 JUMP JUMPDEST PUSH1 0x0 DUP6 DUP2 MSTORE PUSH1 0x20 DUP2 KECCAK256 PUSH1 0x1F NOT DUP7 AND SWAP2 JUMPDEST DUP3 DUP2 LT ISZERO PUSH2 0x2333 JUMPI DUP9 DUP7 ADD MLOAD DUP3 SSTORE SWAP5 DUP5 ADD SWAP5 PUSH1 0x1 SWAP1 SWAP2 ADD SWAP1 DUP5 ADD PUSH2 0x2314 JUMP JUMPDEST POP DUP6 DUP3 LT ISZERO PUSH2 0x2351 JUMPI DUP8 DUP6 ADD MLOAD PUSH1 0x0 NOT PUSH1 0x3 DUP9 SWAP1 SHL PUSH1 0xF8 AND SHR NOT AND DUP2 SSTORE JUMPDEST POP POP POP POP POP PUSH1 0x1 SWAP1 DUP2 SHL ADD SWAP1 SSTORE POP JUMP JUMPDEST DUP2 DUP4 MSTORE DUP2 DUP2 PUSH1 0x20 DUP6 ADD CALLDATACOPY POP PUSH1 0x0 DUP3 DUP3 ADD PUSH1 0x20 SWAP1 DUP2 ADD SWAP2 SWAP1 SWAP2 MSTORE PUSH1 0x1F SWAP1 SWAP2 ADD PUSH1 0x1F NOT AND SWAP1 SWAP2 ADD ADD SWAP1 JUMP JUMPDEST PUSH1 0xC0 DUP2 MSTORE PUSH1 0x0 PUSH2 0x239E PUSH1 0xC0 DUP4 ADD DUP11 DUP13 PUSH2 0x2361 JUMP JUMPDEST DUP3 DUP2 SUB PUSH1 0x20 DUP5 ADD MSTORE PUSH2 0x23B1 DUP2 DUP10 DUP12 PUSH2 0x2361 JUMP JUMPDEST PUSH1 0xFF SWAP8 DUP9 AND PUSH1 0x40 DUP6 ADD MSTORE SWAP6 DUP8 AND PUSH1 0x60 DUP5 ADD MSTORE POP POP SWAP2 SWAP1 SWAP4 AND PUSH1 0x80 DUP3 ADD MSTORE PUSH1 0xA0 ADD SWAP2 SWAP1 SWAP2 MSTORE SWAP5 SWAP4 POP POP POP POP JUMP JUMPDEST PUSH1 0x20 DUP1 DUP3 MSTORE PUSH1 0x19 SWAP1 DUP3 ADD MSTORE PUSH32 0x50726564696374696F6E20646F6573206E6F7420657869737400000000000000 PUSH1 0x40 DUP3 ADD MSTORE PUSH1 0x60 ADD SWAP1 JUMP JUMPDEST DUP2 DUP2 SUB DUP2 DUP2 GT ISZERO PUSH2 0x1913 JUMPI PUSH2 0x1913 PUSH2 0x2128 JUMP JUMPDEST PUSH4 0x4E487B71 PUSH1 0xE0 SHL PUSH1 0x0 MSTORE PUSH1 0x32 PUSH1 0x4 MSTORE PUSH1 0x24 PUSH1 0x0 REVERT INVALID LOG2 PUSH5 0x6970667358 0x22 SLT KECCAK256 0xC8 CALLER 0xF7 SMOD SIGNEXTEND MLOAD NUMBER 0x2A 0x2A ADDRESS LOG3 0xE3 PUSH13 0xB1B6FF170FC07AB27D2DC3AE4C NUMBER SWAP4 SDIV PUSH16 0xD4C364736F6C63430008140033000000 "},"methodIdentifiers":{"BONUS_AMOUNT()":"74863d90","MAX_BET()":"7e95b523","MIN_BET()":"6540742f","bonusPool()":"2693ee80","chainlinkOracleAddress()":"fe21f306","claimWinnings(uint256)":"677bd9ff","emergencyWithdraw(uint256)":"5312ea8e","fundBonusPool(uint256)":"4b7aeb21","getAIPrediction(uint256)":"e500d8d2","getMatchStats(uint256)":"c09ffdb7","getPlatformStats()":"136d8883","getPredictionDetails(uint256)":"8f888338","getUserBet(uint256,address)":"c03fb87c","getUserStats(address)":"4e43603a","hasBet(uint256,address)":"ae062acd","matchBets(uint256,uint256)":"34dddef9","matchPool(uint256)":"1db9ec80","owner()":"8da5cb5b","placeBet(uint256,uint256)":"4afe62b5","predictions(uint256)":"004fbbb0","renounceOwnership()":"715018a6","setChainlinkOracle(address)":"7a9b0412","settleMatch(uint256,uint8,uint8)":"de4b0edb","submitAIPrediction(uint256,string,string,uint8,uint8,uint8,uint256)":"4b30e26a","totalBonusesPaid()":"3c5ea4c0","totalMatchesCorrect()":"dc2ef7f1","totalMatchesPredicted()":"4bbcde29","totalVolumeTraded()":"5adc19c7","transferOwnership(address)":"f2fde38b","usdc()":"3e413bee","userBetIndex(uint256,address)":"2b5bf9a3","userCorrectPredictions(address)":"eb1bb72a","userTotalBets(address)":"7b6e1f9a","userTotalWinnings(address)":"08857442","winnersCount(uint256)":"6c2aa793"}}}}}