{
  "_format": "hh-sol-artifact-1",
  "contractName": "PredictionMarket",
  "sourceName": "contracts/PredictionMarket.sol",
  "abi": [
    {
      "inputs": [
        {
          "internalType": "address",
          "name": "_usdc",
          "type": "address"
        }
      ],
      "stateMutability": "nonpayable",
      "type": "constructor"
    },
    {
      "inputs": [
        {
          "internalType": "address",
          "name": "owner",
          "type": "address"
        }
      ],
      "name": "OwnableInvalidOwner",
      "type": "error"
    },
    {
      "inputs": [
        {
          "internalType": "address",
          "name": "account",
          "type": "address"
        }
      ],
      "name": "OwnableUnauthorizedAccount",
      "type": "error"
    },
    {
      "inputs": [],
      "name": "ReentrancyGuardReentrantCall",
      "type": "error"
    },
    {
      "anonymous": false,
      "inputs": [
        {
          "indexed": true,
          "internalType": "uint256",
          "name": "matchId",
          "type": "uint256"
        },
        {
          "indexed": false,
          "internalType": "string",
          "name": "homeTeam",
          "type": "string"
        },
        {
          "indexed": false,
          "internalType": "string",
          "name": "awayTeam",
          "type": "string"
        },
        {
          "indexed": false,
          "internalType": "uint8",
          "name": "predictedHomeScore",
          "type": "uint8"
        },
        {
          "indexed": false,
          "internalType": "uint8",
          "name": "predictedAwayScore",
          "type": "uint8"
        },
        {
          "indexed": false,
          "internalType": "uint8",
          "name": "confidence",
          "type": "uint8"
        },
        {
          "indexed": false,
          "internalType": "uint256",
          "name": "matchStartTime",
          "type": "uint256"
        }
      ],
      "name": "AIPredictionSubmitted",
      "type": "event"
    },
    {
      "anonymous": false,
      "inputs": [
        {
          "indexed": true,
          "internalType": "uint256",
          "name": "matchId",
          "type": "uint256"
        },
        {
          "indexed": true,
          "internalType": "address",
          "name": "user",
          "type": "address"
        },
        {
          "indexed": false,
          "internalType": "uint256",
          "name": "amount",
          "type": "uint256"
        },
        {
          "indexed": false,
          "internalType": "uint256",
          "name": "timestamp",
          "type": "uint256"
        }
      ],
      "name": "BetPlaced",
      "type": "event"
    },
    {
      "anonymous": false,
      "inputs": [
        {
          "indexed": true,
          "internalType": "address",
          "name": "funder",
          "type": "address"
        },
        {
          "indexed": false,
          "internalType": "uint256",
          "name": "amount",
          "type": "uint256"
        }
      ],
      "name": "BonusPoolFunded",
      "type": "event"
    },
    {
      "anonymous": false,
      "inputs": [
        {
          "indexed": true,
          "internalType": "uint256",
          "name": "matchId",
          "type": "uint256"
        },
        {
          "indexed": false,
          "internalType": "uint8",
          "name": "actualHomeScore",
          "type": "uint8"
        },
        {
          "indexed": false,
          "internalType": "uint8",
          "name": "actualAwayScore",
          "type": "uint8"
        },
        {
          "indexed": false,
          "internalType": "bool",
          "name": "aiWasCorrect",
          "type": "bool"
        },
        {
          "indexed": false,
          "internalType": "uint256",
          "name": "totalPool",
          "type": "uint256"
        },
        {
          "indexed": false,
          "internalType": "uint256",
          "name": "winnersCount",
          "type": "uint256"
        },
        {
          "indexed": false,
          "internalType": "uint256",
          "name": "bonusPerWinner",
          "type": "uint256"
        }
      ],
      "name": "MatchSettled",
      "type": "event"
    },
    {
      "anonymous": false,
      "inputs": [
        {
          "indexed": true,
          "internalType": "address",
          "name": "oldOracle",
          "type": "address"
        },
        {
          "indexed": true,
          "internalType": "address",
          "name": "newOracle",
          "type": "address"
        }
      ],
      "name": "OracleAddressUpdated",
      "type": "event"
    },
    {
      "anonymous": false,
      "inputs": [
        {
          "indexed": true,
          "internalType": "address",
          "name": "previousOwner",
          "type": "address"
        },
        {
          "indexed": true,
          "internalType": "address",
          "name": "newOwner",
          "type": "address"
        }
      ],
      "name": "OwnershipTransferred",
      "type": "event"
    },
    {
      "anonymous": false,
      "inputs": [
        {
          "indexed": true,
          "internalType": "uint256",
          "name": "matchId",
          "type": "uint256"
        },
        {
          "indexed": true,
          "internalType": "address",
          "name": "user",
          "type": "address"
        },
        {
          "indexed": false,
          "internalType": "uint256",
          "name": "betAmount",
          "type": "uint256"
        },
        {
          "indexed": false,
          "internalType": "uint256",
          "name": "bonus",
          "type": "uint256"
        },
        {
          "indexed": false,
          "internalType": "uint256",
          "name": "total",
          "type": "uint256"
        }
      ],
      "name": "WinningsClaimed",
      "type": "event"
    },
    {
      "inputs": [],
      "name": "BONUS_AMOUNT",
      "outputs": [
        {
          "internalType": "uint256",
          "name": "",
          "type": "uint256"
        }
      ],
      "stateMutability": "view",
      "type": "function"
    },
    {
      "inputs": [],
      "name": "MAX_BET",
      "outputs": [
        {
          "internalType": "uint256",
          "name": "",
          "type": "uint256"
        }
      ],
      "stateMutability": "view",
      "type": "function"
    },
    {
      "inputs": [],
      "name": "MIN_BET",
      "outputs": [
        {
          "internalType": "uint256",
          "name": "",
          "type": "uint256"
        }
      ],
      "stateMutability": "view",
      "type": "function"
    },
    {
      "inputs": [],
      "name": "bonusPool",
      "outputs": [
        {
          "internalType": "uint256",
          "name": "",
          "type": "uint256"
        }
      ],
      "stateMutability": "view",
      "type": "function"
    },
    {
      "inputs": [],
      "name": "chainlinkOracleAddress",
      "outputs": [
        {
          "internalType": "address",
          "name": "",
          "type": "address"
        }
      ],
      "stateMutability": "view",
      "type": "function"
    },
    {
      "inputs": [
        {
          "internalType": "uint256",
          "name": "matchId",
          "type": "uint256"
        }
      ],
      "name": "claimWinnings",
      "outputs": [],
      "stateMutability": "nonpayable",
      "type": "function"
    },
    {
      "inputs": [
        {
          "internalType": "uint256",
          "name": "amount",
          "type": "uint256"
        }
      ],
      "name": "emergencyWithdraw",
      "outputs": [],
      "stateMutability": "nonpayable",
      "type": "function"
    },
    {
      "inputs": [
        {
          "internalType": "uint256",
          "name": "amount",
          "type": "uint256"
        }
      ],
      "name": "fundBonusPool",
      "outputs": [],
      "stateMutability": "nonpayable",
      "type": "function"
    },
    {
      "inputs": [
        {
          "internalType": "uint256",
          "name": "matchId",
          "type": "uint256"
        }
      ],
      "name": "getAIPrediction",
      "outputs": [
        {
          "internalType": "uint8",
          "name": "homeScore",
          "type": "uint8"
        },
        {
          "internalType": "uint8",
          "name": "awayScore",
          "type": "uint8"
        },
        {
          "internalType": "uint8",
          "name": "confidence",
          "type": "uint8"
        }
      ],
      "stateMutability": "view",
      "type": "function"
    },
    {
      "inputs": [
        {
          "internalType": "uint256",
          "name": "matchId",
          "type": "uint256"
        }
      ],
      "name": "getMatchStats",
      "outputs": [
        {
          "internalType": "uint256",
          "name": "totalPool",
          "type": "uint256"
        },
        {
          "internalType": "uint256",
          "name": "totalBets",
          "type": "uint256"
        },
        {
          "internalType": "uint256",
          "name": "winners",
          "type": "uint256"
        }
      ],
      "stateMutability": "view",
      "type": "function"
    },
    {
      "inputs": [],
      "name": "getPlatformStats",
      "outputs": [
        {
          "internalType": "uint256",
          "name": "matchesPredicted",
          "type": "uint256"
        },
        {
          "internalType": "uint256",
          "name": "matchesCorrect",
          "type": "uint256"
        },
        {
          "internalType": "uint256",
          "name": "volume",
          "type": "uint256"
        },
        {
          "internalType": "uint256",
          "name": "bonusesPaid",
          "type": "uint256"
        },
        {
          "internalType": "uint256",
          "name": "currentBonusPool",
          "type": "uint256"
        },
        {
          "internalType": "uint256",
          "name": "aiAccuracy",
          "type": "uint256"
        }
      ],
      "stateMutability": "view",
      "type": "function"
    },
    {
      "inputs": [
        {
          "internalType": "uint256",
          "name": "matchId",
          "type": "uint256"
        }
      ],
      "name": "getPredictionDetails",
      "outputs": [
        {
          "internalType": "string",
          "name": "homeTeam",
          "type": "string"
        },
        {
          "internalType": "string",
          "name": "awayTeam",
          "type": "string"
        },
        {
          "internalType": "uint8",
          "name": "predictedHomeScore",
          "type": "uint8"
        },
        {
          "internalType": "uint8",
          "name": "predictedAwayScore",
          "type": "uint8"
        },
        {
          "internalType": "uint8",
          "name": "confidence",
          "type": "uint8"
        },
        {
          "internalType": "uint256",
          "name": "matchStartTime",
          "type": "uint256"
        },
        {
          "internalType": "bool",
          "name": "settled",
          "type": "bool"
        },
        {
          "internalType": "bool",
          "name": "aiWasCorrect",
          "type": "bool"
        }
      ],
      "stateMutability": "view",
      "type": "function"
    },
    {
      "inputs": [
        {
          "internalType": "uint256",
          "name": "matchId",
          "type": "uint256"
        },
        {
          "internalType": "address",
          "name": "user",
          "type": "address"
        }
      ],
      "name": "getUserBet",
      "outputs": [
        {
          "internalType": "uint256",
          "name": "amount",
          "type": "uint256"
        },
        {
          "internalType": "uint256",
          "name": "timestamp",
          "type": "uint256"
        },
        {
          "internalType": "bool",
          "name": "claimed",
          "type": "bool"
        }
      ],
      "stateMutability": "view",
      "type": "function"
    },
    {
      "inputs": [
        {
          "internalType": "address",
          "name": "user",
          "type": "address"
        }
      ],
      "name": "getUserStats",
      "outputs": [
        {
          "internalType": "uint256",
          "name": "totalBets",
          "type": "uint256"
        },
        {
          "internalType": "uint256",
          "name": "totalWinnings",
          "type": "uint256"
        },
        {
          "internalType": "uint256",
          "name": "correctPredictions",
          "type": "uint256"
        }
      ],
      "stateMutability": "view",
      "type": "function"
    },
    {
      "inputs": [
        {
          "internalType": "uint256",
          "name": "matchId",
          "type": "uint256"
        },
        {
          "internalType": "address",
          "name": "user",
          "type": "address"
        }
      ],
      "name": "hasBet",
      "outputs": [
        {
          "internalType": "bool",
          "name": "",
          "type": "bool"
        }
      ],
      "stateMutability": "view",
      "type": "function"
    },
    {
      "inputs": [
        {
          "internalType": "uint256",
          "name": "",
          "type": "uint256"
        },
        {
          "internalType": "uint256",
          "name": "",
          "type": "uint256"
        }
      ],
      "name": "matchBets",
      "outputs": [
        {
          "internalType": "address",
          "name": "user",
          "type": "address"
        },
        {
          "internalType": "uint256",
          "name": "amount",
          "type": "uint256"
        },
        {
          "internalType": "uint256",
          "name": "timestamp",
          "type": "uint256"
        },
        {
          "internalType": "bool",
          "name": "claimed",
          "type": "bool"
        }
      ],
      "stateMutability": "view",
      "type": "function"
    },
    {
      "inputs": [
        {
          "internalType": "uint256",
          "name": "",
          "type": "uint256"
        }
      ],
      "name": "matchPool",
      "outputs": [
        {
          "internalType": "uint256",
          "name": "",
          "type": "uint256"
        }
      ],
      "stateMutability": "view",
      "type": "function"
    },
    {
      "inputs": [],
      "name": "owner",
      "outputs": [
        {
          "internalType": "address",
          "name": "",
          "type": "address"
        }
      ],
      "stateMutability": "view",
      "type": "function"
    },
    {
      "inputs": [
        {
          "internalType": "uint256",
          "name": "matchId",
          "type": "uint256"
        },
        {
          "internalType": "uint256",
          "name": "amount",
          "type": "uint256"
        }
      ],
      "name": "placeBet",
      "outputs": [],
      "stateMutability": "nonpayable",
      "type": "function"
    },
    {
      "inputs": [
        {
          "internalType": "uint256",
          "name": "",
          "type": "uint256"
        }
      ],
      "name": "predictions",
      "outputs": [
        {
          "internalType": "string",
          "name": "homeTeam",
          "type": "string"
        },
        {
          "internalType": "string",
          "name": "awayTeam",
          "type": "string"
        },
        {
          "internalType": "uint8",
          "name": "predictedHomeScore",
          "type": "uint8"
        },
        {
          "internalType": "uint8",
          "name": "predictedAwayScore",
          "type": "uint8"
        },
        {
          "internalType": "uint8",
          "name": "confidence",
          "type": "uint8"
        },
        {
          "internalType": "uint256",
          "name": "matchStartTime",
          "type": "uint256"
        },
        {
          "internalType": "uint256",
          "name": "predictionTimestamp",
          "type": "uint256"
        },
        {
          "internalType": "bool",
          "name": "exists",
          "type": "bool"
        },
        {
          "internalType": "bool",
          "name": "settled",
          "type": "bool"
        },
        {
          "internalType": "uint8",
          "name": "actualHomeScore",
          "type": "uint8"
        },
        {
          "internalType": "uint8",
          "name": "actualAwayScore",
          "type": "uint8"
        },
        {
          "internalType": "bool",
          "name": "aiWasCorrect",
          "type": "bool"
        }
      ],
      "stateMutability": "view",
      "type": "function"
    },
    {
      "inputs": [],
      "name": "renounceOwnership",
      "outputs": [],
      "stateMutability": "nonpayable",
      "type": "function"
    },
    {
      "inputs": [
        {
          "internalType": "address",
          "name": "_oracle",
          "type": "address"
        }
      ],
      "name": "setChainlinkOracle",
      "outputs": [],
      "stateMutability": "nonpayable",
      "type": "function"
    },
    {
      "inputs": [
        {
          "internalType": "uint256",
          "name": "matchId",
          "type": "uint256"
        },
        {
          "internalType": "uint8",
          "name": "actualHomeScore",
          "type": "uint8"
        },
        {
          "internalType": "uint8",
          "name": "actualAwayScore",
          "type": "uint8"
        }
      ],
      "name": "settleMatch",
      "outputs": [],
      "stateMutability": "nonpayable",
      "type": "function"
    },
    {
      "inputs": [
        {
          "internalType": "uint256",
          "name": "matchId",
          "type": "uint256"
        },
        {
          "internalType": "string",
          "name": "homeTeam",
          "type": "string"
        },
        {
          "internalType": "string",
          "name": "awayTeam",
          "type": "string"
        },
        {
          "internalType": "uint8",
          "name": "predictedHomeScore",
          "type": "uint8"
        },
        {
          "internalType": "uint8",
          "name": "predictedAwayScore",
          "type": "uint8"
        },
        {
          "internalType": "uint8",
          "name": "confidence",
          "type": "uint8"
        },
        {
          "internalType": "uint256",
          "name": "matchStartTime",
          "type": "uint256"
        }
      ],
      "name": "submitAIPrediction",
      "outputs": [],
      "stateMutability": "nonpayable",
      "type": "function"
    },
    {
      "inputs": [],
      "name": "totalBonusesPaid",
      "outputs": [
        {
          "internalType": "uint256",
          "name": "",
          "type": "uint256"
        }
      ],
      "stateMutability": "view",
      "type": "function"
    },
    {
      "inputs": [],
      "name": "totalMatchesCorrect",
      "outputs": [
        {
          "internalType": "uint256",
          "name": "",
          "type": "uint256"
        }
      ],
      "stateMutability": "view",
      "type": "function"
    },
    {
      "inputs": [],
      "name": "totalMatchesPredicted",
      "outputs": [
        {
          "internalType": "uint256",
          "name": "",
          "type": "uint256"
        }
      ],
      "stateMutability": "view",
      "type": "function"
    },
    {
      "inputs": [],
      "name": "totalVolumeTraded",
      "outputs": [
        {
          "internalType": "uint256",
          "name": "",
          "type": "uint256"
        }
      ],
      "stateMutability": "view",
      "type": "function"
    },
    {
      "inputs": [
        {
          "internalType": "address",
          "name": "newOwner",
          "type": "address"
        }
      ],
      "name": "transferOwnership",
      "outputs": [],
      "stateMutability": "nonpayable",
      "type": "function"
    },
    {
      "inputs": [],
      "name": "usdc",
      "outputs": [
        {
          "internalType": "contract IERC20",
          "name": "",
          "type": "address"
        }
      ],
      "stateMutability": "view",
      "type": "function"
    },
    {
      "inputs": [
        {
          "internalType": "uint256",
          "name": "",
          "type": "uint256"
        },
        {
          "internalType": "address",
          "name": "",
          "type": "address"
        }
      ],
      "name": "userBetIndex",
      "outputs": [
        {
          "internalType": "uint256",
          "name": "",
          "type": "uint256"
        }
      ],
      "stateMutability": "view",
      "type": "function"
    },
    {
      "inputs": [
        {
          "internalType": "address",
          "name": "",
          "type": "address"
        }
      ],
      "name": "userCorrectPredictions",
      "outputs": [
        {
          "internalType": "uint256",
          "name": "",
          "type": "uint256"
        }
      ],
      "stateMutability": "view",
      "type": "function"
    },
    {
      "inputs": [
        {
          "internalType": "address",
          "name": "",
          "type": "address"
        }
      ],
      "name": "userTotalBets",
      "outputs": [
        {
          "internalType": "uint256",
          "name": "",
          "type": "uint256"
        }
      ],
      "stateMutability": "view",
      "type": "function"
    },
    {
      "inputs": [
        {
          "internalType": "address",
          "name": "",
          "type": "address"
        }
      ],
      "name": "userTotalWinnings",
      "outputs": [
        {
          "internalType": "uint256",
          "name": "",
          "type": "uint256"
        }
      ],
      "stateMutability": "view",
      "type": "function"
    },
    {
      "inputs": [
        {
          "internalType": "uint256",
          "name": "",
          "type": "uint256"
        }
      ],
      "name": "winnersCount",
      "outputs": [
        {
          "internalType": "uint256",
          "name": "",
          "type": "uint256"
        }
      ],
      "stateMutability": "view",
      "type": "function"
    }
  ],
  "bytecode": "0x60a06040523480156200001157600080fd5b506040516200260a3803806200260a833981016040819052620000349162000126565b33806200005c57604051631e4fbdf760e01b8152600060048201526024015b60405180910390fd5b6200006781620000d6565b50600180556001600160a01b038116620000c45760405162461bcd60e51b815260206004820152601460248201527f496e76616c696420555344432061646472657373000000000000000000000000604482015260640162000053565b6001600160a01b031660805262000158565b600080546001600160a01b038381166001600160a01b0319831681178455604051919092169283917f8be0079c531659141344cd1fd0a4f28419497f9722a3daafe3b4186f6b6457e09190a35050565b6000602082840312156200013957600080fd5b81516001600160a01b03811681146200015157600080fd5b9392505050565b608051612473620001976000396000818161034d01528181610a6a015281816110270152818161111101528181611447015261158f01526124736000f3fe608060405234801561001057600080fd5b50600436106102105760003560e01c8063677bd9ff11610125578063ae062acd116100ad578063de4b0edb1161007c578063de4b0edb1461059b578063e500d8d2146105ae578063eb1bb72a146105e5578063f2fde38b14610605578063fe21f3061461061857600080fd5b8063ae062acd14610508578063c03fb87c1461052b578063c09ffdb71461055b578063dc2ef7f11461059257600080fd5b80637a9b0412116100f45780637a9b0412146104925780637b6e1f9a146104a55780637e95b523146104c55780638da5cb5b146104d05780638f888338146104e157600080fd5b8063677bd9ff1461044c5780636c2aa7931461045f578063715018a61461047f57806374863d901461048757600080fd5b80633e413bee116101a85780634bbcde29116101775780634bbcde29146103c25780634e43603a146103cb5780635312ea8e146104265780635adc19c7146104395780636540742f1461044257600080fd5b80633e413bee146103485780634afe62b5146103875780634b30e26a1461039c5780634b7aeb21146103af57600080fd5b80632693ee80116101e45780632693ee80146102cc5780632b5bf9a3146102d557806334dddef9146103005780633c5ea4c01461033f57600080fd5b80624fbbb0146102155780630885744214610249578063136d8883146102775780631db9ec80146102ac575b600080fd5b610228610223366004611dbd565b61062b565b6040516102409c9b9a99989796959493929190611e1c565b60405180910390f35b610269610257366004611ece565b60096020526000908152604090205481565b604051908152602001610240565b61027f6107a8565b604080519687526020870195909552938501929092526060840152608083015260a082015260c001610240565b6102696102ba366004611dbd565b60066020526000908152604090205481565b610269600f5481565b6102696102e3366004611ef0565b600560209081526000928352604080842090915290825290205481565b61031361030e366004611f1c565b610802565b604080516001600160a01b03909516855260208501939093529183015215156060820152608001610240565b610269600e5481565b61036f7f000000000000000000000000000000000000000000000000000000000000000081565b6040516001600160a01b039091168152602001610240565b61039a610395366004611f1c565b610855565b005b61039a6103aa366004611f98565b610c3e565b61039a6103bd366004611dbd565b610fb5565b610269600b5481565b61040b6103d9366004611ece565b6001600160a01b03166000908152600860209081526040808320546009835281842054600a9093529220549192909190565b60408051938452602084019290925290820152606001610240565b61039a610434366004611dbd565b611107565b610269600d5481565b610269620f424081565b61039a61045a366004611dbd565b6111e0565b61026961046d366004611dbd565b60076020526000908152604090205481565b61039a611676565b6102696305f5e10081565b61039a6104a0366004611ece565b61168a565b6102696104b3366004611ece565b60086020526000908152604090205481565b610269633b9aca0081565b6000546001600160a01b031661036f565b6104f46104ef366004611dbd565b611733565b60405161024098979695949392919061204c565b61051b610516366004611ef0565b6118ed565b6040519015158152602001610240565b61053e610539366004611ef0565b611919565b604080519384526020840192909252151590820152606001610240565b61040b610569366004611dbd565b600081815260066020908152604080832054600483528184205460079093529220549193909250565b610269600c5481565b61039a6105a93660046120b2565b6119d7565b6105c16105bc366004611dbd565b611c83565b6040805160ff94851681529284166020840152921691810191909152606001610240565b6102696105f3366004611ece565b600a6020526000908152604090205481565b61039a610613366004611ece565b611cdb565b60025461036f906001600160a01b031681565b600360205260009081526040902080548190610646906120ee565b80601f0160208091040260200160405190810160405280929190818152602001828054610672906120ee565b80156106bf5780601f10610694576101008083540402835291602001916106bf565b820191906000526020600020905b8154815290600101906020018083116106a257829003601f168201915b5050505050908060010180546106d4906120ee565b80601f0160208091040260200160405190810160405280929190818152602001828054610700906120ee565b801561074d5780601f106107225761010080835404028352916020019161074d565b820191906000526020600020905b81548152906001019060200180831161073057829003601f168201915b50505050600283015460038401546004850154600590950154939460ff808416956101008086048316965062010000958690048316958383169391830482169290810482169163010000008204811691600160201b9004168c565b600080600080600080600080600b54116107c35760006107de565b600b54600c546107d490606461213e565b6107de9190612155565b600b54600c54600d54600e54600f54939c929b509099509750909550909350915050565b6004602052816000526040600020818154811061081e57600080fd5b600091825260209091206004909102018054600182015460028301546003909301546001600160a01b039092169450925060ff1684565b61085d611d16565b6000828152600360205260409020600581015460ff166108c45760405162461bcd60e51b815260206004820152601c60248201527f4e6f2070726564696374696f6e20666f722074686973206d617463680000000060448201526064015b60405180910390fd5b6005810154610100900460ff16156109165760405162461bcd60e51b815260206004820152601560248201527413585d18da08185b1c9958591e481cd95d1d1b1959605a1b60448201526064016108bb565b8060030154421061095a5760405162461bcd60e51b815260206004820152600e60248201526d10995d1d1a5b99c818db1bdcd95960921b60448201526064016108bb565b620f424082101561099d5760405162461bcd60e51b815260206004820152600d60248201526c10995d081d1bdbc81cdb585b1b609a1b60448201526064016108bb565b633b9aca008211156109e15760405162461bcd60e51b815260206004820152600d60248201526c42657420746f6f206c6172676560981b60448201526064016108bb565b600083815260056020908152604080832033845290915290205415610a485760405162461bcd60e51b815260206004820152601960248201527f416c726561647920626574206f6e2074686973206d617463680000000000000060448201526064016108bb565b6040516323b872dd60e01b8152336004820152306024820152604481018390527f00000000000000000000000000000000000000000000000000000000000000006001600160a01b0316906323b872dd906064016020604051808303816000875af1158015610abb573d6000803e3d6000fd5b505050506040513d601f19601f82011682018060405250810190610adf9190612177565b610afb5760405162461bcd60e51b81526004016108bb90612199565b60008381526004602081815260408084208151608081018352338082528185018981524283860190815260608401898152855460018082018855878c52898c20965191909a0290950180546001600160a01b0319166001600160a01b039096169590951785559151978401979097559551600283015594516003909101805460ff19169115159190911790558785525460058352818520938552928252808420929092558583526006905281208054849290610bb89084906121c2565b9091555050336000908152600860205260408120805491610bd8836121d5565b919050555081600d6000828254610bef91906121c2565b909155505060408051838152426020820152339185917f1b8a9031cb9351278d70a994f81536e9e08c91162e64f92b2fe4766fb7a891b4910160405180910390a350610c3a60018055565b5050565b6000546001600160a01b0316331480610c6157506002546001600160a01b031633145b610c7d5760405162461bcd60e51b81526004016108bb906121ee565b60008981526003602052604090206005015460ff1615610cdf5760405162461bcd60e51b815260206004820152601960248201527f50726564696374696f6e20616c7265616479206578697374730000000000000060448201526064016108bb565b428111610d265760405162461bcd60e51b815260206004820152601560248201527413585d18da08185b1c9958591e481cdd185c9d1959605a1b60448201526064016108bb565b60008260ff16118015610d3d575060648260ff1611155b610d7e5760405162461bcd60e51b8152602060048201526012602482015271496e76616c696420636f6e666964656e636560701b60448201526064016108bb565b60405180610180016040528089898080601f016020809104026020016040519081016040528093929190818152602001838380828437600092019190915250505090825250604080516020601f8a0181900481028201810190925288815291810191908990899081908401838280828437600092018290525093855250505060ff8088166020808501919091528782166040808601919091529187166060850152608084018690524260a0850152600160c085015260e08401839052610100840183905261012084018390526101409093018290528c825260039092522081518190610e6a90826122a1565b5060208201516001820190610e7f90826122a1565b5060408201516002820180546060850151608086015160ff94851661ffff199384161761010092861683021762ff000019166201000091861682021790935560a0860151600386015560c0860151600486015560e086015160059095018054828801516101208901516101408a0151610160909a01519290951661ff001998151598909816979097179615159092029590951763ffff0000191691841690920263ff000000191617630100000094909216939093021764ff000000001916600160201b92151592909202919091179055600b8054906000610f5f836121d5565b9190505550887f35200095317f02946f1d14d8634b3216d5253a4cfb606fa58d69632246a14e668989898989898989604051610fa298979695949392919061238a565b60405180910390a2505050505050505050565b600081116110055760405162461bcd60e51b815260206004820152601760248201527f416d6f756e74206d75737420626520706f73697469766500000000000000000060448201526064016108bb565b6040516323b872dd60e01b8152336004820152306024820152604481018290527f00000000000000000000000000000000000000000000000000000000000000006001600160a01b0316906323b872dd906064016020604051808303816000875af1158015611078573d6000803e3d6000fd5b505050506040513d601f19601f8201168201806040525081019061109c9190612177565b6110b85760405162461bcd60e51b81526004016108bb90612199565b80600f60008282546110ca91906121c2565b909155505060405181815233907f963242895f5f5e2b7e90e067fb00a04d683cf55e9553b3a7e4e2a7e8df53026c9060200160405180910390a250565b61110f611d40565b7f00000000000000000000000000000000000000000000000000000000000000006001600160a01b031663a9059cbb6111506000546001600160a01b031690565b6040516001600160e01b031960e084901b1681526001600160a01b039091166004820152602481018490526044016020604051808303816000875af115801561119d573d6000803e3d6000fd5b505050506040513d601f19601f820116820180604052508101906111c19190612177565b6111dd5760405162461bcd60e51b81526004016108bb90612199565b50565b6111e8611d16565b6000818152600360205260409020600581015460ff1661121a5760405162461bcd60e51b81526004016108bb906123dd565b6005810154610100900460ff166112675760405162461bcd60e51b815260206004820152601160248201527013585d18da081b9bdd081cd95d1d1b1959607a1b60448201526064016108bb565b6000828152600560209081526040808320338452909152902054806112bd5760405162461bcd60e51b815260206004820152600c60248201526b139bc818995d08199bdd5b9960a21b60448201526064016108bb565b60008381526004602052604081206112d6600184612414565b815481106112e6576112e6612427565b60009182526020909120600490910201600381015490915060ff16156113405760405162461bcd60e51b815260206004820152600f60248201526e105b1c9958591e4818db185a5b5959608a1b60448201526064016108bb565b80546001600160a01b031633146113885760405162461bcd60e51b815260206004820152600c60248201526b139bdd081e5bdd5c8818995d60a21b60448201526064016108bb565b60038101805460ff191660011790556005830154600160201b900460ff161561156d576000848152600760205260408120549081158015906113d057506305f5e100600f5410155b15611416576113e3826305f5e100612155565b905080600f60008282546113f79190612414565b9250508190555080600e600082825461141091906121c2565b90915550505b600081846001015461142891906121c2565b60405163a9059cbb60e01b8152336004820152602481018290529091507f00000000000000000000000000000000000000000000000000000000000000006001600160a01b03169063a9059cbb906044016020604051808303816000875af1158015611498573d6000803e3d6000fd5b505050506040513d601f19601f820116820180604052508101906114bc9190612177565b6114d85760405162461bcd60e51b81526004016108bb90612199565b33600090815260096020526040812080548392906114f79084906121c2565b9091555050336000908152600a60205260408120805491611517836121d5565b9091555050600184015460408051918252602082018490528101829052339088907fadd3d9a4e0b4065aaaea286d6a972cb854de1a2a3d8bb80101aca14da148a5fd9060600160405180910390a350505061166a565b600181015460405163a9059cbb60e01b815233600482015260248101919091527f00000000000000000000000000000000000000000000000000000000000000006001600160a01b03169063a9059cbb906044016020604051808303816000875af11580156115e0573d6000803e3d6000fd5b505050506040513d601f19601f820116820180604052508101906116049190612177565b6116205760405162461bcd60e51b81526004016108bb90612199565b600181015460408051828152600060208201528082019290925251339186917fadd3d9a4e0b4065aaaea286d6a972cb854de1a2a3d8bb80101aca14da148a5fd9181900360600190a35b5050506111dd60018055565b61167e611d40565b6116886000611d6d565b565b611692611d40565b6001600160a01b0381166116e15760405162461bcd60e51b8152602060048201526016602482015275496e76616c6964206f7261636c65206164647265737360501b60448201526064016108bb565b600280546001600160a01b038381166001600160a01b0319831681179093556040519116919082907fd3afd1676752459d3aa8b6f73633fac8efd724610da9c4cd8d8e4fa1631841fb90600090a35050565b6000818152600360205260408120600581015460609283929091829182918291829182919060ff166117775760405162461bcd60e51b81526004016108bb906123dd565b60028101546003820154600583015483548493600185019360ff8083169461010080850483169562010000909504831694908204831692600160201b9092049091169088906117c5906120ee565b80601f01602080910402602001604051908101604052809291908181526020018280546117f1906120ee565b801561183e5780601f106118135761010080835404028352916020019161183e565b820191906000526020600020905b81548152906001019060200180831161182157829003601f168201915b50505050509750868054611851906120ee565b80601f016020809104026020016040519081016040528092919081815260200182805461187d906120ee565b80156118ca5780601f1061189f576101008083540402835291602001916118ca565b820191906000526020600020905b8154815290600101906020018083116118ad57829003601f168201915b505050505096509850985098509850985098509850985050919395975091939597565b60008281526005602090815260408083206001600160a01b038516845290915290205415155b92915050565b60008281526005602090815260408083206001600160a01b0385168452909152812054819081908061197c5760405162461bcd60e51b815260206004820152600c60248201526b139bc818995d08199bdd5b9960a21b60448201526064016108bb565b6000868152600460205260408120611995600184612414565b815481106119a5576119a5612427565b6000918252602090912060049091020160018101546002820154600390920154909991985060ff169650945050505050565b6000546001600160a01b03163314806119fa57506002546001600160a01b031633145b611a165760405162461bcd60e51b81526004016108bb906121ee565b611a1e611d16565b6000838152600360205260409020600581015460ff16611a505760405162461bcd60e51b81526004016108bb906123dd565b6005810154610100900460ff1615611aa25760405162461bcd60e51b815260206004820152601560248201527413585d18da08185b1c9958591e481cd95d1d1b1959605a1b60448201526064016108bb565b80600301544211611ae95760405162461bcd60e51b815260206004820152601160248201527013585d18da081b9bdd081cdd185c9d1959607a1b60448201526064016108bb565b60058101805461010063ffff0000199091166201000060ff87811691820263ff0000001916929092176301000000878416021761ff001916929092179092556002830154909116148015611b4b5750600281015460ff83811661010090920416145b60058201805464ff000000001916600160201b9215158302179081905560ff9190041615611b8957600c8054906000611b83836121d5565b91905055505b6005810154600090600160201b900460ff16611ba6576000611bb6565b6000858152600460205260409020545b60008681526007602052604081208290559091508115801590611bdf57506305f5e100600f5410155b15611bf557611bf2826305f5e100612155565b90505b600583015460008781526006602090815260409182902054825160ff8a8116825289811693820193909352600160201b90940490911615158383015260608301526080820184905260a082018390525187917f9d55c5eeaaee092435b0370a5918e9ca27599f05e94f6ae8ebb469b83e22912a919081900360c00190a2505050611c7e60018055565b505050565b600081815260036020526040812060058101548291829160ff16611cb95760405162461bcd60e51b81526004016108bb906123dd565b6002015460ff8082169661010083048216965062010000909204169350915050565b611ce3611d40565b6001600160a01b038116611d0d57604051631e4fbdf760e01b8152600060048201526024016108bb565b6111dd81611d6d565b600260015403611d3957604051633ee5aeb560e01b815260040160405180910390fd5b6002600155565b6000546001600160a01b031633146116885760405163118cdaa760e01b81523360048201526024016108bb565b600080546001600160a01b038381166001600160a01b0319831681178455604051919092169283917f8be0079c531659141344cd1fd0a4f28419497f9722a3daafe3b4186f6b6457e09190a35050565b600060208284031215611dcf57600080fd5b5035919050565b6000815180845260005b81811015611dfc57602081850181015186830182015201611de0565b506000602082860101526020601f19601f83011685010191505092915050565b61018081526000611e3161018083018f611dd6565b8281036020840152611e43818f611dd6565b91505060ff8c16604083015260ff8b16606083015260ff8a1660808301528860a08301528760c083015286151560e0830152851515610100830152611e8e61012083018660ff169052565b60ff84166101408301528215156101608301529d9c50505050505050505050505050565b80356001600160a01b0381168114611ec957600080fd5b919050565b600060208284031215611ee057600080fd5b611ee982611eb2565b9392505050565b60008060408385031215611f0357600080fd5b82359150611f1360208401611eb2565b90509250929050565b60008060408385031215611f2f57600080fd5b50508035926020909101359150565b60008083601f840112611f5057600080fd5b50813567ffffffffffffffff811115611f6857600080fd5b602083019150836020828501011115611f8057600080fd5b9250929050565b803560ff81168114611ec957600080fd5b600080600080600080600080600060e08a8c031215611fb657600080fd5b8935985060208a013567ffffffffffffffff80821115611fd557600080fd5b611fe18d838e01611f3e565b909a50985060408c0135915080821115611ffa57600080fd5b506120078c828d01611f3e565b909750955061201a905060608b01611f87565b935061202860808b01611f87565b925061203660a08b01611f87565b915060c08a013590509295985092959850929598565b60006101008083526120608184018c611dd6565b90508281036020840152612074818b611dd6565b60ff998a1660408501529789166060840152505093909516608084015260a0830191909152151560c082015291151560e09092019190915292915050565b6000806000606084860312156120c757600080fd5b833592506120d760208501611f87565b91506120e560408501611f87565b90509250925092565b600181811c9082168061210257607f821691505b60208210810361212257634e487b7160e01b600052602260045260246000fd5b50919050565b634e487b7160e01b600052601160045260246000fd5b808202811582820484141761191357611913612128565b60008261217257634e487b7160e01b600052601260045260246000fd5b500490565b60006020828403121561218957600080fd5b81518015158114611ee957600080fd5b6020808252600f908201526e151c985b9cd9995c8819985a5b1959608a1b604082015260600190565b8082018082111561191357611913612128565b6000600182016121e7576121e7612128565b5060010190565b6020808252602f908201527f50726564696374696f6e4d61726b65743a2063616c6c6572206973206e6f742060408201526e6f776e6572206f72206f7261636c6560881b606082015260800190565b634e487b7160e01b600052604160045260246000fd5b601f821115611c7e57600081815260208120601f850160051c8101602086101561227a5750805b601f850160051c820191505b8181101561229957828155600101612286565b505050505050565b815167ffffffffffffffff8111156122bb576122bb61223d565b6122cf816122c984546120ee565b84612253565b602080601f83116001811461230457600084156122ec5750858301515b600019600386901b1c1916600185901b178555612299565b600085815260208120601f198616915b8281101561233357888601518255948401946001909101908401612314565b50858210156123515787850151600019600388901b60f8161c191681555b5050505050600190811b01905550565b81835281816020850137506000828201602090810191909152601f909101601f19169091010190565b60c08152600061239e60c083018a8c612361565b82810360208401526123b181898b612361565b60ff97881660408501529587166060840152505091909316608082015260a00191909152949350505050565b60208082526019908201527f50726564696374696f6e20646f6573206e6f7420657869737400000000000000604082015260600190565b8181038181111561191357611913612128565b634e487b7160e01b600052603260045260246000fdfea2646970667358221220c833f7070b51432a2a30a3e36cb1b6ff170fc07ab27d2dc3ae4c4393056fd4c364736f6c63430008140033",
  "linkReferences": {},
  "deployedLinkReferences": {}
}