{
  "_format": "hh-sol-artifact-1",
  "contractName": "MockUSDC",
  "sourceName": "contracts/MockUSDC.sol",
  "abi": [
    {
      "inputs": [],
      "stateMutability": "nonpayable",
      "type": "constructor"
    },
    {
      "inputs": [
        {
          "internalType": "address",
          "name": "spender",
          "type": "address"
        },
        {
          "internalType": "uint256",
          "name": "allowance",
          "type": "uint256"
        },
        {
          "internalType": "uint256",
          "name": "needed",
          "type": "uint256"
        }
      ],
      "name": "ERC20InsufficientAllowance",
      "type": "error"
    },
    {
      "inputs": [
        {
          "internalType": "address",
          "name": "sender",
          "type": "address"
        },
        {
          "internalType": "uint256",
          "name": "balance",
          "type": "uint256"
        },
        {
          "internalType": "uint256",
          "name": "needed",
          "type": "uint256"
        }
      ],
      "name": "ERC20InsufficientBalance",
      "type": "error"
    },
    {
      "inputs": [
        {
          "internalType": "address",
          "name": "approver",
          "type": "address"
        }
      ],
      "name": "ERC20InvalidApprover",
      "type": "error"
    },
    {
      "inputs": [
        {
          "internalType": "address",
          "name": "receiver",
          "type": "address"
        }
      ],
      "name": "ERC20InvalidReceiver",
      "type": "error"
    },
    {
      "inputs": [
        {
          "internalType": "address",
          "name": "sender",
          "type": "address"
        }
      ],
      "name": "ERC20InvalidSender",
      "type": "error"
    },
    {
      "inputs": [
        {
          "internalType": "address",
          "name": "spender",
          "type": "address"
        }
      ],
      "name": "ERC20InvalidSpender",
      "type": "error"
    },
    {
      "inputs": [
        {
          "internalType": "address",
          "name": "owner",
          "type": "address"
        }
      ],
      "name": "OwnableInvalidOwner",
      "type": "error"
    },
    {
      "inputs": [
        {
          "internalType": "address",
          "name": "account",
          "type": "address"
        }
      ],
      "name": "OwnableUnauthorizedAccount",
      "type": "error"
    },
    {
      "anonymous": false,
      "inputs": [
        {
          "indexed": true,
          "internalType": "address",
          "name": "owner",
          "type": "address"
        },
        {
          "indexed": true,
          "internalType": "address",
          "name": "spender",
          "type": "address"
        },
        {
          "indexed": false,
          "internalType": "uint256",
          "name": "value",
          "type": "uint256"
        }
      ],
      "name": "Approval",
      "type": "event"
    },
    {
      "anonymous": false,
      "inputs": [
        {
          "indexed": true,
          "internalType": "address",
          "name": "user",
          "type": "address"
        },
        {
          "indexed": false,
          "internalType": "uint256",
          "name": "amount",
          "type": "uint256"
        }
      ],
      "name": "FaucetUsed",
      "type": "event"
    },
    {
      "anonymous": false,
      "inputs": [
        {
          "indexed": true,
          "internalType": "address",
          "name": "previousOwner",
          "type": "address"
        },
        {
          "indexed": true,
          "internalType": "address",
          "name": "newOwner",
          "type": "address"
        }
      ],
      "name": "OwnershipTransferred",
      "type": "event"
    },
    {
      "anonymous": false,
      "inputs": [
        {
          "indexed": true,
          "internalType": "address",
          "name": "to",
          "type": "address"
        },
        {
          "indexed": false,
          "internalType": "uint256",
          "name": "amount",
          "type": "uint256"
        }
      ],
      "name": "TokensMinted",
      "type": "event"
    },
    {
      "anonymous": false,
      "inputs": [
        {
          "indexed": true,
          "internalType": "address",
          "name": "from",
          "type": "address"
        },
        {
          "indexed": true,
          "internalType": "address",
          "name": "to",
          "type": "address"
        },
        {
          "indexed": false,
          "internalType": "uint256",
          "name": "value",
          "type": "uint256"
        }
      ],
      "name": "Transfer",
      "type": "event"
    },
    {
      "inputs": [],
      "name": "FAUCET_AMOUNT",
      "outputs": [
        {
          "internalType": "uint256",
          "name": "",
          "type": "uint256"
        }
      ],
      "stateMutability": "view",
      "type": "function"
    },
    {
      "inputs": [],
      "name": "MINT_COOLDOWN",
      "outputs": [
        {
          "internalType": "uint256",
          "name": "",
          "type": "uint256"
        }
      ],
      "stateMutability": "view",
      "type": "function"
    },
    {
      "inputs": [
        {
          "internalType": "address",
          "name": "owner",
          "type": "address"
        },
        {
          "internalType": "address",
          "name": "spender",
          "type": "address"
        }
      ],
      "name": "allowance",
      "outputs": [
        {
          "internalType": "uint256",
          "name": "",
          "type": "uint256"
        }
      ],
      "stateMutability": "view",
      "type": "function"
    },
    {
      "inputs": [
        {
          "internalType": "address",
          "name": "spender",
          "type": "address"
        },
        {
          "internalType": "uint256",
          "name": "value",
          "type": "uint256"
        }
      ],
      "name": "approve",
      "outputs": [
        {
          "internalType": "bool",
          "name": "",
          "type": "bool"
        }
      ],
      "stateMutability": "nonpayable",
      "type": "function"
    },
    {
      "inputs": [
        {
          "internalType": "address",
          "name": "account",
          "type": "address"
        }
      ],
      "name": "balanceOf",
      "outputs": [
        {
          "internalType": "uint256",
          "name": "",
          "type": "uint256"
        }
      ],
      "stateMutability": "view",
      "type": "function"
    },
    {
      "inputs": [
        {
          "internalType": "uint256",
          "name": "amount",
          "type": "uint256"
        }
      ],
      "name": "burn",
      "outputs": [],
      "stateMutability": "nonpayable",
      "type": "function"
    },
    {
      "inputs": [
        {
          "internalType": "address",
          "name": "user",
          "type": "address"
        }
      ],
      "name": "canUseFaucet",
      "outputs": [
        {
          "internalType": "bool",
          "name": "canUse",
          "type": "bool"
        },
        {
          "internalType": "uint256",
          "name": "cooldownRemaining",
          "type": "uint256"
        }
      ],
      "stateMutability": "view",
      "type": "function"
    },
    {
      "inputs": [],
      "name": "decimals",
      "outputs": [
        {
          "internalType": "uint8",
          "name": "",
          "type": "uint8"
        }
      ],
      "stateMutability": "pure",
      "type": "function"
    },
    {
      "inputs": [],
      "name": "faucet",
      "outputs": [],
      "stateMutability": "nonpayable",
      "type": "function"
    },
    {
      "inputs": [
        {
          "internalType": "address",
          "name": "",
          "type": "address"
        }
      ],
      "name": "lastFaucetRequest",
      "outputs": [
        {
          "internalType": "uint256",
          "name": "",
          "type": "uint256"
        }
      ],
      "stateMutability": "view",
      "type": "function"
    },
    {
      "inputs": [
        {
          "internalType": "address",
          "name": "to",
          "type": "address"
        },
        {
          "internalType": "uint256",
          "name": "amount",
          "type": "uint256"
        }
      ],
      "name": "mint",
      "outputs": [],
      "stateMutability": "nonpayable",
      "type": "function"
    },
    {
      "inputs": [],
      "name": "name",
      "outputs": [
        {
          "internalType": "string",
          "name": "",
          "type": "string"
        }
      ],
      "stateMutability": "view",
      "type": "function"
    },
    {
      "inputs": [],
      "name": "owner",
      "outputs": [
        {
          "internalType": "address",
          "name": "",
          "type": "address"
        }
      ],
      "stateMutability": "view",
      "type": "function"
    },
    {
      "inputs": [
        {
          "internalType": "address",
          "name": "to",
          "type": "address"
        },
        {
          "internalType": "uint256",
          "name": "amount",
          "type": "uint256"
        }
      ],
      "name": "ownerMint",
      "outputs": [],
      "stateMutability": "nonpayable",
      "type": "function"
    },
    {
      "inputs": [],
      "name": "renounceOwnership",
      "outputs": [],
      "stateMutability": "nonpayable",
      "type": "function"
    },
    {
      "inputs": [],
      "name": "symbol",
      "outputs": [
        {
          "internalType": "string",
          "name": "",
          "type": "string"
        }
      ],
      "stateMutability": "view",
      "type": "function"
    },
    {
      "inputs": [],
      "name": "totalSupply",
      "outputs": [
        {
          "internalType": "uint256",
          "name": "",
          "type": "uint256"
        }
      ],
      "stateMutability": "view",
      "type": "function"
    },
    {
      "inputs": [
        {
          "internalType": "address",
          "name": "to",
          "type": "address"
        },
        {
          "internalType": "uint256",
          "name": "value",
          "type": "uint256"
        }
      ],
      "name": "transfer",
      "outputs": [
        {
          "internalType": "bool",
          "name": "",
          "type": "bool"
        }
      ],
      "stateMutability": "nonpayable",
      "type": "function"
    },
    {
      "inputs": [
        {
          "internalType": "address",
          "name": "from",
          "type": "address"
        },
        {
          "internalType": "address",
          "name": "to",
          "type": "address"
        },
        {
          "internalType": "uint256",
          "name": "value",
          "type": "uint256"
        }
      ],
      "name": "transferFrom",
      "outputs": [
        {
          "internalType": "bool",
          "name": "",
          "type": "bool"
        }
      ],
      "stateMutability": "nonpayable",
      "type": "function"
    },
    {
      "inputs": [
        {
          "internalType": "address",
          "name": "newOwner",
          "type": "address"
        }
      ],
      "name": "transferOwnership",
      "outputs": [],
      "stateMutability": "nonpayable",
      "type": "function"
    }
  ],
  "bytecode": "0x60806040523480156200001157600080fd5b5033604051806040016040528060098152602001684d6f636b205553444360b81b815250604051806040016040528060058152602001646d5553444360d81b815250816003908162000064919062000348565b50600462000073828262000348565b5050506001600160a01b038116620000a657604051631e4fbdf760e01b8152600060048201526024015b60405180910390fd5b620000b181620000e0565b50620000da33620000c56006600a62000529565b620000d490620f424062000541565b62000132565b62000571565b600580546001600160a01b038381166001600160a01b0319831681179093556040519116919082907f8be0079c531659141344cd1fd0a4f28419497f9722a3daafe3b4186f6b6457e090600090a35050565b6001600160a01b0382166200015e5760405163ec442f0560e01b8152600060048201526024016200009d565b6200016c6000838362000170565b5050565b6001600160a01b0383166200019f5780600260008282546200019391906200055b565b90915550620002139050565b6001600160a01b03831660009081526020819052604090205481811015620001f45760405163391434e360e21b81526001600160a01b038516600482015260248101829052604481018390526064016200009d565b6001600160a01b03841660009081526020819052604090209082900390555b6001600160a01b038216620002315760028054829003905562000250565b6001600160a01b03821660009081526020819052604090208054820190555b816001600160a01b0316836001600160a01b03167fddf252ad1be2c89b69c2b068fc378daa952ba7f163c4a11628f55a4df523b3ef836040516200029691815260200190565b60405180910390a3505050565b634e487b7160e01b600052604160045260246000fd5b600181811c90821680620002ce57607f821691505b602082108103620002ef57634e487b7160e01b600052602260045260246000fd5b50919050565b601f8211156200034357600081815260208120601f850160051c810160208610156200031e5750805b601f850160051c820191505b818110156200033f578281556001016200032a565b5050505b505050565b81516001600160401b03811115620003645762000364620002a3565b6200037c81620003758454620002b9565b84620002f5565b602080601f831160018114620003b457600084156200039b5750858301515b600019600386901b1c1916600185901b1785556200033f565b600085815260208120601f198616915b82811015620003e557888601518255948401946001909101908401620003c4565b5085821015620004045787850151600019600388901b60f8161c191681555b5050505050600190811b01905550565b634e487b7160e01b600052601160045260246000fd5b600181815b808511156200046b5781600019048211156200044f576200044f62000414565b808516156200045d57918102915b93841c93908002906200042f565b509250929050565b600082620004845750600162000523565b81620004935750600062000523565b8160018114620004ac5760028114620004b757620004d7565b600191505062000523565b60ff841115620004cb57620004cb62000414565b50506001821b62000523565b5060208310610133831016604e8410600b8410161715620004fc575081810a62000523565b6200050883836200042a565b80600019048211156200051f576200051f62000414565b0290505b92915050565b60006200053a60ff84168362000473565b9392505050565b808202811582820484141762000523576200052362000414565b8082018082111562000523576200052362000414565b610e1480620005816000396000f3fe608060405234801561001057600080fd5b506004361061012c5760003560e01c806376697640116100ad578063d5ace7ba11610071578063d5ace7ba1461027a578063dd62ed3e1461029a578063de5f72fd146102d3578063f2fde38b146102db578063f7ee7a43146102ee57600080fd5b80637669764014610212578063780768fc1461021a5780638da5cb5b1461024457806395d89b411461025f578063a9059cbb1461026757600080fd5b806340c10f19116100f457806340c10f19146101a657806342966c68146101bb578063484b973c146101ce57806370a08231146101e1578063715018a61461020a57600080fd5b806306fdde0314610131578063095ea7b31461014f57806318160ddd1461017257806323b872dd14610184578063313ce56714610197575b600080fd5b6101396102f7565b6040516101469190610b20565b60405180910390f35b61016261015d366004610b8a565b610389565b6040519015158152602001610146565b6002545b604051908152602001610146565b610162610192366004610bb4565b6103a3565b60405160068152602001610146565b6101b96101b4366004610b8a565b6103c7565b005b6101b96101c9366004610bf0565b610512565b6101b96101dc366004610b8a565b61051f565b6101766101ef366004610c09565b6001600160a01b031660009081526020819052604090205490565b6101b961057d565b610176610591565b61022d610228366004610c09565b6105ac565b604080519215158352602083019190915201610146565b6005546040516001600160a01b039091168152602001610146565b610139610602565b610162610275366004610b8a565b610611565b610176610288366004610c09565b60066020526000908152604090205481565b6101766102a8366004610c2b565b6001600160a01b03918216600090815260016020908152604080832093909416825291909152205490565b6101b961061f565b6101b96102e9366004610c09565b610707565b610176610e1081565b60606003805461030690610c5e565b80601f016020809104026020016040519081016040528092919081815260200182805461033290610c5e565b801561037f5780601f106103545761010080835404028352916020019161037f565b820191906000526020600020905b81548152906001019060200180831161036257829003601f168201915b5050505050905090565b600033610397818585610742565b60019150505b92915050565b6000336103b1858285610754565b6103bc8585856107d3565b506001949350505050565b6001600160a01b0382166104225760405162461bcd60e51b815260206004820152601b60248201527f43616e6e6f74206d696e7420746f207a65726f2061646472657373000000000060448201526064015b60405180910390fd5b600081116104675760405162461bcd60e51b81526020600482015260126024820152710416d6f756e74206d757374206265203e20360741b6044820152606401610419565b6104736006600a610d92565b61048090620f4240610da1565b8111156104c15760405162461bcd60e51b815260206004820152600f60248201526e13585e080c53481c195c881b5a5b9d608a1b6044820152606401610419565b6104cb8282610832565b816001600160a01b03167f3f2c9d57c068687834f0de942a9babb9e5acab57d516d3480a3c16ee165a42738260405161050691815260200190565b60405180910390a25050565b61051c338261086c565b50565b6105276108a2565b6001600160a01b0382166104c15760405162461bcd60e51b815260206004820152601b60248201527f43616e6e6f74206d696e7420746f207a65726f206164647265737300000000006044820152606401610419565b6105856108a2565b61058f60006108cf565b565b61059d6006600a610d92565b6105a990612710610da1565b81565b6001600160a01b0381166000908152600660205260408120548190816105d4610e1083610db8565b90508042106105eb57506001946000945092505050565b60006105f74283610dcb565b935093505050915091565b60606004805461030690610c5e565b6000336103978185856107d3565b3360009081526006602052604090205461063c90610e1090610db8565b4210156106845760405162461bcd60e51b815260206004820152601660248201527546617563657420636f6f6c646f776e2061637469766560501b6044820152606401610419565b3360008181526006602081905260409091204290556106ba91906106a990600a610d92565b6106b590612710610da1565b610832565b337fc471df7d13ab46c73ec6eb2da0f35f84077f20d50243ba09a714b82cffc54de96106e86006600a610d92565b6106f490612710610da1565b60405190815260200160405180910390a2565b61070f6108a2565b6001600160a01b03811661073957604051631e4fbdf760e01b815260006004820152602401610419565b61051c816108cf565b61074f8383836001610921565b505050565b6001600160a01b038381166000908152600160209081526040808320938616835292905220546000198110156107cd57818110156107be57604051637dc7a0d960e11b81526001600160a01b03841660048201526024810182905260448101839052606401610419565b6107cd84848484036000610921565b50505050565b6001600160a01b0383166107fd57604051634b637e8f60e11b815260006004820152602401610419565b6001600160a01b0382166108275760405163ec442f0560e01b815260006004820152602401610419565b61074f8383836109f6565b6001600160a01b03821661085c5760405163ec442f0560e01b815260006004820152602401610419565b610868600083836109f6565b5050565b6001600160a01b03821661089657604051634b637e8f60e11b815260006004820152602401610419565b610868826000836109f6565b6005546001600160a01b0316331461058f5760405163118cdaa760e01b8152336004820152602401610419565b600580546001600160a01b038381166001600160a01b0319831681179093556040519116919082907f8be0079c531659141344cd1fd0a4f28419497f9722a3daafe3b4186f6b6457e090600090a35050565b6001600160a01b03841661094b5760405163e602df0560e01b815260006004820152602401610419565b6001600160a01b03831661097557604051634a1406b160e11b815260006004820152602401610419565b6001600160a01b03808516600090815260016020908152604080832093871683529290522082905580156107cd57826001600160a01b0316846001600160a01b03167f8c5be1e5ebec7d5bd14f71427d1e84f3dd0314c0f7b2291e5b200ac8c7c3b925846040516109e891815260200190565b60405180910390a350505050565b6001600160a01b038316610a21578060026000828254610a169190610db8565b90915550610a939050565b6001600160a01b03831660009081526020819052604090205481811015610a745760405163391434e360e21b81526001600160a01b03851660048201526024810182905260448101839052606401610419565b6001600160a01b03841660009081526020819052604090209082900390555b6001600160a01b038216610aaf57600280548290039055610ace565b6001600160a01b03821660009081526020819052604090208054820190555b816001600160a01b0316836001600160a01b03167fddf252ad1be2c89b69c2b068fc378daa952ba7f163c4a11628f55a4df523b3ef83604051610b1391815260200190565b60405180910390a3505050565b600060208083528351808285015260005b81811015610b4d57858101830151858201604001528201610b31565b506000604082860101526040601f19601f8301168501019250505092915050565b80356001600160a01b0381168114610b8557600080fd5b919050565b60008060408385031215610b9d57600080fd5b610ba683610b6e565b946020939093013593505050565b600080600060608486031215610bc957600080fd5b610bd284610b6e565b9250610be060208501610b6e565b9150604084013590509250925092565b600060208284031215610c0257600080fd5b5035919050565b600060208284031215610c1b57600080fd5b610c2482610b6e565b9392505050565b60008060408385031215610c3e57600080fd5b610c4783610b6e565b9150610c5560208401610b6e565b90509250929050565b600181811c90821680610c7257607f821691505b602082108103610c9257634e487b7160e01b600052602260045260246000fd5b50919050565b634e487b7160e01b600052601160045260246000fd5b600181815b80851115610ce9578160001904821115610ccf57610ccf610c98565b80851615610cdc57918102915b93841c9390800290610cb3565b509250929050565b600082610d005750600161039d565b81610d0d5750600061039d565b8160018114610d235760028114610d2d57610d49565b600191505061039d565b60ff841115610d3e57610d3e610c98565b50506001821b61039d565b5060208310610133831016604e8410600b8410161715610d6c575081810a61039d565b610d768383610cae565b8060001904821115610d8a57610d8a610c98565b029392505050565b6000610c2460ff841683610cf1565b808202811582820484141761039d5761039d610c98565b8082018082111561039d5761039d610c98565b8181038181111561039d5761039d610c9856fea264697066735822122077684daa73077ff8e9323adc64176bf55d3b941a70feccb9bd7ad42b64c8d2b264736f6c63430008140033",
  "linkReferences": {},
  "deployedLinkReferences": {}
}